:020000040800F2
:1000000000000320810500086D1D00086F1D000819
:10001000711D0008731D0008751D00080000000018
:10002000000000000000000000000000B1630008B4
:10003000771D00080000000041640008B15C000862
:10004000D1050008D1050008D1050008D105000838
:10005000D1050008D10500089D1D0008D105000844
:10006000D1050008D1050008D1050008D105000818
:10007000D1050008D1050008D1050008D105000808
:10008000D1050008D1050008D1050008D1050008F8
:10009000D1050008D1050008D1050008D1050008E8
:1000A000D1050008D1050008D1050008D1050008D8
:1000B000D1050008D1050008D1050008D1050008C8
:1000C000D1050008D1050008D1050008D1050008B8
:1000D000D1050008D1050008D1050008D1050008A8
:1000E000D1050008D1050008D1050008D105000898
:1000F000D1050008D1050008D1050008D105000888
:10010000D1050008D1050008D1050008D105000877
:10011000D1050008D1050008791D0008D1050008A7
:10012000D1050008D1050008D1050008D105000857
:10013000D1050008D1050008D1050008D105000847
:10014000D1050008D1050008D1050008D105000837
:10015000D1050008D1050008D1050008D105000827
:10016000D1050008D1050008D1050008D105000817
:10017000D1050008D1050008D105000800000000E5
:10018000D1050008D1050008D1050008D1050008F7
:10019000D1050008D1050008D1050008D1050008E7
:0C01A000851D0008D1050008911D000815
:1001B00010B5054C237833B9044B13B10448AFF3A1
:1001C00000800123237010BDF0000020000000001B
:1001D000E80C010808B5034B1BB103490348AFF312
:1001E000008008BD00000000F4000020E80C0108B9
:1001F00001F0FF01102A2BDB10F0070F08D010F8D8
:10020000013B013A8B422DD010F0070F42B3F6D1DB
:10021000F0B441EA012141EA014122F007047FF0F4
:1002200000070023F0E80256083C85EA010586EA4B
:10023000010685FA47F5A3FA87F586FA47F6A5FA87
:1002400087F68EB9EED1F0BC01F0FF0102F0070293
:1002500032B110F8013B013A83EA010313B1F8D13E
:100260000020704701387047002D06BF354603381F
:10027000073815F0010F07D1013015F4807F02BF58
:10028000013015F4C03F0130F0BC0138704700BFA9
:1002900053B94AB9002908BF00281CBF4FF0FF31ED
:1002A0004FF0FF3000F06AB9ADF1080C6DE904CEF3
:1002B00000F006F8DDF804E0DDE9022304B0704741
:1002C0002DE9F047089D0C46002B4ED194468C45F5
:1002D0008646B2FA82F262D94AB1C2F12003914055
:1002E00020FA03F30CFA02FC194300FA02FE4FEA6B
:1002F0001C471FFA8CF6B1FBF7F44FEA1E4307FBCD
:10030000141143EA014304FB06F199420AD91CEB9C
:10031000030304F1FF3080F01281994240F20F8113
:10032000023C6344591A1FFA8EF3B1FBF7F007FB46
:10033000101143EA014300FB06F69E420AD91CEB6A
:10034000030300F1FF3180F0FC809E4240F2F9800F
:10035000634402389B1B40EA044000211DB1D34096
:100360000022C5E90032BDE8F0878B4205D90DB106
:10037000C5E9000100210846F5E7B3FA83F1002939
:1003800046D1A34202D39042C0F0F080861A64EBBB
:1003900003030120002DE6D0C5E90063E3E7002A4E
:1003A00040F09080A1EB0C044FEA1C481FFA8CF738
:1003B0000121B4FBF8F64FEA1E4308FB164443EA5A
:1003C000044307FB06F0984208D91CEB030306F12F
:1003D000FF3402D2984200F2CD8026461C1A1FFA42
:1003E0008EF3B4FBF8F008FB104443EA044300FB2F
:1003F00007F79F4208D91CEB030300F1FF3402D238
:100400009F4200F2B0802046DB1B40EA0640A5E791
:10041000C1F120068B4022FA06F71F4320FA06FCA2
:1004200004FA01F343EA0C03F44000FA01F8380C33
:100430004FEA1349B4FBF0FE1FFA87FC00FB1E4491
:1004400049EA04440EFB0CF9A14502FA01F20AD96B
:100450003C190EF1FF3A80F08480A14540F2818082
:10046000AEF1020E3C44A4EB09041FFA83F9B4FB7D
:10047000F0F300FB134449EA044403FB0CFCA445DD
:1004800007D93C1903F1FF3067D2A44565D9023B77
:100490003C4443EA0E40A0FB0293A4EB0C049C42B4
:1004A000CE469C4651D34ED055B1B8EB0E0364EB0B
:1004B0000C0404FA06F6CB401E43CC40C5E90064A8
:1004C000002150E7C2F1200320FA03F10CFA02FCEC
:1004D00024FA03F394400C434FEA1C4800FA02FE4E
:1004E0001FFA8CF7B3FBF8F008FB1031230C43EA3A
:1004F000014300FB07F1994208D91CEB030300F10B
:10050000FF362CD299422AD9023863445B1AA4B22E
:10051000B3FBF8F108FB113344EA034401FB07F392
:10052000A34208D91CEB040401F1FF3613D2A34205
:1005300011D902396444E41A41EA004139E704461A
:10054000F0E6084606E7C845AED2B9EB020E63EB0B
:10055000070C0138A8E73146EDE7034699E7304636
:10056000D4E7D6467FE7634402384DE70646234684
:1005700008460FE7023E634430E700BF704700BF04
:10058000DFF834D0002103E00C4B5B5843500431BA
:100590000B480C4B42189A42F6D30B4A02E0002358
:1005A00042F8043B094B9A42F9D303F057F90FF094
:1005B0002BFE00F0B7FE70470000032000410E083C
:1005C00000000020F0000020F0000020A027012003
:1005D000FEE700F0B9BC00F027BD704710B504215C
:1005E00004460FF033FB204610BD000038B50C4B1D
:1005F0000C4C18800C4B822019806368984740F699
:10060000110398420AD1094D23682C608220984733
:100610002B688220DB689847002038BD0120FCE76A
:10062000160100204C0000201401002018010020B9
:100630004FF4A071F020FFF7D9BF0000F7B5334D9C
:100640002B6804461B6982209847208000284AD0E6
:100650002B680DF106025B6901A982209847BDF85D
:10066000063040F6746293423FD9ADF80620BDF8DB
:100670000630D21A92B20A2A3DD90B23B2FBF3F20A
:10068000234B1B889A4201D9013B9AB2BDF8043032
:1006900040F6B8318B4230D8C3F571630E339BB24C
:1006A0000F21B3FBF1F31B4909888B4201D90139B2
:1006B0008BB2194E194D30682F68834281B28CBFBE
:1006C000591AC91AB8B2BA428CBF101A801A89B224
:1006D00080B201440529C8BF33603368C8BF2A60AF
:1006E00063802B68A38003B0F0BDB32B9CBFB42301
:1006F000ADF80630BBE70022C8E7C3F56D630833E9
:100700009BB20E2BCCD80023D3E700BF18010020EA
:100710001401002016010020100100200C0100200F
:1007200037B568460D461446FFF788FFBDF8000050
:1007300030B1BDF802302B60BDF8043023600120D9
:1007400003B030BD032821D8DFE800F0020B1219F6
:100750000F4B1A68B2FA82F2520904210D4803F0D5
:1007600013BB0B4B5A68B2FA82F252090821F5E723
:10077000074B9A68B2FA82F252091021EEE7044B55
:10078000DA68B2FA82F252092021E7E7704700BF27
:100790001C01002000100240032821D8DFE800F0EF
:1007A000020B12190F4B1A68003A18BF01220421DC
:1007B0000D4803F0E9BA0B4B5A68003A18BF012202
:1007C0000821F5E7074B9A68003A18BF012210216B
:1007D000EEE7044BDA68003A18BF01222021E7E770
:1007E000704700BF1C0100200010024003280DD8F4
:1007F000DFE800F00206080A0421054803F0C9BA40
:100800000821FAE71021F8E72021F6E7704700BF3A
:100810000010024008B5032811D8DFE800F0020AF2
:100820000C0E0421074803F0A9FA431E5842584110
:1008300008BD0821F6E71021F4E72021F2E70020A7
:10084000F3E700BF0010024070B5084D00240126F8
:10085000E0B2FFF7DFFF18B12B68012B18BF2E6045
:100860000134052C05F10405F2D170BD1C010020F6
:10087000012380F8781080F87930704700207047A5
:10088000034B4164003918BF01211970704700BF44
:100890002B24012000207047836B0BB108461847BA
:1008A00070474FF6FF707047406803689B691847B0
:1008B000704770477047000070B5044600F054FC64
:1008C0002368D3F88850044BD4E90F122046AC4675
:1008D000BDE87040604700BF000000D008B5036865
:1008E0000446D3F880309847236820469B6F98478A
:1008F00000F0ECF8236820461B6F9847292000F091
:1009000067FF00F0E3F8236820461B6F9847F8E77D
:1009100010B5044608F032FB23682046D3F8AC300B
:10092000BDE81040184700F011BC00F015BC00F005
:1009300041BC00F0E7BB00F041BC00F049BC00F056
:10094000EBBB07F07BBD10B57C2104460FF07EF9B0
:10095000204610BD10B590F8341090F878400C4B3C
:100960008C421A7809D03AB90A4A0B491488088887
:1009700010800C8001221A7010BD002AFCD0054A9C
:1009800005491488088810800C800022F3E700BF16
:1009900024240120202401202224012070B50D46AA
:1009A000194635B9094B0A4A0A4840F2D2210FF0DC
:1009B0007BF9C0E90F52084B003A18BF01221A70A8
:1009C0000368BDE87040D3F88C301847580D010813
:1009D000900D0108DE0D01082A24012008B5094BFD
:1009E0001B888B4203D8084B1B88934205D9074BC1
:1009F000074A08489E210FF057F9074B1980074B0B
:100A00001A8008BD2024012022240120230E010881
:100A1000860E0108DE0D010826240120282401206D
:100A2000034690F87A0018B1586803681B681847A5
:100A300070470000012108B50022084605F0C5F9FD
:100A40000A4B186028B90A4B0A4A28210A480FF0B5
:100A50002BF900220421012005F05FFA074B1860F2
:100A600018B9074B034A2C21F0E708BD30010020DC
:100A7000A40F0108ED0F01081C1001082C01002033
:100A800066100108024B4FF0FF31186805F0E7B916
:100A900030010020014B186805F00DBA300100202C
:100AA000024B0021186805F0DAB900BF30010020C0
:100AB000FFF7F0BF03480449006800231A4605F019
:100AC00067BA00BF2C0100200400002013B5084CB9
:100AD00000231A4601A9206805F08BFA20684FF020
:100AE000FF33002201A905F084FA02B010BD00BF57
:100AF0002C01002003685B6C1847012070470368D5
:100B00009B6A184782B0002301930D4B1A6B42F485
:100B100000021A631A6B02F400020192019A1A6928
:100B200042F400021A611A6922F400021A61054BAC
:100B3000054A1A61054B4FF080629A6002B0704717
:100B40000038024080150020DD0D000800E100E0C3
:100B500040F2EF3070470000054B0360054B4FF04B
:100B60008062C3F88820BFF34F8FBFF36F8F704749
:100B70000012010800E100E010B504464FF45A618C
:100B8000FFF7EAFF20460FF061F8204610BD000095
:100B900008B50A2809D8DFE800F006100E08080892
:100BA000081010101000022008BD054B054A064829
:100BB00087210FF079F80020F6E70120F4E700BF65
:100BC000A8100108C31001080E11010838B50C4621
:100BD000887FFFF7DDFFA58AE28A164B21695863FB
:100BE00042EA05425A64628BD963521B1A64256833
:100BF000082D0ED19A611A615862207F0E4A42EA8E
:100C00000062DA61E2681A620C4A5961D9601A60BE
:100C100038BD0022D8611A61E1680A0A480902F465
:100C2000784200F4FC600243C1F3C4010A439A63B2
:100C3000034AECE700B00240090001000102020093
:100C40000102030008B50B280BD8DFE800F00612FC
:100C5000100A0A0A0A0808080808022008BD052028
:100C6000FCE7054B054A064866210FF01DF80020F9
:100C7000F4E70120F2E700BFA810010856110108AF
:100C80000E1101082DE9F04191F81D800C464046F7
:100C9000FFF7D8FFA77F05463846FFF7D3FF064684
:100CA0003846FFF775FFA18A628B444B521A1A64CB
:100CB0009A61228B521A1A61E28A586342EA01420F
:100CC0005A6421696268D963DA602068802828D074
:100CD000227F0FD8202867D0402865D004281AD05A
:100CE000364B45EA026545F40035B845DD6161D013
:100CF000334A44E0B0F5807F04D0B0F5007FEFD1F7
:100D0000304800E0304840EA0262DA61E2681A6284
:100D10005E62596132E045EA026242F40032DA6111
:100D2000F6E7A068021DDA62227F45EA026545F413
:100D30000035DD615E625961017841B1012921D040
:100D4000224B234A234840F211110EF0ADFFDA691D
:100D5000418822F47F42013922F0100242EA012246
:100D6000DA610121154BDA6942F02002DA61DA69B1
:100D70009206FCD410229A600029B9D0164A1A6053
:100D8000BDE8F081B2F1FF01DA69408822F47F42C8
:100D900000F1FF3022F0100242EA002242F010027D
:100DA00018BF0121DA61DDE745EA0262034B42F434
:100DB0000032B4E740F20122E1E700BF00B0024098
:100DC00001020100090002000A000200A01101084E
:100DD000BA1101080E11010801020200024B1B6842
:100DE000586803685B6918472C24012070B50446D5
:100DF00025460A4B0C30002660602672667245F864
:100E0000203B6022294608F0F7F904F55A63EE60AA
:100E100024359D42FBD1204670BD00BF0012010861
:100E20000120704738207047382303FB0100083049
:100E30007047382303FB01000830704701207047DA
:100E40004FF4077070474FF4077303FB010008303D
:100E500070474FF4077303FB01000830704701200F
:100E600070471020704700EB01100830704700EB0E
:100E7000011008307047084601F068BC10B5034BFC
:100E80000360044607F031F8204610BDB81201088F
:100E900010B50446FFF7F2FF204640210EF0D6FEC3
:100EA000204610BD10B5034B0360044607F01DF843
:100EB000204610BD8412010810B50446FFF7F2FF6A
:100EC00020464FF409710EF0C1FE204610BD00000F
:100ED00010B5034B0360044607F007F8204610BD29
:100EE0005012010810B50446FFF7F2FF2046182102
:100EF0000EF0ACFE204610BD10B5084B0360044652
:100F000000F51470FFF7BAFF04F12C00FFF7CAFFD9
:100F100004F11400FFF7DCFF204610BDEC120108BD
:100F200008B50248FFF7E8FF08BD00BFE80F002042
:100F300010B50446FFF7E0FF20464FF47E710EF037
:100F400085FE204610BD00002DE9F34100F0AEFF04
:100F5000054600F0AFFF00240146234628462246FE
:100F600000940BF0E1FF254B254A264D1A602046E0
:100F700002F076F824480BF03FFF2B68BFF35B8F3D
:100F8000DB0735D428460EF063FE88B31F4C204B98
:100F9000236004F5277604F1140004F12C0804F50D
:100FA00014776060C4F80880E760266106F09EFF51
:100FB000184B6361404606F099FF174BE3623846D1
:100FC00006F094FF154BC4F8503204F5247002F07B
:100FD000B5F8224604F52471304602F0A5F83046F3
:100FE00001F0B4FB0E480EF07DFE28460EF03CFEEC
:100FF0000C4802B0BDE8F041FFF75EBC8824012038
:10100000B0010020E40F002008000020E80F0020BD
:10101000EC1201085012010884120108B8120108EC
:10102000210F0008340100200148FFF757BC00BF22
:101030003401002070B5224E224C234D234B2360F7
:101040003046FFF7D3FE28460CF0CEFD204B21485A
:10105000DC6000224FF48071C3E912121E491A8627
:10106000C3E91A121D4999671D4983F858200B607E
:10107000F02101801B485A6601801B4883F87020CC
:101080004FF4A071C3E90422C3E90622C3E9082290
:10109000C3E90A22C3E90E22C3E91022C3E91422DC
:1010A000C3E917225A67C3E9016501800F4801802F
:1010B0000F490A70012283F834200E4A1A6070BD6D
:1010C00040020020E00F0020B4010020480D01087C
:1010D0003401002020240120010000010000010152
:1010E0002C24012026240120222401202824012050
:1010F00024240120D40E01080148FFF72DBD00BFB4
:1011000040020020034B902283F85A2383F858238F
:10111000704700BF00E100E0094A0A49D3680A4865
:10112000C3F30A03013B9BB20B801169C1F30A01AF
:10113000013901801364536B43F00103536370471B
:1011400000680140E2130020E0130020014BD3F8B7
:10115000AC00704700680140024B0122C3F8AC109C
:101160005A6270470068014070B5044607F0BBF949
:1011700023685D6E09F016FA01462046A8472368E9
:10118000054AD3F888502046AC460023BDE870409D
:10119000A2F51631604700BF00B004D007F08AB94D
:1011A00090F84B3013B1024B01221A7007F08EB940
:1011B000E413002007F048B907F0A9BA034B4FF039
:1011C00080629A604FF080729A60704700E100E0A0
:1011D000084B4FF08062C3F88820BFF34F8FBFF3F6
:1011E0006F8F4FF08072C3F88820BFF34F8FBFF32B
:1011F0006F8F704700E100E010B5144C236823B3F3
:10120000134B144A1B6C11888B4213D1124B198853
:1012100003F0B2FB226892F86A30013382F86A3038
:10122000FFF748FC206807F0A9FEBDE81040002049
:10123000FFF788BA03F0A0FB206803681B6A984791
:10124000BDE810400020FFF7A7BA10BD2C240120F4
:1012500000680140E2130020E013002007B5064BB0
:10126000ADF806001B68054801220DF1060104F0E7
:10127000D1F803B05DF804FB0C0000202C14002012
:1012800008B5012004F095FDFBE7000030B595B0EE
:10129000102200210AA80EF00EFF1422002103A83C
:1012A0000EF009FF00241D4B01941A6C42F080528D
:1012B0001A641B6C03F080530193019B184B02943A
:1012C0001A6842F440421A601B6803F440430293D8
:1012D0000122029B4FF48033CDE9082302254FF40D
:1012E0008003CDE90E5308214FF4A873CDE9101304
:1012F00008A804231393129503F05CFB0F23CDE998
:1013000003354FF4A0504FF48053CDE90603052177
:1013100003A8059403F02AFD15B030BD0038024043
:101320000070004080B59AB002F0A6FAFFF7AEFF59
:10133000142200210DA800240EF0BDFEC34B009422
:101340001A6BC348C34D42F010021A631A6B02F0C5
:1013500010020092009A01941A6B42F020021A6364
:101360001A6B02F020020192019A02941A6B42F069
:1013700080021A631A6B02F080020292029A0394AE
:101380001A6B42F004021A631A6B02F00402039211
:10139000039A04941A6B42F001021A631A6B02F06A
:1013A00001020492049A05941A6B42F002021A6335
:1013B0001A6B02F002020592059A06941A6B42F02B
:1013C00040021A631A6B02F040020692069A0794D2
:1013D0001A6B42F008021A631B6B03F008030793B1
:1013E00022463C21079B02F0CFFC9B482246042169
:1013F00002F0CAFC224699484FF4405102F0C4FC66
:1014000001264FF003083C239148CDF840800DA9F8
:1014100002274FF0040ACDE90D360F9402F0CAFB03
:101420008D480F940DA9CDE90DA6109702F0C2FBCF
:101430004FF4405389480DA9CDE90D36CDE90F474A
:1014400002F0B8FB86480F940DA9CDE90D6402F0B7
:10145000B1FB0DA90C2383480F96CDE90D3402F0A2
:10146000A9FB8148814B036002F098FA804A814BC6
:101470002C62C5E9002328464FF48043C5E90434B3
:10148000C5E90244C5E9064402F07AFE1021284667
:1014900003F0B6F82146284603F0D1F8764877499C
:1014A00084624FF48273C0E900134FF4007518236F
:1014B000C0E906530A23724DC362C0E90244C0E981
:1014C0000444C0E9084403F049FF6E4B0D974FF008
:1014D000100CC5E900364023C5E904C34FF4C073BE
:1014E000C5E906344FF40063C5E908344FF40053EE
:1014F000AB620DA907232846CDE90E3ACDE9103895
:101500004FF00809C5E9024ACDE9127703F022FE3F
:101510004FF6FF7209A92846CDE90A960894099664
:101520000C9403F037FE304602F0D2F94FF6FF720A
:1015300009A92846CDE90979CDE90B6403F02AFE13
:101540004FF6FF7209A92846CDE90989CDE90BA418
:1015500003F020FE4FF40C730893089B0C934FF696
:10156000FF7209A92846CDE909A90B9603F012FEDE
:1015700040F26A51284603F02BFE342221460DEB3F
:1015800002000EF098FD404D404B2C61C5E900343F
:101590000923C5E905361D2340F20D1EC5E90738AC
:1015A00040F24313C5E909E3284640F2471340F2ED
:1015B0001718C5E90B83C5E90244AC8685F83640A7
:1015C00003F0E2F8FF21F022CDE912144FF4806A13
:1015D00005214FF4A073CDE90E24CDE914A1CDE986
:1015E00016420DA922462846CDE91037284D1893FA
:1015F0000D94ADF864408DF8664003F090F9254BEA
:101600002B601B6898472B68234DDB689847234B5A
:101610002846C5E90034C5E90274C5E90A47C5E9A9
:101620000C4402F0CBF93146284602F07FFAFEF76F
:10163000D0FF04F04BFB1A4A3146484604F06DFCDB
:10164000184B194A1860214630E000BF00380240AC
:10165000001002402C15002000080240000C02403F
:101660000000024000180240C01500200030024077
:10167000005C0040A08601002C14002000500140B6
:10168000F8130020400100A08414002000680140ED
:10169000E8130020140000208015002000B0024054
:1016A00014130108EC13002050130108074804F03C
:1016B00039FB074B074A18602146074804F032FB04
:1016C000064B186004F014FBFEE700BF811200080F
:1016D000F41300202C130108D7050008F013002094
:1016E000704770477FB5094B8DF817201B68029330
:1016F0000DF117020123009201930A4601460448A6
:1017000002F0E6FD07B05DF804FB00BF100000200A
:101710002C1500207FB500238DF81730084B1B686F
:1017200002930A4601230DF117010091019301462E
:10173000044802F05DFE9DF8170007B05DF804FB59
:10174000100000202C1500201FB5084C24680092C2
:10175000CDE901340A4601230146054802F048FE5E
:10176000003818BF012004B010BD00BF10000020D9
:101770002C15002002F0ACB810B5064C0022204613
:10178000042102F001FB20460122BDE810400421A3
:1017900002F0FABA0008024038B50B4D04460122A7
:1017A0000A484FF4005102F0EFFA002204212846C3
:1017B00002F0EAFA2046FFF751FD28460122BDE873
:1017C0003840042102F0E0BA00080240000C024058
:1017D00038B50B4D044600220A484FF4005102F080
:1017E000D3FA00220421284602F0CEFA2046FFF761
:1017F00035FD28460122BDE83840042102F0C4BA74
:1018000000080240000C0240F7B5144E144F054684
:101810000C4630460022042102F0B6FA00224FF4B2
:101820000051384602F0B0FA2846FFF717FD0D4B7D
:101830000D481B68224601A903F08BFF38460122A0
:101840004FF40051019C02F09FFA3046012204211E
:1018500002F09AFA204603B0F0BD00BF0008024033
:10186000000C02400C0000202C14002002F030B8C4
:101870000268034B9A4201D102F018B8704700BFCA
:10188000001000407047000082B00E4B0022009212
:10189000596C41F480415964596C01F480410091C4
:1018A00000990192196C41F0805119641B6C03F08E
:1018B00080530193019B0F216FF0010002B002F0F1
:1018C0002DB800BF003802400268094B9A4282B02E
:1018D0000BD100230193074B1A6B42F480521A6319
:1018E0001B6B03F480530193019B02B0704700BF50
:1018F000003002400038024007B50F4B02689A42A0
:1019000016D10022A3F5F0430192196B41F40001B6
:1019100019631B6B03F40003019305215A20019BFB
:1019200001F0FCFF5A2003B05DF804EB02F028B888
:1019300003B05DF804FB00BF00B002402DE9F043A6
:10194000044689B01422002103A80EF0B4FB2268DB
:10195000244B9A4243D1244C244800250095236B04
:1019600043F004032363236B03F004030093009B01
:101970000195236B43F001032363236B03F0010301
:101980000193019B4FF012094FF400734FF00108CF
:101990000327042603A9CDE90339CDE90587079676
:1019A00002F008F94FF480731148079603A9CDE9B6
:1019B0000339CDE9058702F0FDF80295236C43F465
:1019C00000032364236C03F400030293029B236A45
:1019D00043F400032362236A23F40003236209B063
:1019E000BDE8F083005C004000380240000802407F
:1019F00000000240F0B599B004461422002107A867
:101A00000EF059FB30220DEB020000210EF053FBCB
:101A100022685E4B9A4240F0B78008230C93C023A3
:101A20001093042312930CA84FF40033159303F082
:101A300065FA08B1FFF726FF554B5648002400947D
:101A40005A6C42F080625A645A6C02F080620092D2
:101A5000009A01941A6B42F020021A631A6B02F08A
:101A600020020192019A02941A6B42F001021A6359
:101A70001A6B02F001020292029A03941A6B42F06E
:101A800002021A631A6B02F002020392039A049490
:101A90001A6B42F040021A631A6B02F04002049281
:101AA000049A05941A6B42F004021A631A6B02F04E
:101AB00004020592059A06941A6B42F008021A6312
:101AC0001B6B03F00803069302250E26069B0B965C
:101AD0004FF4806307A9CDE90735CDE9094502F048
:101AE00069F841F658032C480B9607A9CDE907354C
:101AF0000927CDE9094502F05DF8032327480B9734
:101B000007A9CDE90735CDE9094502F053F84FF4AF
:101B1000706322480B9607A9CDE90735CDE9094541
:101B200002F048F84FF40C631D480B9607A9CDE965
:101B30000735CDE9094502F03DF8C02319480B9659
:101B400007A9CDE90735CDE9094502F033F80823A7
:101B500015480B9607A9CDE90735CDE9094502F0EF
:101B600029F84FF4A0530E480B9707A9CDE9073584
:101B7000CDE9094502F01EF858202246052101F062
:101B8000CDFE582001F0FCFE19B0F0BD0068014008
:101B900000380240001402400000024000040240ED
:101BA0000018024000080240000C024010B5044634
:101BB00088B01422002103A80EF07DFA2268144B8D
:101BC0009A4223D103F56843002101915A6C1148D0
:101BD00042F480125A645A6C02F480120192019A03
:101BE00002911A6B42F020021A631B6B03F0200370
:101BF0000293029B4FF4607202230321CDE9032379
:101C00000523CDE9061303A901F0D4FF08B010BDE8
:101C100000500140001402402DE9F04186B000233D
:101C200003932B4B1C68002C4FD14FF00108C3F8D5
:101C30000080284B00949A6B274842EA08029A6376
:101C40009B6B03EA08030093022703260C25009BE5
:101C500001A94FF63F03CDE90137CDE9046501F055
:101C6000A9FF1E48059501A9CDE90187CDE90346E5
:101C700001F0A0FF48F233131948059501A9CDE9F9
:101C80000137CDE9034601F095FF4FF68373154800
:101C9000059501A9CDE90137CDE9034601F08AFF99
:101CA0004CF203731048059501A9CDE90137CDE940
:101CB000034601F07FFF60230C48059501A9CDE99B
:101CC0000137CDE9034601F075FF06B0BDE8F081AC
:101CD000C8150020003802400014024000080240ED
:101CE0000018024000100240000C024000040240B4
:101CF00030B5014689B00022362001F00FFE3620B3
:101D000001F03EFE0025154B02951A6C144C42F072
:101D100010021A641B6C03F01003029301A903A8BC
:101D2000029B03F0CDF803F0BBF80E4B236040F2AA
:101D3000E733E36040000C4BB0FBF3F00138606028
:101D400020462561A56003F0E9FE20B9204603F096
:101D50009FFD09B030BD0120FBE700BF0038024005
:101D6000CC1500200010004040420F007047FEE7F5
:101D7000FEE7FEE7FEE77047014803F0C7BD00BF7E
:101D8000CC150020014802F06DBD00BF8414002076
:101D9000014801F041BE00BF8015002013B50B4C77
:101DA000206804F056F9012809D841238DF807303E
:101DB0002068C82300220DF1070104F0E9F8012092
:101DC00002B0BDE8104001F0EFBF00BFEC130020EF
:101DD0000120704708B50EF011FA162303604FF08A
:101DE000FF3008BD08B50EF009FA16230360FEE7C0
:101DF00070B50D4614460E46731B9C4201DC20460E
:101E000070BDAFF3008006F8010BF5E770B50D4625
:101E100014460E46731B9C4201DC204670BD16F82A
:101E2000010BAFF30080F5E74FF0FF3070474FF440
:101E300000534B600020704701207047002070471E
:101E40000A4A116808B5034609B9094911601068C2
:101E5000694603448B4206D90EF0D0F90C23036087
:101E60004FF0FF3008BD1360FCE700BF14160020E0
:101E7000A0270120704710B5042104460DF0E6FEAE
:101E8000204610BD012908B506D0022908D059B94D
:101E900001F024F9006808BD01F020F94068FAE774
:101EA00001F01CF98068F6E70020F4E7004870476D
:101EB000881301080920704713B5002451B1036845
:101EC00001948DF8034001AA9C680DF10303A0471B
:101ED00002B010BD0846FBE7C0897047008A704712
:101EE000C088704780887047807A00F07F00704714
:101EF000807AC00970470020704700009FED010AFA
:101F0000704700BF000000000020704781807047CC
:101F1000C1807047018170474181704770477047A9
:101F200070477047704710B4C4880368121B8488D8
:101F30005B6D091B12B25DF8044B09B218474FF6EE
:101F4000FF7383814FF0FF3303621368C361106036
:101F500070477047704700F598730868496803C375
:101F60007047704770474160704710B50022B1F963
:101F70000840B1F90A10028042808480C18010BDFF
:101F800070477047064BC0F84C310023C0F8503101
:101F900000F5A273C0F84801C0F84031704700BF97
:101FA0003D22000801230372704770477047704755
:101FB0007047704701464068036810315B6E1847F0
:101FC00001464068036810311B6E18477047014690
:101FD0004068036810315B6E184770B5054640686D
:101FE0000368DB69984704463CB96868036805F1F3
:101FF00010011B6EBDE870401847A188AB89C91A53
:10200000236820461B6B09B29847A469ECE7704728
:1020100010B4C26841685410034601EB6200D20755
:1020200048BF0A599B685DF8044B48BFD35818470E
:102030000346406830B19A681AB9D86800F00100C8
:1020400070470120704710B50C2104460DF0FEFDCD
:10205000204610BD10B5102104460DF0F7FD2046B6
:1020600010BD10B54FF4AE7104460DF0EFFD2046E3
:1020700010BD10B5382104460DF0E8FD204610BD16
:1020800010B5282104460DF0E1FD204610BD10B525
:10209000382104460DF0DAFD204610BD10B508F0D9
:1020A00081FA0368BDE81040DB6B184737B5054679
:1020B000807A6B7A0130C0B29842A87205D90123A8
:1020C0002B720023AB7203B030BDB5F90C20B5F90B
:1020D0000E40002109F05EFFC30706D500284FF629
:1020E000FF73C8BF0123184400B2AB7AE881041B18
:1020F000012BA4B206D1174B1B781BB108F052FA82
:1021000008F056FA144A00231288ADF80230EB8921
:102110001A445B42ADF80430104BADF800201B8828
:10212000ADF8063008F03EFA036802AA12E906008C
:102130001B6C984768680368DB6998470546002D63
:10214000C1D0A9882B68214428461B6B09B2984747
:10215000AD69F4E72A240120202401202224012053
:1021600090F8252012B103685B691847704700009A
:1021700037B50446807A637A0130C0B29842A072C3
:1021800005D9012323720023A37203B030BDB4F933
:102190000C20002109F0FEFEC30706D500284FF6EB
:1021A000FF73C8BF0123184400B2144BE0811988A3
:1021B000258B83B21248B0F90000ADF80600CA1AA8
:1021C00060682B445B1A12B2ADF8043003682283B6
:1021D000ADF8002000221B69ADF80220694698473F
:1021E000A37A012BD1D1074B1B78002BCDD008F05F
:1021F000D9F903B0BDE8304008F0DAB92024012055
:10220000222401202A24012090F825201AB190F8D8
:10221000242002B11860704710B50446D0F8400180
:1022200058B10368DB68984738B1D4F840010368B7
:102230009B6898470023C4F8403110BD2DE9F14F49
:10224000D0E9556A0746B06803681B6A9847B32807
:1022500005D8444B444AA32144480DF025FD70683D
:1022600003681B6A98470F2803D8414B3E4AA421B4
:10227000F2E7F06803681B6A98470B2803D83D4BC8
:10228000394AA521E8E708F08DF9DFF8F09004302D
:1022900008F0D5F9D9F8000010B10368DB68984759
:1022A000D9F8000010B103681B689847DFF8D080A8
:1022B000D8F8000010B103685B699847D7F83C0173
:1022C00010B103685B689847D8F8000010B1036844
:1022D0001B689847D7F83C0110B103689B68984782
:1022E000F068036800215B6A98474FF0000B224BAF
:1022F000C0F804B0044680F808B00360B068036812
:1023000059465B6A9847054600F05CFF70680368B1
:1023100059465B6A98472946064600F02DFF331D53
:10232000C7F83C61CAF808302B68C6F808A02846F0
:10233000DB68C9F80040C8F80050EE63984733687E
:1023400030461B6898472146284609F01DFE236841
:1023500020461B69984723685B69204601B0BDE8A9
:10236000F04F18473C140108CA1401089C150108D5
:10237000E315010886160108D01901086C24012014
:10238000682401202DE9F0411D460368BDF918704D
:102390001B6B0446164698472368314620465B6B04
:1023A00098472368294620469B6B984723683946FF
:1023B0002046DB6BBDE8F041184700002DE9F74FE0
:1023C000D0E955BA0746DBF8080003681B6A98474E
:1023D000B32805D8544B554AA32155480DF064FC49
:1023E000DBF8040003681B6A98470F2803D8514B99
:1023F0004E4AA421F1E7DBF80C0003681B6A9847FA
:10240000372803D84C4B494AA521E6E708F0CAF81B
:10241000DFF83891043008F012F9D9F8000010B153
:102420000368DB689847D9F8000010B103681B689F
:102430009847DFF81C81D8F8000010B103685B6989
:102440009847D7F83C0110B103685B689847D8F803
:10245000000010B103681B689847D7F83C0110B121
:1024600003689B689847DBF80C00036800215B6AEF
:102470009847324B03604FF4A05303814FF48073AD
:1024800043632F4B03612F4A2F4BB2F90020B3F95E
:10249000003083810025044645608572C581C0E90E
:1024A0000555C0E90755C0E90955C0E90B5529464E
:1024B000009210302A46FFF765FFDBF8080003683A
:1024C00029465B6A9847064600F07CFEDBF804006C
:1024D000036829465B6A98473146054600F04CFE82
:1024E0002B1DC7F83C51CAF808303368C5F808A05E
:1024F0003046DB68C9F80040C8F80060F5639847CB
:102500002B6828461B6898472146304609F03CFD59
:10251000236820461B69984723685B69204603B0FF
:10252000BDE8F04F184700BF3C1401082917010807
:102530009C150108E315010886160108181A010800
:10254000FC18010822240120202401206C240120F1
:10255000682401202DE9F74FD0E955BA0746DBF88A
:10256000080003681B6A9847B0F5077F05D2554BF2
:10257000554AA32155480DF097FBDBF8040003688A
:102580001B6A98470F2803D8514B4F4AA421F1E703
:10259000DBF80C0003681B6A9847372803D84D4BBB
:1025A000494AA521E6E707F0FDFFDFF83C9104303A
:1025B00008F045F8D9F8000010B10368DB689847C7
:1025C000D9F8000010B103681B689847DFF81C8138
:1025D000D8F8000010B103685B699847D7F83C0150
:1025E00010B103685B689847D8F8000010B1036821
:1025F0001B689847D7F83C0110B103689B6898475F
:10260000DBF80C00036800215B6A9847324B0360DB
:102610004FF4A05303814FF4807343632F4B036146
:102620002F4B1B885A4282812E4A0025B2F9002086
:10263000456004468572C581C0E90555C0E9075566
:10264000C0E90955C0E90B55294600921BB22A463C
:102650001030FFF797FEDBF80800036829465B6A35
:102660009847064600F0F8FDDBF8040003682946A9
:102670005B6A98473146054600F0C2FD2B1DC7F83E
:102680003C51CAF808303368C5F808A03046DB680A
:10269000C9F80040C8F80060F56398472B682846E1
:1026A0001B6898472146304609F06EFC2368204697
:1026B0001B69984723685B69204603B0BDE8F04F6B
:1026C000184700BF3C1401080D1801089C150108AB
:1026D000E315010886160108F4190108FC18010821
:1026E00020240120222401206C24012068240120C0
:1026F00070B504460D46164608F03EF80F4A002312
:10270000C4E955650E4D1460C4E953330D4A226087
:1027100028680D4AC4E94F33C4E9512303680121F5
:102720009B6898472B6893F858200AB1D86C00B979
:1027300098680CF03FFD204670BD00BF7824012052
:102740002C2401207C19010864190108064BC0F8EB
:102750004C310023C0F8503100F5A273C0F8480195
:10276000C0F84031704700BF3D220008064BC0F85A
:102770004C310023C0F8503100F5A273C0F8480175
:10278000C0F84031704700BFBD230008064BC0F8B9
:102790004C310023C0F8503100F5A273C0F8480155
:1027A000C0F84031704700BF55250008406A7047A7
:1027B000806A704770478B88C0690A68DB0A50F8E6
:1027C00023001044704710B50446BAB1107B68B1BD
:1027D000537BD27A1B0203F4E0631A43236A03EBB0
:1027E00082031A888A4202D193F9020010BD05D8EB
:1027F000013880B204330028F3D1F7E70020F5E771
:1028000010B52C2104460DF021FA204610BD000021
:1028100030B58BB00446BDF860500895BDF85C50EB
:1028200007959DF8505006959DF84C5005959DF8DC
:10283000485004959DF8445003959DF840500295EA
:102840009DF83C500195BDF83850009508F0F6FF12
:10285000064B2360159BE361169B2362199B636201
:102860001A9BA36220460BB030BD00BF3C1A010882
:1028700070477047704770477047704770477047A0
:1028800030B4C26844685510034604EB6200D207B6
:1028900048BF62599B6830BC48BFD35818470346AD
:1028A000406830B19A681AB9D86800F001007047E2
:1028B0000120704710B5102104460DF0C7F92046DD
:1028C00010BD10B5B02104460DF0C0F9204610BD72
:1028D0006C30884208B505D107F064FEBDE80840B9
:1028E000FFF754BF08BD70B5036804461B6B15465F
:1028F00098472368294620465B6BBDE8704018471F
:10290000F7B50446254609F093F90022334BE263FC
:1029100045F8403B324B2266C4E910324FF48073D5
:10292000A4F86430FF2384F8663040F20113A4F861
:1029300090302C4BE3664FF6FF73A4F89A30A4F85E
:102940009C3084F89E30284BA266C4E92834274B7B
:10295000C4F8942011462846C4E91222C4E914227E
:10296000C4E91622C4E91C22C4E91E22C4E92022BB
:10297000C4E9222284F89820C4E92A32FFF7B3FF81
:102980002846F021FFF7C6FA28464FF4A071FFF75A
:10299000C3FA271D4FF07F4304F16C06A366294656
:1029A000384605F0B5FA3046C7221421FFF79BFFE1
:1029B000032301AA69463046ADF80030ADF8043073
:1029C00006F06CFC04F1A0033846C4F8943031469C
:1029D00005F09EFA204603B0F0BD00BFBC1A010806
:1029E000F01F010858200108A41A0108D128000886
:1029F000806A70477047704770477047704730B4BF
:102A0000C26844685510034604EB6200D20748BF11
:102A100062599B6830BC48BFD3581847034640688A
:102A200030B19A681AB9D86800F0010070470120E7
:102A3000704790F82D3080F860307047014638308C
:102A400091F82C3013B1363106F0F5BC3431FBE788
:102A500010B5642104460DF0F9F8204610BD10B5FC
:102A6000102104460DF0F2F8204610BD10B54FF4C9
:102A7000057104460DF0EAF8204610BD10B5044675
:102A8000006B50B10368DB68984730B1206B036876
:102A900021469B68BDE81040184710BD0B7970B502
:102AA00090F82C6004460D460BB916B170BD002E8F
:102AB000FCD0B3FA83F35B0984F82C3023682046FA
:102AC000D3F88C309847236820465B699847002EDE
:102AD000ECD02B79012BE9D123682046D3F888303C
:102AE000BDE87040184700F5BA738B4210B5044634
:102AF00009D107F057FDFFF739FE23682046DB6A4E
:102B0000BDE81040184710BD074A02600022C0E926
:102B10000122C0E90322C0E90522C0E907224FF4DF
:102B200080728284704700BF8C2101080B882DE9D8
:102B3000F04183861388B0F90850C38604461046D6
:102B400090460AF005FAB4F90A30074603EBD3734E
:102B50004046C3F34F060AF02FFA05EBD575C5F3CF
:102B60004F0500EBD07007EBD777A6EB6002A5EB23
:102B7000670104F1380012B209B2FFF7B4FE23680E
:102B80002046D3F88C30BDE8F041184738B52622EE
:102B900004460D4600210DF08EFA2046FFF7B4FFE3
:102BA000064B23602B88E384FF23204684F82830DB
:102BB000294606F040FC204638BD00BFCC20010865
:102BC0002DE9F04F044689B02746002509F030F87A
:102BD000924BE56347F8403B2622294638460DF0E4
:102BE0006AFA3846FFF790FF8D4B236404F16C0BB3
:102BF000FF234FF6FF7604F1980A84F8663007A9A0
:102C0000A5665846ADF81C60FFF7C0FF07A95046FF
:102C1000ADF81C60FFF7BAFF04F1C40307A918461A
:102C20000293ADF81C60FFF7B1FF04F1F00307A9B0
:102C300018460393ADF81C60FFF7A8FF04F58E73E8
:102C400007A918460493ADF81C60FFF79FFF04F531
:102C5000A47304F5BA7807A918460593ADF81C606B
:102C6000FFF794FF4046FFF74FFF4FF47F43A4F870
:102C7000A0314FF0010384F898316A4BC4F87431E5
:102C800004F5D6794FF0FF33C4F8A83107A9C4F88A
:102C90009C51C4F8A4514846ADF81C30FFF776FFAC
:102CA0004946404604F5EC7905F032F907A9484653
:102CB000ADF81C60FFF76AFF5B4BC4E981345B4BE6
:102CC000C4E983354FF4A0732A4600932946384659
:102CD000F023261DFFF756FB4FF07F43A3663946CE
:102CE000304605F015F92A4629465846FFF7FBFD00
:102CF000082307A95846ADF81C3006F09CFB59463E
:102D0000304684F8915005F003F92A46294650468A
:102D1000FFF7E9FD072307A95046ADF81C3006F080
:102D20008AFB5146304684F8BD5005F0F1F82A463A
:102D300002982946FFF7D7FD06230298ADF81C300C
:102D400007A906F078FB029984F8E950304605F0AF
:102D5000DFF82A4603982946FFF7C5FD05230398A7
:102D6000ADF81C3007A906F066FB039984F81551ED
:102D7000304605F0CDF82A4604982946FFF7B3FD02
:102D800004230498ADF81C3007A906F054FB0499FD
:102D900084F84151304605F0BBF8A02205985F2128
:102DA000FFF7A1FD02230598ADF81C3007A906F036
:102DB00042FB0599304605F0ABF807AA06A9404644
:102DC000ADF81850ADF81C50FFF7B0FE04F50173D4
:102DD000C4F8A4312023C4F8B0514FF48D7200938D
:102DE0004046CC21FFF7CEFA4146304605F090F838
:102DF000142248463F21FFF776FD4FF0010307A953
:102E00004846ADF81C3006F016FB3046494605F042
:102E10007FF8204609B0BDE8F08F00BFA81B01086D
:102E2000F01F0108F01A0108901B0108E72A0008AA
:102E30007047000030B5164D2C68BFF35B8F14F05F
:102E400001048FB020D128460CF002FFE0B13F23EF
:102E50000993104B0893104B104911480A94012212
:102E6000CDE906430423CDE903320A230093CDE9DB
:102E70000B44CDE901440594FFF7CAFC09480CF066
:102E800031FF28460CF0F0FE05480FB030BD00BF02
:102E90001816002054250108602501082425010882
:102EA0001C160020312E00087047000030B5164D6A
:102EB0002C68BFF35B8F14F001048FB020D128463B
:102EC0000CF0C6FEE0B13F230993104B0893104B62
:102ED000104911480A940122CDE906430423CDE9A3
:102EE000033214230093CDE90B44CDE9014405944A
:102EF000FFF78EFC09480CF0F5FE28460CF0B4FEF6
:102F000005480FB030BD00BF481600205825010805
:102F100064250108342501084C160020A92E00085C
:102F20007047000030B5164D2C68BFF35B8F14F06E
:102F300001048FB020D128460CF08AFEE0B13F2377
:102F40000993104B0893104B104911480A94012221
:102F5000CDE906430423CDE9033228230093CDE9CC
:102F60000B44CDE901440594FFF752FC09480CF0ED
:102F7000B9FE28460CF078FE05480FB030BD00BF02
:102F8000781600205C250108682501084425010801
:102F90007C160020212F0008002070470020704779
:102FA0000EB403B503AB002153F8042B019308F0D2
:102FB0006DFA02B05DF804EB03B070470CB407B5CE
:102FC00004AB53F8042B019308F060FA03B05DF8EA
:102FD00004EB02B070470000436C10B5044673B3B5
:102FE000038F2BB9184B194AC52119480CF05CFE08
:102FF000C38E00EB43035B8C0BB309F0C2FC238F41
:10300000012B03D8134B144ACB21EEE7E28E531C5D
:103010009BB2092B194688BFA3F10A0104EB4101B9
:1030200040F63F10498C814209D10A2B04EB420241
:1030300028BF002304EB4303508C5884518420465E
:10304000BDE8104009F0A0BBD81B0108E11B010836
:103050008C1C0108D61C0108E41C010809F05BBBAC
:1030600038B518BB124B13481C681349B4B1226819
:1030700022440260626822440A60A26814440F4B32
:1030800000221A8000F02AF8054600F025F80C4BC3
:103090001C600C4B1D600C4B188007E00B4B036051
:1030A0000B4B0B600B4B1C68002CE8D138BD00BFEC
:1030B000B4160020AC160020A8160020B016002080
:1030C0007C24012084240120802401207025010813
:1030D0006C250108742501080020704700487047DE
:1030E000B816002010B5FFF7E1FE044C2060FFF792
:1030F00019FF6060FFF79EFEA06010BDB8160020AB
:10310000704710B54FF4AE7104460CF09FFD204699
:1031100010BD10B50446D0F8580100F015F820464F
:10312000BDE8104007F0E8BA10B50446FFF7E0FA32
:10313000014B2360204610BDC01D010800225F2105
:1031400002608180826070470368013303607047CA
:1031500081807047B0F904007047704704387047A9
:10316000704710B5102104460CF070FD204610BDCC
:10317000A0F10400F5E7000000228260024A02602C
:1031800018324260C1607047141E01087047D0F8C1
:10319000B0300133C0F8B0307047000010B5034BB9
:1031A00003600446FFF769FB204610BD3C1E010882
:1031B00010B50446FFF7F2FF2046B4210CF046FD9F
:1031C000204610BD10B50446FFF79AFB034B236061
:1031D0000023C4F8B030204610BD00BF3C1E0108DB
:1031E000FFF74CBB704704387047704710B510218B
:1031F00004460CF02BFD204610BDA0F10400F5E7BD
:1032000000228260024A026018324260C160704748
:10321000701E01088068FFF79BBF8068FFF79ABFA8
:10322000B0F91412C06BFFF7F5BF000010B5034BE7
:1032300003600446FFF7DFFB204610BD981E01081F
:1032400010B50446FFF7F2FF20464FF407710CF06B
:10325000FDFC204610BD000010B50446FFF7B0FC91
:10326000034B23600023C4F81832204610BD00BF72
:10327000981E010810B50446C06BFFF7CEFFA4F8F6
:1032800014022046FFF7B8FBB4F81432A4F84C310E
:103290000E23C4F8DC3110BDD0F8183205220133FA
:1032A000B3FBF2F202EB82029A1A013A30B4002127
:1032B000C0F818320124032A03D8DFE802F01B20EB
:1032C000252A80F8414180F891105A004FF4A071EE
:1032D000B2FBF1F301FB132203F00303C3EB03136F
:1032E0009B000F33A0F8DE21A0F8DC3130BC0430A5
:1032F00008F0F6B980F8154180F84111E5E780F84B
:10330000E94080F81511E0E780F8BD4080F8E91049
:10331000DBE780F8914080F8BD10D6E7F0207047D9
:103320004FF4A07070472920FEF752BA2820FEF70C
:103330004FBA08B5FEF720FACA20FEF749FAC320B3
:10334000FEF72AFA0820FEF727FA5020FEF724FAA3
:10335000CF20FEF73DFA0020FEF71EFAC120FEF74F
:103360001BFA3020FEF718FAED20FEF731FA642040
:10337000FEF712FA0320FEF70FFA1220FEF70CFAFE
:103380008120FEF709FAE820FEF722FA8520FEF7F1
:1033900003FA0020FEF700FA7820FEF7FDF9CB20B3
:1033A000FEF716FA3920FEF7F7F92C20FEF7F4F9AC
:1033B0000020FEF7F1F93420FEF7EEF90220FEF7C7
:1033C000EBF9F720FEF704FA2020FEF7E5F9EA20F2
:1033D000FEF7FEF90020FEF7DFF90020FEF7DCF92A
:1033E000B120FEF7F5F90020FEF7D6F91B20FEF715
:1033F000D3F9B620FEF7ECF90A20FEF7CDF9A220AA
:10340000FEF7CAF9C020FEF7E3F91020FEF7C4F971
:10341000C120FEF7DDF91020FEF7BEF9C520FEF74A
:10342000D7F94520FEF7B8F91520FEF7B5F9C72002
:10343000FEF7CEF99020FEF7AFF93620FEF7C8F977
:10344000C820FEF7A9F9F220FEF7C2F90020FEF726
:10345000A3F9B020FEF7BCF9C220FEF79DF9B62013
:10346000FEF7B6F90A20FEF797F9A720FEF794F9C0
:103470002720FEF791F90420FEF78EF92A20FEF7A7
:10348000A7F90020FEF788F90020FEF785F9002053
:10349000FEF782F9EF20FEF77FF92B20FEF798F96F
:1034A0000020FEF779F90020FEF776F90120FEF7FB
:1034B00073F93F20FEF770F9F620FEF789F9012035
:1034C000FEF76AF90020FEF767F90620FEF764F9B7
:1034D0002C20FEF77DF9C820FEF7C8F92620FEF75C
:1034E00077F90120FEF758F9E020FEF771F90F2077
:1034F000FEF752F92920FEF74FF92420FEF74CF988
:103500000C20FEF749F90E20FEF746F90920FEF7D8
:1035100043F94E20FEF740F97820FEF73DF93C20B4
:10352000FEF73AF90920FEF737F91320FEF734F9D0
:103530000520FEF731F91720FEF72EF91120FEF7CE
:103540002BF90020FEF728F9E120FEF741F90020D1
:10355000FEF722F91620FEF71FF91B20FEF71CF9D3
:103560000420FEF719F91120FEF716F90720FEF7DF
:1035700013F93120FEF710F93320FEF70DF9422040
:10358000FEF70AF90520FEF707F90C20FEF704F90B
:103590000A20FEF701F92820FEF7FEF82F20FEF79B
:1035A000FBF80F20FEF7F8F81120FEF711F9C820FC
:1035B000FEF75CF92920FEF70BF9BDE808402C2046
:1035C000FEF706B908B5FEF7D7F80321D320FEF7BA
:1035D0001BF980B208BD10B5C4B2022203212046F7
:1035E000FEF780F80A20FEF7C5F8204600220321E6
:1035F000FEF778F8BDE810400220FEF7BBB838B5FA
:103600000446E4B2FEF76CF800212046FEF782F88B
:10361000012105462046FEF77DF840EA052080B2EC
:1036200038BD10B5C4B240212046FEF773F803063A
:1036300007D54C212046FEF76DF8003818BF012051
:1036400010BD01224B212046FEF74CF820460022F7
:103650004B21FEF747F80020F2E773B50423C4B20C
:103660000E461546D7210DEB03022046FEF76CF8F7
:10367000019B1BBA1A0DC3F30B23328020462B800B
:1036800001224B21FEF72EF800224B212046FEF7A7
:1036900029F802B070BD000010B50A4A13789842AC
:1036A00004460DD0517888420AD00BB141B90123AC
:1036B000D454FEF715F82046BDE81040FFF78BBF45
:1036C00010BD00BFC416002010B5C4B209212046A9
:1036D000FEF720F840F00102D2B220460921BDE8F1
:1036E0001040FDF7FFBF10B5C4B209212046FEF718
:1036F00011F8092100F0FE022046BDE81040FDF758
:10370000F1BF38B5C4B20D4620460A21FEF702F8D3
:1037100040EA0502D2B220460A21BDE83840FDF752
:10372000E1BF10B50446FDF7DCFF20461F21FFF77F
:10373000E8FF2046BDE81040FFF7C6BF38B5C4B269
:103740000D4620460A21FDF7E5FF20EA0502D2B228
:1037500020460A21BDE83840FDF7C4BF10B5044635
:10376000FFF7C1FF20461F21BDE81040FFF7E6BF6D
:1037700010B5C0B20C460B21FDF7CCFF204010BDA8
:103780001F21FFF7F5BF0A46C0B20B21FDF7AABF04
:103790001F21FFF7F8BF38B5C4B20D4620461721E8
:1037A000FDF7B8FF20EA0502D2B220461721BDE896
:1037B0003840FDF797BF70B5C4B2064604212046D5
:1037C000FDF7A8FF042100F0FB0205462046FDF7A7
:1037D00089FF3046F021FFF7DEFF05F0F8022046B2
:1037E0000421FDF77FFF492220212046FDF77AFFC3
:1037F0000220FDF7BFFF204601222121FDF772FFC5
:1038000020469A224121FDF76DFF204601224A21E0
:10381000FDF768FF204601224B21FDF763FF20469C
:1038200000224B21FDF75EFF204601225621FDF7C5
:1038300059FF204601225821FDF754FF204601225E
:103840004021FDF74FFF2046FF220B21FDF74AFFE5
:10385000BDE870400220FDF78DBF0000054BD3F896
:10386000882042F47002C3F888204FF000629A600A
:10387000704700BF00ED00E008B50B4B1A6842F43A
:1038800000721A601A6842F480621A601A6842F480
:1038900080721A60032000F02FF80020FEF728FA4B
:1038A000FDF7F2FF002008BD003C0240034A044B34
:1038B00011681B780B441360704700BFC8160020C6
:1038C00078000020014B1868704700BFC816002020
:1038D00038B50446FFF7F6FF631C1CBF054B1B7889
:1038E000054618BFE418FFF7EDFF431BA342FAD3C8
:1038F00038BD00BF780000200749CA6822F4E062A2
:103900000302120403F4E063120C134343F0BF6399
:1039100043F40033CB60704700ED00E0164B30B548
:10392000DC68C4F30224C4F10703251D042B28BF5F
:103930000423062D4FF0FF358CBF033C002405FA0D
:1039400003F321EA0303A54022EA0502A34000286D
:1039500043EA0203ACBF00F16040084A4FEA031398
:10396000B8BF00F00F00DBB2AABF00F561401354EE
:1039700080F8003330BD00BF00ED00E014ED00E042
:10398000002807DB4109044A00F01F00012383409F
:1039900042F82130704700BF00E100E010B5044656
:1039A00050B1437903F0FF0213B90271FDF78CFFA8
:1039B00001236371002010BD0120FCE710B504460F
:1039C00030B390F8393003F0FF021BB980F838208B
:1039D000FDF792FF22686168022384F8393013688A
:1039E00023F440330B431360536BA16823F00703A8
:1039F0000B435363136CE16823F47F5323F03F03BD
:103A00000B43136400200123E06384F8393010BDB8
:103A10000120FCE770477047036870B55E681D6859
:103A2000F207044614D5E90512D51A6822F480720B
:103A30001A60C26B42F00102C26301229A60042341
:103A400080F83930002380F83830436903B1984753
:103A5000B20616D5AB0414D523681A6822F40052B6
:103A60001A6020229A60E36B43F00203E3630423AD
:103A700084F83930002384F8383063690BB120466C
:103A80009847300716D5290514D523681A6822F4FB
:103A900000621A6008229A60E36B43F00403E36358
:103AA000042384F83930002384F8383063690BB17B
:103AB0002046984772070BD56B0509D523681A680D
:103AC00022F480621A6004229A602046FFF7A2FF67
:103AD000B00714D5A90512D523681A6822F400721C
:103AE0001A6002229A60E36BE363012384F83930A1
:103AF000002384F8383023690BB120469847F2063A
:103B000013D5EB0411D523681A6822F480521A6089
:103B100010229A60E36BE363012384F839300023B9
:103B200084F838302046FFF776FF70BDF0B590F886
:103B30003820012A03464FF002002BD0012283F8DF
:103B4000382083F8390003EB0112D2E90740556AA7
:103B5000174F44EA0040093C012C9CBF05F07F420E
:103B600010434FEA01161A6888BF40EA056091B910
:103B7000516A394001435162012C9969916103D81E
:103B8000596A21F07F4191620122002083F8392097
:103B900083F83800F0BDD16939400143D1619919EA
:103BA000012C896911619CBF25F07F451562EBE707
:103BB000F0FFFC002DE9F74FDFF8BC916C4A0023C1
:103BC0000D6801249C4004EA0506AC4340F0B78030
:103BD0004D68032705F003044FEA430807FA08FC81
:103BE000671E012F6FEA0C0C34D8876807EA0C0EA9
:103BF000CF6807FA08F747EA0E078760476827EAA1
:103C0000060EC5F300179F4047EA0E074760C768D6
:103C100007EA0C0E8F6807FA08F747EA0E07022C2E
:103C2000C76019D14FEAD30A00EB8A0A03F0070BE9
:103C3000DAF820704FEA8B0B4FF00F0E0EFA0BFEE6
:103C400027EA0E0E0F6907FA0BF747EA0E07CAF8C4
:103C5000207001E0032CDAD1076804FA08F407EABF
:103C60000C073C4315F4403F046068D000240194E5
:103C7000D9F8444044F48044C9F84440D9F8444059
:103C800023F0030707F1804704F4804407F59C37CD
:103C9000019403F0030C019CD7F808E04FEA8C0C68
:103CA0000F2404FA0CF42EEA040E324CA0424DD03C
:103CB00004F58064A0424BD004F58064A04249D052
:103CC00004F58064A04247D004F58064A04245D04A
:103CD00004F58064A04243D004F58064A04241D042
:103CE00004F58064A0423FD004F58064A0423DD03A
:103CF00004F58064A04214BF0A24092404FA0CF4D9
:103D000044EA0E04BC609468F74315F4801F0CBFAE
:103D10003C4034439460D46815F4001F0CBF3C4011
:103D20003443D460546815F4003F0CBF3C40344326
:103D300054601468ED0354BF3C40344314600133B5
:103D4000102B7FF43DAF03B0BDE8F08F0024D5E722
:103D50000124D3E70224D1E70324CFE70424CDE7ED
:103D60000524CBE70624C9E70724C7E70824C5E7ED
:103D7000003C014000000240003802400369194243
:103D800014BF0120002070470AB181617047090407
:103D9000FBE7436901EA030221EA030141EA024128
:103DA0008161704770470000044A5169014208B5BB
:103DB00002D05061FFF7F6FF08BD00BF003C014094
:103DC00001684B6913F480634FF0000210D06FF468
:103DD00080634B612023026380F83D3080F83E20F1
:103DE000036C80F83C2043F0040303640120704717
:103DF000184670472DE9F84606460F4691461D467F
:103E00004FEA114A3368BAF1010F0CBF5C699C6933
:103E100027EA0404A4B2B4FA84F46409A14501D0E9
:103E2000002017E06A1CEED0FFF74CFD089BC01A7B
:103E3000A84201D8002DE5D100232022336386F863
:103E40003D2086F83E30326C86F83C3042F020024D
:103E500032640120BDE8F8862DE9F04104460F46A2
:103E6000164698462568686927EA000080B2C0B106
:103E70006B695A0517D52B6843F400732B606FF4F8
:103E800080636B6120220023236384F83D2084F843
:103E90003E30236C43F004032364002384F83C3059
:103EA0000120BDE8F081731CDDD0FFF70BFDA0EB16
:103EB0000800B04201D8002ED4D100232022236371
:103EC00084F83D2084F83E30236C1343E4E770B55A
:103ED00004460D46164623685B691B0601D5002083
:103EE0001AE02046FFF76CFFA8B96A1CF3D0FFF771
:103EF000E9FC801BA84201D8002DECD10023202230
:103F0000236384F83D2084F83E30226C84F83C30F2
:103F100042F020022264012070BD00002DE9F04330
:103F20001546026885B0DDE90C789946136843F4BC
:103F3000807313600E463B46CDF8008000224FF0A0
:103F400001110446FFF756FF236838B11B68DB05F3
:103F500002D54FF400732364032620E006F0FE062A
:103F60001E611A4943463A462046FFF775FFA8B935
:103F7000236803905A6903929B690393424639462A
:103F80002046039BFFF7A3FF064660B1236C042B7A
:103F900001BF2268136843F40073136001263046A2
:103FA00005B0BDE8F083B9F1010F236802D1EDB28D
:103FB0001D61F4E72A0A1A61394642462046FFF796
:103FC00086FF0028E2D12368F1E700BF020001006C
:103FD0002DE9FF479A46036815461A6842F4806245
:103FE0001A601A68DDE90C7842F480721A600E4695
:103FF0003B46CDF8008000224FF001110446FFF748
:10400000F9FE236838B11B68DB0544BF4FF4007329
:104010002364032021E05FFA86F906F0FE061E61A4
:104020002B4943463A462046FFF716FFA0B92368BE
:1040300003905A6903929B6903934246394620468E
:10404000039BFFF744FF58B1236C042B01BF226888
:10405000136843F400731360012004B0BDE8F087D7
:10406000BAF1010F23681AD1EDB242461D613946FB
:104070002046FFF72CFF02460028E5D121680B6897
:1040800043F480730B602046CDF800803B464FF030
:104090000111FFF7AFFE226860B11368B4E72A0A86
:1040A0001A61394642462046FFF711FF0028CBD15E
:1040B0002368D9E749F001031361054943463A46AD
:1040C0002046FFF7C9FE003818BF0120C5E700BF32
:1040D0000200010070B504460D46164623685B6970
:1040E0005B0701D500201AE02046FFF769FEA8B95A
:1040F0006A1CF3D0FFF7E6FB801BA84201D8002D15
:10410000ECD100232022236384F83D2084F83E3044
:10411000226C84F83C3042F020022264012070BD01
:1041200070B504460D46164621684B6913F04003EE
:1041300001D0002011E04A69D2060FD56FF01002BD
:104140004A612022236384F83D2084F83E30236CAA
:104150002364002384F83C30012070BDFFF7B2FBDC
:10416000801BA84201D8002DDED10023202223632A
:1041700084F83D2084F83E30236C1343E8E70000C8
:1041800070B5044608B9012070BD90F83D3003F0C9
:10419000FF021BB980F83C20FDF7D0FB242384F8F4
:1041A0003D3023681A6822F001021A601A6842F44E
:1041B00000421A601A6822F400421A6000F070FE91
:1041C0003F4B65689D4294BF3E4B3F4B98428CBF2E
:1041D00000230123002BD6D12268394E51683B4B76
:1041E000B0FBF3F321F03F011943B542516088BFA2
:1041F0004FF49676116A88BF734321F03F0184BF64
:104200004FF47A76B3FBF6F301330B431362D169B3
:10421000431E2B4821F44F41854221F0FF0132D843
:104220006D0040F6FC70B3FBF5F30133034242D05E
:10423000C3F30B031943D161D4E907301168034379
:1042400021F0C0010B4313609168D4E9030321F40A
:104250000341034321F0FF010B439360D4E9053090
:10426000D168034321F0FF010B43D360136843F08F
:104270000103136000202023206484F83D30206374
:1042800084F83E0080E7A06850B905EB4505B3FB14
:10429000F5F30133C3F30B037BB143F40043C9E7E8
:1042A00019206843B3FBF0F30133C3F30B0323B1CD
:1042B00043F44043BEE70423BCE70123BAE700BF51
:1042C000A08601007F841E00FF083D0040420F00D1
:1042D0002DE9F743044699460C9E0F469046FFF79A
:1042E000F1FA94F83D30202B054603D0022003B0AC
:1042F000BDE8F08300903C49192301222046FFF7D6
:1043000079FD0028F2D194F83C30012BEED02068E2
:10431000012384F83C300368D9075EBF036843F08B
:1043200001030360036823F400630360212384F81E
:104330003D30402384F83E30002323640A9B6362AF
:10434000BDF82C306385638D2385284BE36242469C
:10435000CDE900654B4639462046FFF7DFFD0028D2
:104360002AD00120C3E7FFF7B2FD40B1236C042B34
:1043700001BF2268136843F400731360F1E7636AB6
:1043800027681A4612F8011B39616262628D218D1D
:10439000013A92B262857A69481E80B2520720853E
:1043A0000AD548B15A783A6102336362638D013BA2
:1043B00002399BB221856385238D2A4631462046EA
:1043C000002BD0D1FFF786FE0028CFD122681368DA
:1043D00043F400731360202384F83D3084F83C00DC
:1043E00084F83E0083E700BF020010000000FFFFDA
:1043F0002DE9F043044687B09946109F0D4690463C
:10440000FFF760FA94F83D30202B064604D00225D1
:10441000284607B0BDE8F0830090764919230122B1
:104420002046FFF7E7FC0028F1D194F83C30012B3F
:10443000EDD02068012384F83C300368DB075EBFC1
:10444000036843F001030360036823F4006303601F
:10445000222384F83D30402384F83E300023236437
:104460000E9B6362BDF83C306385638D2385624B90
:10447000E3622946CDE900764B4642462046FFF7E7
:10448000A7FD054608B10125C2E7228D2368B2B910
:1044900002905A6902929A690292029A1A6842F448
:1044A00000721A60DFF85481238D002B2CD120225A
:1044B00084F83D2084F83C3084F83E30A8E7012A97
:1044C0000AD11A6822F480621A6003905A69039232
:1044D0009A690392039AE1E7022A0ED11A6822F43C
:1044E00080621A601A6842F400621A6004905A6985
:1044F00004929B690493049BD4E705905A69059242
:104500009B690593059BCDE7032B56D8012B15D14D
:10451000324639462046FFF703FE0028B3D1236810
:104520001A69636A1A70636A01336362238D013BFF
:104530002385638D013B9BB26385B5E7022B009613
:104540003B464FF000024146204619D1FFF752FC8E
:10455000002898D123681A6842F400721A601A6918
:10456000636A1A70626A531C6362238D013B238560
:10457000638D013B9BB2638523681B695370D2E74F
:10458000FFF738FC024600287FF47DAF23681968E6
:1045900021F4806119601969636A1970636A0133D3
:1045A0006362238D013B2385638D013B9BB2638551
:1045B000414600963B462046C8E7324639462046EB
:1045C000FFF7AEFD00287FF45EAF23681A69636AC7
:1045D0001A70626A531C6362238D013B2385638DCD
:1045E000013B9BB263852368596949077FF55CAF3E
:1045F000C3E700BF020010000000FFFF040001003D
:1046000010B590F83D30202BDCB216D1242380F871
:104610003D3003681A6822F001021A605A6A22F0DB
:1046200010025A625A6A114359621A6842F0010232
:104630001A6080F83D40002010BD0220FCE730B534
:1046400090F83D30202BDCB216D10268242380F88C
:104650003D30136823F001031360556A4FF6F07381
:104660002B400B439BB25362136843F0010313606A
:1046700080F83D40002030BD0220FCE70068D1F802
:1046800000C0D201843283182DE9F043C6685D680A
:104690004C68D1F8189005F470455D60C5680CF160
:1046A0000107C5F30B45C6F30B463D44264445EAD6
:1046B00006455D60C668CD68C6F30A062E449D684F
:1046C00005F470459D60C7688D68C7F30A0701351A
:1046D0003D4445EA06459D601D690E6925F00705C4
:1046E0001D614FF0000E1E619D6991F8327091F8C6
:1046F0003180C3F818E091F8305045EA096545EA81
:10470000082545EA07459D615D6925F0FF055D6166
:104710004D695D61DD6925F4E06525F00705DD6122
:10472000D1E907573D43DD619D6A4D6AC3F828E032
:104730009D621EB3012E23D0B51E022D22D9072E55
:1047400014BF01250225DE6A06F0E026DE62A4EB36
:104750000C048E6AC96A6C436E43033444EA06440F
:10476000DC621C6B24F4FF6424F007041C631963EF
:10477000835843F001038350BDE8F0830425E2E74A
:104780000325E0E70225DEE738B50446002863D0BC
:1047900090F8A13003F0FF021BB980F8A020FDF7CC
:1047A00029F9022384F8A13023689A6922F0704223
:1047B0009A61D4E901200243E068996902432069C3
:1047C00002430A439A619A68244960690A409A60E0
:1047D0009A6842EA0042A06902439A60DA68E06996
:1047E0000A40DA60DA6842EA0042206A0243DA608C
:1047F0001A69606A0A401A611A6942EA0042A06AAC
:1048000002431A615A690A405A615A69E16A42EAE6
:104810000142216B0A435A61DA6A94F8350094F830
:10482000361002F07F42DA62DD6A94F834202A43BF
:1048300042EA002242EA0142DA625A6B42F0060280
:104840005A639A6942F001029A6100200123C4F878
:10485000A40084F8A13038BD0120FCE700F800F086
:1048600070477047036870B59E6B5D6B72070446B6
:1048700014D5690712D55A6B22F004025A63042238
:10488000DA63D0F8A43043F00103C0F8A430002369
:1048900080F8A12080F8A030FFF7E2FFB20716D51C
:1048A000AB0714D523685A6B22F002025A63022226
:1048B000DA63D4F8A4301343C4F8A430042384F892
:1048C000A130002384F8A0302046FFF7C9FFF0078D
:1048D00010D5E9070ED523685A6B22F001025A63FE
:1048E0000122DA63002384F8A12084F8A030204656
:1048F000FCF782FC320711D52B070FD523685A6BC2
:1049000022F008025A630822DA63012384F8A130F6
:10491000002384F8A0302046FFF7A3FF70BD2DE9E7
:10492000F04190F8A030012B06460F4694464FF018
:1049300002001FD04FF0010886F8A08086F8A10081
:1049400034240D4604FB02640FCD38340FC40FCD60
:104950000FC40FCD0FC42B68236030466246394622
:10496000FFF78CFE33680020C3F8248086F8A1800E
:1049700086F8A000BDE8F08190F8A020012A034647
:104980004FF0020012D01A6883F8A100506B20F09B
:104990000100506306480164516B41F0010151630D
:1049A0000020012283F8A12083F8A000704700BFF7
:1049B000006801402DE9F341044640B30368DE0777
:1049C00010D423689D075BD42368190700F19D80EC
:1049D00023685A0700F1BD80A369002B40F02481B1
:1049E00000202CE08D4B9A6802F00C02042A07D0BC
:1049F0009A6802F00C02082A0BD15B68590208D5AC
:104A0000864B1B689A03DCD56368002BD9D1012043
:104A100015E06368814DB3F5803F13D12B6843F4F3
:104A200080332B60FEF74EFF7C4E054633689B03B8
:104A3000C7D4FEF747FF401B6428F7D9032002B014
:104A4000BDE8F081B3F5A02F04D12B6843F4802397
:104A50002B60E3E72A6822F480322A602A6822F475
:104A600080222A60002BDDD1FEF72CFF06462B6842
:104A70009F03A6D5FEF726FF801B6428F7D9DDE744
:104A8000664B9A6812F00C0F07D09A6802F00C027D
:104A9000082A11D15B685D020ED4604A1368990739
:104AA00002D5E368012BB2D11368216923F0F80322
:104AB00043EAC103136087E7E268594BB2B10122B0
:104AC0001A60FEF7FFFE554D06462B689B0707D57B
:104AD0002B68226923F0F80343EAC2032B6073E7D3
:104AE000FEF7F0FE801B0228EFD9A7E71A60FEF759
:104AF000E9FE4A4E054633689F077FF565AFFEF72E
:104B0000E1FE401B0228F6D998E76269444B82B166
:104B10000122C3F8802EFEF7D5FE404E0546736F86
:104B20009B073FF555AFFEF7CDFE401B0228F6D997
:104B300084E7C3F8802EFEF7C5FE384E0546736F36
:104B40009F077FF545AFFEF7BDFE401B0228F6D953
:104B500074E7324B1A6C12F0805228D101921A6C11
:104B600042F080521A641B6C03F080530193019B46
:104B700001272C4D2B68D8051BD5A368274D012B89
:104B800027D12B6F43F001032B67FEF79BFE234ECB
:104B9000054641F28838336F9A0739D5002F3FF424
:104BA0001BAF1E4A136C23F08053136414E70027D5
:104BB000DFE72B6843F480732B60FEF783FE064625
:104BC0002B68D905D9D4FEF77DFE801B0228F7D9C2
:104BD00034E7052B04D12B6F43F004032B67D0E798
:104BE0002A6F22F001022A672A6F22F004022A6744
:104BF000002BCAD1FEF766FE41F2883806462B6FBD
:104C00009B07CBD5FEF75EFE801B4045F7D915E725
:104C1000FEF758FE401B4045BDD90FE70038024063
:104C20000000474200700040374DAA6802F00C02B5
:104C3000082A3ED0022B354B4FF000021A662BD1CA
:104C4000FEF740FE06462B6899011FD4D4E90732CF
:104C50001343626A43EA8213E26A43EA0263A26A86
:104C60005208013A43EA02436B60284B264D012269
:104C70001A66FEF727FE04462B689A013FF5B0AE90
:104C8000FEF720FE001B0228F6D9D7E6FEF71AFE33
:104C9000801B0228D7D9D1E6FEF714FE04462B6804
:104CA0009B017FF59DAEFEF70DFE001B0228F6D995
:104CB000C4E6012B3FF4ABAE6B68E26903F48001FC
:104CC00091427FF4A4AE216A03F03F028A427FF44E
:104CD0009EAE616A47F6C0721A40B2EB811F7FF444
:104CE00096AEA26A520803F44031013AB1EB024F8A
:104CF0007FF48DAEE26A03F07063B3EB026F14BF12
:104D0000012000209BE600BF00380240000047421F
:104D1000134908B58B6803F00C03042B1CD0082B37
:104D20001CD14A684B68496813F4800314BF0D48CE
:104D30000D48C1F3881118BF002302F03F02A1FB08
:104D40000001FBF7A5FA064B5B68C3F3014301338F
:104D50005B00B0FBF3F008BD0248FCE70248FAE74D
:104D60000038024000127A000024F4002DE9F041DE
:104D70000D46044610B90120BDE8F081434B1A6886
:104D800002F00F028A4228D321688F072DD4C8076A
:104D900040D43E4B1A6802F00F02AA4265D822683E
:104DA00051076BD4130707D5394A2169936823F457
:104DB000604343EAC1039360FFF7AAFF344B354ACF
:104DC0009B68C3F30313D35CD840334B1860334B59
:104DD0001868FCF78DFF0020CEE7CAB21A701B6876
:104DE00003F00F038B42C6D1CEE7294B11F0040F1D
:104DF0001EBF9A6842F4E0529A600E0742BF9A685A
:104E000042F460429A609A68A06822F0F00202437D
:104E10009A60BCE762681E4B012A1CD11B6813F420
:104E2000003FA8D01A4EB36823F003031343B360C6
:104E3000FEF748FD41F288380746B368626803F020
:104E40000C03B3EB820FA4D0FEF73CFDC01B404522
:104E5000F3D9032090E7911E01291B6802D813F0B3
:104E6000007FDEE713F0020FDBE7EAB21A701B687F
:104E700003F00F03AB427FF47EAF90E70449E06894
:104E80008B6823F4E05303438B608BE7003C0240C4
:104E900000380240D01E0108740000207C00002071
:104EA000044B054A9B68C3F38223D35C034A106812
:104EB000D840704700380240C81E01087400002026
:104EC0000F2303600B4B9A6802F0030242609A685A
:104ED00002F0F00282609A6802F4E052C2609B68BD
:104EE000DB0803F4E0530361034B1B6803F00F037B
:104EF0000B60704700380240003C0240036813F02A
:104F0000430FF7B5044640F08880236813F00C0F78
:104F100045D08C4B8C4D00221A67FEF7D3FC064619
:104F20002B68990000F1CB8021684A0715D5D4E998
:104F30000403D5F888201B0602F0E04243EA801300
:104F40001343C5F88830D5F88C30226A23F4F8531F
:104F5000013A43EA0223C5F88C300B0714D57A4A8C
:104F6000A369D2F8881020691B0701F0706143EA39
:104F700080130B43C2F88830D2F88C30616A23F476
:104F800040330B43C2F88C306E4B6F4E01221A67D0
:104F9000FEF798FC054633689F0040F19780236830
:104FA000980634D500230193674B684D1A6C42F084
:104FB00080521A641B6C03F080530193019B2B6891
:104FC00043F480732B60FEF77DFC06462B68D80502
:104FD00040F183805C4DA26A2B6F13F4407340F064
:104FE0008380A36A03F44072B2F5407F564A40F0D2
:104FF0009E80916823F0704021F4F81120F44070F5
:1050000001439160116FC3F30B030B4313672368D4
:10501000DB0600F1908000204FE04A4B4A4E002210
:105020009A66FEF74FFC054633681F013FD421689E
:10503000C80741BFD4E901231B0743EA8213C6F81E
:1050400084308A0715D5404AE368D2F88400656841
:105050001B0600F0E04043EA85130343C2F88430A6
:10506000D2F88C00E36920F01F00013B0343C2F833
:105070008C304B060AD5E36862681B0643EA82134C
:10508000A26843EA0273304AC2F884302D4B2E4E98
:1050900001229A66FEF716FC054633681F013FF5AC
:1050A00034AFFEF70FFC401B0228F6D904E0FEF7F0
:1050B00009FC401B0228B7D9032003B0F0BDFEF75E
:1050C00001FC801B02287FF62BAFF5E7FEF7FAFB09
:1050D000401B02287FF65FAFEEE7FEF7F3FB801B75
:1050E00002287FF673AFE7E702F4407293423FF481
:1050F00078AF2B6F134A0121C2F8401E23F440738E
:105100000021C2F8401E2B672B6FD9077FF569AFCE
:10511000FEF7D8FB41F2883706462B6F9A073FF51A
:1051200060AFFEF7CFFB801BB842F6D9C4E79168A9
:1051300021F4F81165E7064B94F82C20C3F8E02120
:1051400069E700BF0000474200380240007000409D
:105150000010474238B50D460446C8B190F82C30CF
:1051600003F0FF021BB980F82D20FCF755FD022348
:1051700084F82C30211D206800F0FEFC6268206855
:10518000294600F031FD012384F82C30002038BD81
:105190000120FCE770B590F82C30022B05460E4636
:1051A000D8B212D000F0FB04012C0FD1022385F8F5
:1051B0002C30286800F04EFD3368022B06BF052313
:1051C00085F82C3085F82C40002070BD0120FCE7CC
:1051D00038B590F82C30022B0446D8B20DD094F894
:1051E0002C30012BDDB209D10223206884F82C3049
:1051F00000F054FD84F82C50002038BD0120FCE75D
:105200002DE9F3411C4616460F460546FEF75AFBAC
:105210003444241AFEF756FB244B1B68C3F3CB33EC
:105220006343804601932A68936837EA030301D0F9
:1052300000202EE0731CF7D0FEF744FBA0EB080023
:10524000A04229D32B685A6822F0E0025A606A68AB
:10525000B2F5827F0AD1AA68B2F5004F02D0B2F54A
:10526000806F03D11A6822F040021A60AA6AB2F570
:10527000005F07D11A6822F400521A601A6842F4DB
:1052800000521A60012385F85130002385F8503010
:10529000032002B0BDE8F081019A019B002A03F1CE
:1052A000FF33019308BF1446BDE700BF7400002020
:1052B00038B513464268B2F5827F044606D00A46E6
:1052C0000121FFF79DFFB8B9002038BD8268B2F513
:1052D000004F02D0B2F5806F07D125682868B2F57B
:1052E000806F20F04000286003D00A4680212046CD
:1052F000E7E70A460121FAE7636D43F0200363659F
:105300000320E2E737B51346124A1568124AB5FB87
:10531000F2F54FF47A72554342680195B2F5827FF7
:1053200004460BD10A468021FFF76AFF78B1636D0E
:1053300043F020036365032003B030BD019B33B10C
:10534000019B013B019323689B681B06F6D4002058
:10535000F2E700BF7400002000366E0110B504466D
:10536000002855D0436A002B4ED14268B2F5827FA7
:1053700000D0C3610023A36294F8513003F0FF0210
:1053800023B984F850202046FCF710FC2168A0685F
:10539000A269022384F851300B6823F040030B60AC
:1053A000636800F4044003F482730343E06800F48C
:1053B00000600343206900F002000343606900F0CD
:1053C0000100034302F400700343E06900F0380079
:1053D0000343206A00F080000343A06A00F40050F9
:1053E00003430B60636A120C03F0100302F0040223
:1053F0001A434A60CB6923F40063CB610020012388
:10540000606584F8513010BD0023C0E90433B1E772
:105410000120F8E72DE9F7431F4690F85030012BA3
:1054200004460D46904600F0A080012380F85030DD
:10543000FEF748FA94F85130012B8146D8B240F07B
:105440009280002D61D0B8F1000F5ED0032384F864
:10545000513000236365C4E91033A4F83680A36398
:10546000A387E387A36826682563B3F5004FA4F8F4
:10547000348007D1336823F040033360336843F44A
:10548000804333603368E2685B065EBF336843F095
:1054900040033360B2F5006F63683FD113B1B8F1D8
:1054A000010F07D135F8023BF3602563E38E013B22
:1054B0009BB2E386E38E9BB2A3B94A4639462046A7
:1054C000FFF720FF00284BD1A36833B9019323686D
:1054D000DA6801929B680193019B606D003818BFE8
:1054E000012012E022689368980705D5236B33F8F2
:1054F000021BD1602363D9E7FEF7E4F9A0EB0900B2
:10550000B842D7D3791CD5D00320012384F8513079
:10551000002384F8503003B0BDE8F08313B1B8F134
:10552000010F08D12B783373236B01332363E38E90
:10553000013B9BB2E386E38E9BB2002BBDD0236878
:105540009A68920703D5226B12781A73ECE7FEF77C
:10555000B9F9A0EB0900B842EDD37B1CEBD0D3E73F
:1055600020236365B0E70220CFE70220D3E72DE9CF
:10557000F7431E4690F85030DDF82880012B044692
:105580000D46914600F0E380012380F85030FEF78D
:1055900099F994F851306268012B0746D9B20AD0C4
:1055A000B2F5827F40F0D180A368002B40F0CD801F
:1055B000042940F0CA8015B1B9F1000F09D10120CA
:1055C000012384F85130002384F8503003B0BDE843
:1055D000F083002EF3D094F85130C4F83890042BA7
:1055E0001CBF052384F8513000236365C4E91033E0
:1055F0002368E687E6861968A687490658BF1968B2
:10560000256358BF41F04001A68658BF1960E16884
:10561000B1F5006F48D10AB1012E07D135F8022B40
:10562000DA60E38E2563013B9BB2E3860125E38EBE
:105630009BB263B9E38F9BB24BB93A4641462046D1
:10564000FFF760FE002874D020236365B7E7216868
:105650008B689A070DD5E38E9BB253B145B1236B8E
:1056600033F8022BCA602363E38E013B9BB2E386CF
:1056700000258A6812F001020CD0E38F9BB24BB177
:10568000A36BC96823F8021BA363E38F013B9BB2A2
:10569000E3871546FEF716F9C01B4045C7D3B8F19E
:1056A000FF3FC4D003208BE70AB1012E08D12A782E
:1056B0001A73236B01332363E38E013B9BB2E386B2
:1056C00001252DE0226893689B070ED5E38E9BB2DF
:1056D0005BB14DB1236B1B781373236B01332363D1
:1056E000E38E013B9BB2E38600252268916811F0AE
:1056F00001010DD0E38F9BB253B1A36BD2681A7036
:10570000A36B0133A363E38F013B9BB2E3870D4699
:10571000FEF7D8F8C01B404502D3B8F1FF3FC1D116
:10572000E38E9BB2002BCDD1E38F9BB2002BC9D16E
:1057300083E7A368002B7FF443AF23680190DA6806
:1057400001929B680193019B3AE7022038E702200F
:105750003CE72DE9F7431D464368B3F5827F0446D5
:10576000894617460CD1836853B9042380F8513019
:10577000134600950A46FFF7FAFE03B0BDE8F08332
:1057800094F85030012B7FD0012384F85030FEF77D
:1057900099F894F85130012B8046D8B272D1B9F102
:1057A000000F5CD0002F5AD0A268C4F838900026B1
:1057B0000423B2F5004F84F85130C4E910666665E1
:1057C0002368E787A7872663A686E68607D11A6837
:1057D00022F040021A601A6822F480421A601A68A5
:1057E00056065EBF1A6842F040021A60E368F3B1E1
:1057F000E38F9BB2FBB123689A68D20736D5DA688B
:10580000A36B23F8022BA363E38F013B9BB2E387D7
:10581000EEE723689A68D00718D5A26B1B7B13703C
:10582000A36B0133A363E38F013B9BB2E387E38F59
:105830009BB2002BEDD1424629462046FFF738FDAA
:10584000E8B9606D003818BF012008E0FEF73AF8AB
:10585000A0EB0800A842EAD3691CE8D0032001238A
:1058600084F85130002384F8503086E7FEF72AF898
:10587000A0EB0800A842BBD36B1CB9D0EEE72023F5
:105880006365DEE70220EAE7022076E77047000062
:1058900090F83D30012B30D1022380F83D30036871
:1058A000DA6842F00102DA60154A93421AD0B3F185
:1058B000804F17D0A2F57C42934213D002F580624C
:1058C00093420FD002F5806293420BD002F57842EA
:1058D000934207D002F57052934203D0A2F594325E
:1058E000934204D19A6802F00702062A03D01A688C
:1058F00042F001021A60002070470120704700BF8B
:1059000000000140704770477047704703681A698C
:10591000910710B504460ED5DA6892070BD56FF0E3
:1059200002021A61012202779B699B0777D0FFF779
:10593000EAFF0023237723681A69500710D5DA6835
:1059400051070DD56FF004021A61022222779B697C
:1059500013F4407F204668D0FFF7D5FF002323775C
:1059600023681A6912070FD5DA6810070CD56FF093
:1059700008021A6104222277DB69990720465AD06F
:10598000FFF7C1FF0023237723681A69D20610D5D9
:10599000DA68D0060DD56FF010021A61082222775E
:1059A000DB6913F4407F20464BD0FFF7ACFF0023A8
:1059B000237723681A69D10708D5DA68D20705D595
:1059C0006FF001021A612046FBF752FF23681A6943
:1059D000100608D5DA68110605D56FF080021A6145
:1059E000204600F0C8F823681A69520608D5DA681C
:1059F000500605D56FF040021A612046FFF785FF7B
:105A000023681A69910622D5DA6892061FD56FF0CD
:105A1000200220461A61BDE8104000F0ABB8FFF745
:105A200071FF2046FFF770FF83E7FFF76BFF20460B
:105A3000FFF76AFF92E7FFF765FF2046FFF764FF75
:105A4000A0E7FFF75FFF2046FFF75EFFAFE710BD5F
:105A5000304A0368904212D0B0F1804F0FD0A2F5C7
:105A60007C4290420BD002F58062904207D002F552
:105A70008062904203D002F57842904219D14A6880
:105A800023F070031343234A904229D0B0F1804F92
:105A900026D0A2F57C42904222D002F5806290424C
:105AA0001ED002F5806290421AD002F578429042F0
:105AB00016D0194A904213D002F5806290420FD05E
:105AC00002F5806290420BD0A2F59832904207D046
:105AD00002F58062904203D002F58062904203D1C9
