:020000040800F2
:10000000000003205D060008AD1C0008AF1C0008BE
:10001000B11C0008B31C0008B51C0008000000005B
:10002000000000000000000000000000718B0008CC
:10003000B71C000800000000018C0008578300086E
:10004000AD060008AD060008AD060008AD060008C4
:10005000AD060008AD060008DD1C0008AD0600086E
:10006000F91C0008FF1C0008AD060008AD060008DA
:10007000AD060008AD060008AD060008AD06000894
:10008000AD060008AD060008AD060008AD06000884
:10009000AD060008AD060008AD060008AD06000874
:1000A000AD060008AD060008AD060008AD06000864
:1000B000AD060008AD060008AD060008AD06000854
:1000C000AD060008AD060008AD060008AD06000844
:1000D000AD060008AD060008AD060008AD06000834
:1000E000E31C0008AD060008AD060008AD060008D8
:1000F000AD060008AD060008AD060008AD06000814
:10010000AD060008AD060008AD060008AD06000803
:10011000AD060008AD060008B91C0008AD060008D1
:10012000AD060008AD060008AD060008AD060008E3
:10013000AD060008AD060008AD060008AD060008D3
:10014000AD060008AD060008AD060008AD060008C3
:10015000AD060008AD060008AD060008AD060008B3
:10016000AD060008AD060008AD060008AD060008A3
:10017000AD060008AD060008AD060008000000004E
:10018000AD060008AD060008AD060008AD06000883
:10019000AD060008AD060008AD060008AD06000873
:0C01A000C51C0008AD060008D11C0008BA
:1001B00010B5054C237833B9044B13B10448AFF3A1
:1001C00000800123237010BD800300200000000088
:1001D0001056020808B5034B1BB103490348AFF39F
:1001E000008008BD000000008403002010560208B3
:1001F00001F0FF01102A2BDB10F0070F08D010F8D8
:10020000013B013A8B422DD010F0070F42B3F6D1DB
:10021000F0B441EA012141EA014122F007047FF0F4
:1002200000070023F0E80256083C85EA010586EA4B
:10023000010685FA47F5A3FA87F586FA47F6A5FA87
:1002400087F68EB9EED1F0BC01F0FF0102F0070293
:1002500032B110F8013B013A83EA010313B1F8D13E
:100260000020704701387047002D06BF354603381F
:10027000073815F0010F07D1013015F4807F02BF58
:10028000013015F4C03F0130F0BC0138704700BFA9
:100290007BB972B90029BEBF00204FF0004106E0D3
:1002A00008BF00281CBF6FF000414FF0FF3000F086
:1002B000D3B9ADF1080C6DE904CE002909DB002BA0
:1002C0001ADB00F04DF8DDF804E0DDE9022304B0AC
:1002D0007047404261EB4101002B1BDB00F040F80E
:1002E000DDF804E0DDE9022304B0404261EB4101A6
:1002F000524263EB43037047524263EB430300F007
:100300002FF8DDF804E0DDE9022304B0404261EBA0
:1003100041017047524263EB430300F021F8DDF8DE
:1003200004E0DDE9022304B0524263EB430370476B
:1003300053B94AB9002908BF00281CBF4FF0FF314C
:100340004FF0FF3000F088B9ADF1080C6DE904CE34
:1003500000F006F8DDF804E0DDE9022304B07047A0
:100360002DE9F047089D8E4604468846002B4AD169
:100370008A42174662D9B2FA82F64EB1C6F120031C
:1003800001FA06F820FA03F3B74043EA0808B4403C
:100390004FEA174E1FFA87FCB8FBFEF1230C0EFB49
:1003A000118843EA084301FB0CF29A4209D9FB1871
:1003B00001F1FF3080F0EA809A4240F2E780023992
:1003C0003B449A1AA3B2B2FBFEF00EFB102243EAA2
:1003D000024300FB0CFC9C4509D9FB1800F1FF32DD
:1003E00080F0D6809C4540F2D3803B44023840EAFE
:1003F0000140A3EB0C0300211DB1F3400022C5E92D
:100400000032BDE8F0878B4205D90DB1C5E9000186
:1004100000210846F5E7B3FA83F1002946D1734578
:1004200002D3824200F20581841A6EEB030201209E
:100430009046002DE5D0C5E90048E2E7002A00F02B
:100440009080B2FA82F6002E40F0A4808A1A030C43
:100450004FEA174E80B2BCB20121B2FBFEFC0EFB8C
:100460001C2243EA024304FB0CF29A4207D9FB1810
:100470000CF1FF3802D29A4200F2E080C4469B1A87
:10048000B3FBFEF20EFB123340EA034302FB04F41B
:100490009C4207D9FB1802F1FF3002D29C4200F2C5
:1004A000CA8002461B1B42EA0C40A5E7C1F12006A8
:1004B0008B4022FA06F71F430EFA01F420FA06F3E6
:1004C0002EFA06FE4FEA1749234300FA01F81FFAF5
:1004D00087FCBEFBF9F01C0C09FB10EE44EA0E444D
:1004E00000FB0CFEA64502FA01F209D93C1900F105
:1004F000FF3A80F09C80A64540F2998002383C4447
:10050000A4EB0E041FFA83FEB4FBF9F309FB1344BA
:100510004EEA044403FB0CFCA44508D93C1903F142
:10052000FF3E80F08280A4457FD9023B3C4443EAF1
:100530000040A4EB0C04A0FB02EC64457346E146CA
:1005400062D35FD05DB1B8EB030264EB090404FA37
:1005500006F622FA01F31E43CC40C5E900640021EF
:100560004FE7B1FBF2FC010C41EA0E4180B240EAD8
:1005700001423B4638463C46B846BE462026B1FBC3
:10058000F7F1A2EB080241EA0C4166E7014618E7E1
:1005900010462CE7C6F120022EFA02F3B740B14014
:1005A00020FA02F24FEA174E0A43B3FBFEF8BCB240
:1005B0000EFB1833110C41EA034108FB04F9B0406B
:1005C00089454FEA104380B23ED9791808F1FF3CC3
:1005D00001D289451FD8A1EB0901B1FBFEF909FB46
:1005E00004F80EFB191192B242EA0142424529D2A7
:1005F000BA1809F1FF31C4D24245C2D2A9F10201B1
:100600003A44BEE7F0459DD2BEEB02036CEB070C0B
:100610000138E14696E7A7EB09094944A8F1020C25
:10062000B1FBFEF909FB04F8DBE773467FE75046B0
:1006300066E70846FDE63B44023A33E7ACF1020CBC
:100640003B441CE749469CE7A1EB0901C446B1FBCA
:10065000FEF909FB04F8C4E7704700BFDFF834D0A7
:10066000002103E00C4B5B58435004310B480C4B0A
:1006700042189A42F6D30B4A02E0002342F8043BA8
:10068000094B9A42F9D305F0C3F824F053FA00F06D
:1006900055FC7047000003206CFB1108000000208F
:1006A0006C0100208003002000650120FEE70000AF
:1006B00038B5074D074C2868444307F085FE2044B1
:1006C00080EA403080EA504080EA4010286038BD1F
:1006D000040000200D66190038B50446FFF7E8FF56
:1006E0000723B0FBF3F3C3EBC303C01AC4F87C03C6
:1006F00010B3012814BF03230223C4F87833FFF793
:10070000D7FF0723B0FBF3F3C3EBC303D4F87C2379
:10071000C01A0A4BC4F8C40303EB821304F56074D7
:1007200003F140051A4603CAAA42206061601346DD
:1007300004F10804F6D138BD0423DEE77856020838
:10074000F0B500F56075064694461F460C460FCD81
:100750000FC40FCD0FC40FCD0FC495E80F0084E870
:100760000F00D6F87833CCF80030D6F8C423024B0B
:1007700033F812303B80F0BD68560208D0F87C3365
:10078000013310B5044601D1FFF7A6FF234604F15B
:100790004002D3F88013C3F82013D3F88413C3F8AE
:1007A0002413D3F88813C3F82813D3F88C13C3F891
:1007B0002C1310339342ECD1D4F87833C4F8683357
:1007C000C3F10A0303EBD3735B10D4F8C423C4F85A
:1007D00060330023C4F8C023C4F864332046BDE866
:1007E0001040FFF779BF10B50346044600F5487185
:1007F00000208B4213D116220023C4F870234FF03F
:10080000FF32204684F86C33C4F87C23C4F8C43328
:10081000FFF762FF2046BDE81040FFF7AFBF1A4662
:1008200028339342E5D042F8040BFAE710B50446AA
:10083000FFF7D9FF204610BDF0B5054691B00C4634
:1008400040220021684624F0CCF8D5F86823002324
:100850000DEB820104EB82009A420CDC6D460FCD59
:100860000FC40FCD0FC40FCD0FC495E80F0084E85F
:100870000F0011B0F0BD04EB03150E4655F8047BD4
:1008800046F8047C854206F11006F7D1013304399D
:100890001030E1E7F0B5D0F868431460DDE9056C8D
:1008A00000241C60D0F868533560CCF80040D0F8C4
:1008B0006853A5421FDD01EB041E002515E05EF81C
:1008C000047B8FB11768AF42C8BF15601F68AF4285
:1008D000B8BF1D603768A742C8BF3460DCF800703D
:1008E000A742B8BFCCF800400135D0F86873AF42DA
:1008F000E5DC0134DBE7F0BD2DE9F04F87B00E46B3
:10090000194605AB019304AB1446009302AA03AB4E
:10091000FFF7C0FF0546DDE9040EDDE902BC021960
:1009200005EB86054FF0280886451CDB01EB001916
:1009300008FB02575C460DE059F824304BB104EB3C
:10094000060ABAF1090F0AD8132A08D857F8243032
:100950002BB90134A445EFDA01300132E4E701207C
:1009600007B0BDE8F08F0020FAE72DE9F0474FF01F
:10097000280E064613274FF0010900EB0E084FF032
:10098000000A0EFB07610022012351F8040B01321B
:10099000002808BF00230A2AF7D103B3D6F8703322
:1009A00086F874930133C6F87033BC46BCF1000F6F
:1009B00005D133469845E4D043F804ABFAE70CF18F
:1009C000FF3C0EFB0CF408EB040534440FCC0FC5C0
:1009D0000FCC0FC594E8030085E80300E6E7013F6C
:1009E000CFD2BDE8F087F8B5D0F86863044600F5CB
:1009F000477500224FF00A0C964207DC2046FFF7AD
:100A0000B4FF2046BDE8F840FFF7B8BE2F460021EE
:100A100057F8043F83B1D4F86403104413280BD86B
:100A2000D4F860330B44092B9FBF0CFB0033D4F880
:100A3000C003013044F8230001318E42E8D1013275
:100A40001035D9E738B590F86C33044663B9D0F85F
:100A50006453D0F86013013500F548732A46FFF758
:100A60004BFF10B9C4F8645338BD2046FFF7BBFFF5
:100A7000231F04F12402012153F8040F08B184F864
:100A80006C139342F8D1EFE738B590F86C33044615
:100A900063B9D0F86053D0F86423013D00F5487382
:100AA0002946FFF729FF08B9C4F8605338BD38B5A7
:100AB00090F86C33044663B9D0F86053D0F86423DF
:100AC000013500F548732946FFF716FF08B9C4F849
:100AD000605338BDF8B590F86C330446ABB9D0F824
:100AE000606300F54877D4F8645301353B462A46E5
:100AF00031462046FFF700FF20B12046BDE8F84010
:100B0000FFF771BFC4F86453EDE7F8BD70B590F816
:100B10006C3390B0044623BB00F548760FCE6D468B
:100B20000FC50FCE0FC50FCE0FC596E80F0085E895
:100B30000F0020466946FFF77FFED4E9D812204611
:100B40006B46FFF7D9FE04F5487450B96D460FCDDA
:100B50000FC40FCD0FC40FCD0FC495E80F0084E86C
:100B60000F0010B070BD0000D0F8C023014B33F867
:100B700012007047685602080A2303FB021150F85E
:100B8000210018B1024B013833F81000704700BF44
:100B90006856020807B5064BADF806001B68054805
:100BA00001220DF1060106F059FE03B05DF804FBC9
:100BB000080000204C04002038B50D4C0D4D4FF0BE
:100BC000FF320021012007F089FCC307F7D5237805
:100BD000002BF4D0286807F01FFE024620B92868D1
:100BE0000A23214607F0B7FD00232370E7E700BF83
:100BF000CC030020C003002010B594B010220021C7
:100C00000AA823F0EEFE1422002103A823F0E9FE37
:100C1000214B002101911A6C42F080521A641B6C26
:100C200003F080530193019B1C4B02911A6842F41C
:100C300040421A601B6803F440430293029B012167
:100C40004FF480330224CDE908134FF480030820C9
:100C5000CDE90E434FF4B473CDE91003042308A883
:100C60001294139306F0A2F800B1FEE706F064F8C0
:100C700000B1FEE70F23CDE9033405904FF4A052F5
:100C80004FF48053052103A8CDE9062306F06AFA44
:100C900000B1FEE714B010BD003802400070004003
:100CA000704770477FB5094B8DF817201B6802937A
:100CB0000DF117020123009201930A4601460448F0
:100CC00005F0CAFC07B05DF804FB00BF0C00002073
:100CD0004C0500207FB500238DF81730084B1B68AA
:100CE00002930A4601230DF1170100910193014679
:100CF000044805F041FD9DF8170007B05DF804FBBE
:100D00000C0000204C0500201FB5084C2468009200
:100D1000CDE901340A4601230146054805F02CFDC2
:100D2000003818BF012004B010BD00BF0C00002027
:100D30004C05002004F0A6BD10B5064C002220464C
:100D4000042105F0C7F920460122BDE81040042126
:100D500005F0C0B90008024038B50B4D0446012229
:100D60000A484FF4005105F0B5F900220421284645
:100D700005F0B0F92046FFF70DFF28460122BDE837
:100D80003840042105F0A6B900080240000C0240DA
:100D900038B50B4D044600220A484FF4005105F0C7
:100DA00099F900220421284605F094F92046FFF71E
:100DB000F1FE28460122BDE83840042105F08AB939
:100DC00000080240000C0240F7B5144E144F0546CF
:100DD0000C4630460022042105F07CF900224FF435
:100DE0000051384605F076F92846FFF7D3FE0D4B43
:100DF0000D481B68224601A906F0DCFE3846012298
:100E00004FF40051019C05F065F9304601220421A0
:100E100005F060F9204603B0F0BD00BF00080240B5
:100E2000000C0240080000204C04002004F02ABD01
:100E30000A4C08B501220821204605F04BF9322062
:100E400007F09AFB00220821204605F043F90448E8
:100E50004FF4005105F043F907F001FB0008024090
:100E600000180240104C08B501220821204605F068
:100E700031F9322007F080FB00220821204605F0DE
:100E800029F9322007F078FB01220821204605F0DD
:100E900021F9322007F070FB00220821204605F0DE
:100EA00019F907F0DCFA00BF000802401FB54FF641
:100EB0007E738DF80A2002F20512ADF804308DF829
:100EC0000910062311448DF806308DF80700002321
:100ED00008448DF808304042EF238DF80D30C0F300
:100EE00007238DF80B308DF80C004FF0FF330A22EA
:100EF00001A9034807F049F905B05DF804FB00BFFC
:100F0000D003002008B5032202210F20FFF7CEFFF7
:100F10004FF4FA6007F030FB074B1B78012B06D12A
:100F2000022202210F20FFF7C1FF07F098FA032BDE
:100F3000FBD10122F5E700BF1000002080B59AB078
:100F400004F074FCFFF758FE142200210DA823F0D2
:100F500048FD0024B44B00941A6BB44842F01002D0
:100F60001A631A6B02F010020092009A01941A6B35
:100F700042F020021A631A6B02F020020192019AD9
:100F800002941A6B42F080021A631A6B02F080021C
:100F90000292029A03941A6B42F004021A631A6BCB
:100FA00002F004020392039A04941A6B42F00102C5
:100FB0001A631A6B02F001020492049A05941A6BE8
:100FC00042F002021A631A6B02F002020592059ABD
:100FD00006941A6B42F040021A631A6B02F0400248
:100FE0000692069A07941A6B42F008021A631B6B6A
:100FF00003F00803079322463C21079B05F06AF89B
:101000008B480122022105F065F889482246042117
:1010100005F060F8224687484FF4405105F05AF831
:1010200001253C23CDE90D3580480F9403230DA9FC
:101030000226109304F064FF7D480DA9CDE90D65EB
:10104000CDE90F4404F05CFF042379480DA9CDE9F4
:101050000D354FF44059CDE90F4604F051FF754866
:101060000DA90827CDE90D95CDE90F4604F048FFFD
:101070006F480F940DA9CDE90D7504F041FF22468C
:101080006B48394605F026F84FF488180C236A4857
:101090000F960DA9CDE90D3804F032FF67480F9681
:1010A0000DA9CDE90D9804F02BFF4FF400536248D1
:1010B0000F940DA9CDE90D3504F022FF60480F967D
:1010C0000DA9CDE90D5804F01BFF2246552106203D
:1010D00004F0FEFB062004F02DFC224655212820BA
:1010E00004F0F6FB282004F025FC22465521384662
:1010F00004F0EEFB384604F01DFC22465521092081
:1011000004F0E6FB092004F015FC4E484E4B03604A
:1011100004F01EFC00B1FEE74C4C4D4B4D492062E3
:10112000C4E900134FF48043C4E90200C4E9043069
:10113000C4E90600204605F0E7F900B1FEE71021FA
:10114000204605F029FC014600B1FEE7204605F0E7
:1011500042FC00B1FEE7404CDFF80CA1A0624FF466
:1011600082734FF40072C4E900A31823C4E9062374
:10117000C4E90200C4E90400C4E908000A232046C7
:10118000E36206F00FFB024600B1FEE78F23314613
:101190008DF8340026488DF8243004F09BFF2A4651
:1011A0004FF47A7309A9204606F058FB4FF47A737E
:1011B0002A460DA9204606F0FDFC2A4631461C4869
:1011C000264C04F087FF9DF83430D32B04BF244B0A
:1011D0001D70244B402201264FF01009C4E900364F
:1011E000C4E9049200234FF4C072C4E906234FF00F
:1011F00004084FF40062C4E90238C4E908234FF43C
:1012000000530227A3624FF0030A07230DA92046CB
:10121000CDE90D73CDE90F83CDE911A7139706F042
:10122000A5F9054610B3FEE7003802400010024061
:1012300000080240000C0240001802400004024076
:1012400000000240E0050020003002404C05002074
:10125000A0860100005C00404C040020180400201F
:10126000B8030020400100A0005001404FF00809E1
:101270004FF6FF7209A908900C902046CDE90A9616
:10128000099606F093F9304604F0FCFA4FF6FF7227
:1012900009A92046CDE90979CDE90B6506F086F963
:1012A0004FF6FF7209A92046CDE909A9CDE90B85C2
:1012B00006F07CF94FF40C730893089B0C934FF6DF
:1012C000FF7209A92046CDE909890B9606F06EF94F
:1012D00040F26A51204606F087F934220DEB0200F5
:1012E000294623F07EFB574C574B2561C4E9003556
:1012F0000923C4E905361D23C4E9073A40F20D1C51
:1013000040F24313C4E909C340F2171E40F24713E9
:101310002046C4E90255C4E90BE3A58684F836509B
:1013200005F0F4FB024600B1FEE7F021CDE90E1016
:101330000D90FF20CDE912024FF480650520CDE924
:1013400014504FF4A073CDE9162120460DA9CDE924
:1013500010371893ADF864208DF8662005F0A1FCD5
:10136000054600B1FEE7394C394B23601B689847AE
:101370002368384CDB689847374B2046C4E9003572
:10138000C4E90275C4E90A57C4E90C5504F0F0FA3F
:1013900000B1FEE72046314604F0A0FB044600B150
:1013A000FEE700F002FD2D482D4A04614FF416536C
:1013B000C0E900230C23C0E90244C0E90534C4613C
:1013C00006F0B4FE044600B1FEE700F0EDFC4FF479
:1013D0007A7004F057FA224621463F20FFF766FD57
:1013E000C82004F04FFA0F2221460620FFF75EFDC9
:1013F000C82004F047FA3A4639460F20FFF756FD59
:1014000006F0B6FF174A3146404607F069F9164B19
:10141000164A18603146404607F062F9144B154AE7
:1014200018602146144806F0D6FF144B144A186081
:101430002146144806F0CFFF134B186006F0AAFFB0
:10144000FEE700BFA404002000680140B4030020B0
:101450001C000020A005002000B00240D0030020A6
:10146000004C0040B0670208C003002098670208E3
:10147000BC030020EC670208B90B0008C803002079
:10148000C8670208B91D0008C4030020454B9842F4
:101490005AD303F58043984258D303F580439842CA
:1014A00056D3414B984255D903F58033984253D9CE
:1014B00003F50033984251D903F5003398424FD9D0
:1014C00003F5003398424DD903F5003398424BD9C8
:1014D00003F50033984249D903F50033984247D9C0
:1014E000B0F1016F46D3314B984245D303F58043A9
:1014F000984243D303F58043984241D32C4B984202
:1015000040D903F5803398423ED903F50033984221
:101510003CD903F5003398423AD903F50033984299
:1015200038D903F50033984236D903F50033984291
:1015300034D903F50033984232D9B0F1026F2CBF91
:101540004FF0FF3017207047002070470120704790
:101550000220704703207047042070470520704721
:101560000620704707207047082070470920704701
:101570000A2070470B2070470C2070470D207047E1
:101580000E2070470F2070471020704711207047C1
:1015900012207047132070471420704715207047A1
:1015A0001620704700400008FFFF000800401008A8
:1015B000FFFF1008F7B5054616460F4604F052FB2C
:1015C0002846FFF763FF014605EB8600FFF75EFF45
:1015D000224B00221A6002221A61421C521A9960A0
:1015E000184601A9DA6004F037FC044618B104F08B
:1015F00055FB03B0F0BD1A4B1A6822F480621A60E2
:101600001A6822F400721A601A6842F480521A6052
:101610001A6822F480521A601A6842F400621A6052
:101620001A6822F400621A601A6842F400721A60A2
:101630001A6842F480621A60A64205EB840103DC5A
:1016400004F022FB0020D4E757F8242000230220D6
:1016500004F052FB0028CAD10134EDE7A0030020BA
:10166000003C024001EB8202401A914200D17047D7
:10167000435841F8043BF8E7012838B504460BD13C
:10168000002211461920FFF711FCBDE8384015482B
:101690004FF4005104F023BD134D04F0EDF82B6816
:1016A000C01AC7280AD904F0E7F8B4F5805F2860AB
:1016B00012D004D8042C11D0082C11D038BDB4F5A8
:1016C000005FFBD15223094A1370094B01211868AE
:1016D000BDE8384006F0C8BE4C23F4E75423F2E7D7
:1016E0004423F0E7001802409C030020CC030020B4
:1016F000C80300200268034B9A4201D104F0B0B83D
:10170000704700BF00100040FEE7000082B00E4BA3
:1017100000220092596C41F480415964596C01F4E3
:101720008041009100990192196C41F08051196437
:101730001B6C03F080530193019B0F216FF001009C
:1017400002B004F0C5B800BF003802400268094B7F
:101750009A4282B00BD100230193074B1A6B42F4DB
:1017600080521A631B6B03F480530193019B02B0F8
:10177000704700BF003002400038024007B50F4BF1
:1017800002689A4216D10022A3F5F0430192196B28
:1017900041F4000119631B6B03F40003019305215D
:1017A0005A20019B04F094F85A2003B05DF804EB32
:1017B00004F0C0B803B05DF804FB00BF00B0024005
:1017C0002DE9F043044689B01422002103A823F038
:1017D00008F92268244B9A4243D1244C244800251E
:1017E0000095236B43F004032363236B03F004038E
:1017F0000093009B0195236B43F001032363236B4C
:1018000003F001030193019B4FF012094FF40073A1
:101810004FF001080327042603A9CDE90339CDE9D8
:101820000587079604F06CFB4FF480731148079608
:1018300003A9CDE90339CDE9058704F061FB0295E1
:10184000236C43F400032364236C03F4000302932A
:10185000029B236A43F400032362236A23F40003F8
:10186000236209B0BDE8F083005C0040003802400C
:101870000008024000000240F0B599B0044614226E
:10188000002107A823F0ADF830220DEB0200002163
:1018900023F0A7F822685E4B9A4240F0B7800823F5
:1018A0000C93C0231093042312930CA84FF400331D
:1018B000159305F02FFD08B1FFF726FF554B56484D
:1018C000002400945A6C42F080625A645A6C02F010
:1018D00080620092009A01941A6B42F020021A630F
:1018E0001A6B02F020020192019A02941A6B42F0E4
:1018F00001021A631A6B02F001020292029A039427
:101900001A6B42F002021A631A6B02F0020203928F
:10191000039A04941A6B42F040021A631A6B02F0A5
:1019200040020492049A05941A6B42F004021A636E
:101930001A6B02F004020592059A06941A6B42F0A3
:1019400008021A631B6B03F00803069302250E2698
:10195000069B0B964FF4806307A9CDE90735CDE9C7
:10196000094504F0CDFA41F658032C480B9607A917
:10197000CDE907350927CDE9094504F0C1FA03236C
:1019800027480B9707A9CDE90735CDE9094504F0AC
:10199000B7FA4FF4706322480B9607A9CDE90735D3
:1019A000CDE9094504F0ACFA4FF40C631D480B96E1
:1019B00007A9CDE90735CDE9094504F0A1FAC0230F
:1019C00019480B9607A9CDE90735CDE9094504F07B
:1019D00097FA082315480B9607A9CDE90735CDE9F5
:1019E000094504F08DFA4FF4A0530E480B9707A950
:1019F000CDE90735CDE9094504F082FA58202246A1
:101A0000052103F065FF582003F094FF19B0F0BDE5
:101A1000006801400038024000140240000002400B
:101A2000000402400018024000080240000C02407E
:101A300010B5044688B01422002103A822F0D1FF7B
:101A40002268144B9A4223D103F568430021019187
:101A50005A6C114842F480125A645A6C02F4801293
:101A60000192019A02911A6B42F020021A631B6BD9
:101A700003F020030293029B4FF4607202230321C0
:101A8000CDE903230523CDE9061303A904F038FAB1
:101A900008B010BD00500140001402402DE9F04193
:101AA00086B0002303932B4B1C68002C4FD14FF0C2
:101AB0000108C3F80080284B00949A6B274842EA3B
:101AC00008029A639B6B03EA08030093022703262C
:101AD0000C25009B01A94FF63F03CDE90137CDE965
:101AE000046504F00DFA1E48059501A9CDE90187AA
:101AF000CDE9034604F004FA48F23313194805957A
:101B000001A9CDE90137CDE9034604F0F9F94FF613
:101B100083731548059501A9CDE90137CDE9034641
:101B200004F0EEF94CF203731048059501A9CDE9D4
:101B30000137CDE9034604F0E3F960230C4805952D
:101B400001A9CDE90137CDE9034604F0D9F906B082
:101B5000BDE8F081E8050020003802400014024092
:101B6000000802400018024000100240000C024031
:101B700000040240F0B5044689B01422002103A8F5
:101B800022F02FFF22681E4B9A4236D103F5F6331E
:101B9000002400941A6C1B4842F400221A641A6C48
:101BA00002F400220092009A01941A6B42F00102A2
:101BB0001A631A6B02F001020192019A02941A6BE5
:101BC00042F004021A631B6B03F004030293022524
:101BD0000327082603A9029BCDE90355CDE9067624
:101BE00004F08EF94FF480630748079603A9CDE906
:101BF0000335CDE9054704F083F909B0F0BD00BF16
:101C0000004C0040000002400008024070B588B05F
:101C100000230293204B1A6C42F010021A641B6CD2
:101C200003F010030293054601A903A8029B05F0E7
:101C300053FB069B4BBB05F02FFB184E184B336034
:101C400040F2E733F360174BB0FBF3F3013B7360F3
:101C5000304600233361B360B36106F07BF904467C
:101C600080B9304606F04CF8044658B9362003F0E7
:101C700061FE0F2D0DD822462946362003F028FE9E
:101C8000094B1D60204608B070BD05F005FB400003
:101C9000D3E70124F6E700BF00380240EC0500203E
:101CA0000010004040420F00840000207047FEE713
:101CB000FEE7FEE7FEE77047014806F05FB800BFA9
:101CC000EC050020014804F08FBF00BFA4040020F1
:101CD000014803F079BE00BFA0050020012004F0F8
:101CE00007BA08B54FF4805004F002FABDE8084086
:101CF0004FF4005004F0FCB9042004F0F9B90820B6
:101D000004F0F6B90120704708B522F00DFF162344
:101D100003604FF0FF3008BD08B522F005FF162321
:101D20000360FEE770B50D4614460E46731B9C42D9
:101D300001DC204670BDAFF3008006F8010BF5E72B
:101D400070B50D4614460E46731B9C4201DC2046BE
:101D500070BD16F8010BAFF30080F5E74FF0FF30D0
:101D600070474FF400534B600020704701207047CC
:101D7000002070470A4A116808B5034609B90949A5
:101D800011601068694603448B4206D922F0CCFEEC
:101D90000C2303604FF0FF3008BD1360FCE700BF69
:101DA0003406002000650120704708B500F0BEFD34
:101DB000BDE8084000F040BD00F0BABD704710B566
:101DC0000421044621F0CAFC204610BD38B50C4B56
:101DD0000C4C18800C4B822019806368984740F6A1
:101DE000110398420AD1094D23682C60822098473C
:101DF0002B688220DB689847002038BD0120FCE773
:101E00004206002054000020400600204406002026
:101E10004FF4A071F020FFF7D9BF0000F7B5394D9E
:101E20002B6804461B6982209847208000284ED0EA
:101E30002B680DF106025B6901A982209847324B9D
:101E40001B78002B4BD0BDF8062040F674639A42F5
:101E50003FD9ADF80630BDF806209B1A9BB20A2B7D
:101E600042D90B22B3FBF2F3284A1288934201D9DC
:101E7000013A93B2BDF80420254840F6B8318A42B1
:101E800034D8C2F571620E32016892B20F25B2FBEE
:101E9000F5F2204D2D88AA4284BF05F1FF35AAB284
:101EA0008A4215468EB22AD9921B91B21A4E3768D1
:101EB000BB42BAB28CBF9A1AD21A92B21144052907
:101EC000C4BF05603360036863803368A38003B0D8
:101ED000F0BDB32A9CBFB422ADF80620BBE7BDF825
:101EE0000630A3F5B473B9E70023C3E7C2F56D620A
:101EF000083292B20E2A0168C8D800252A46891AEB
:101F000089B2D3E744060020B80300204006002031
:101F10003C060020420600203806002037B56846FF
:101F20000D461446FFF77AFFBDF8000030B1BDF84A
:101F300002302B60BDF804302360012003B030BDB7
:101F4000032821D8DFE800F0020B12190F4B1A68A2
:101F5000B2FA82F2520904210D4804F0BBB80B4BCF
:101F60005A68B2FA82F252090821F5E7074B9A68DB
:101F7000B2FA82F252091021EEE7044BDA68B2FAA3
:101F800082F252092021E7E7704700BF480600208F
:101F900000100240032821D8DFE800F0020B1219DC
:101FA0000F4B1A68003A18BF012204210D4804F0B3
:101FB00091B80B4B5A68003A18BF01220821F5E787
:101FC000074B9A68003A18BF01221021EEE7044B34
:101FD000DA68003A18BF01222021E7E7704700BF06
:101FE000480600200010024003280DD8DFE800F06A
:101FF0000206080A0421054804F071B80821FAE72E
:102000001021F8E72021F6E7704700BF00100240DA
:1020100008B5032811D8DFE800F0020A0C0E0421ED
:10202000074804F051F8431E5842584108BD0821A2
:10203000F6E71021F4E72021F2E70020F3E700BFE4
:102040000010024070B5084D00240126E0B2FFF7F1
:10205000DFFF18B12B68012B18BF2E600134052C4F
:1020600005F10405F2D170BD48060020012380F877
:10207000781080F879307047704700207047000072
:10208000034B4164003918BF01211970704700BF2C
:10209000BF570120704700207047836B0BB1084683
:1020A000184770474FF6FF707047406803689B6998
:1020B00018477047704770477047704710B504461F
:1020C00000F04CFD23680349D3F890302046BDE86A
:1020D00010401847000000D008B503680446D3F844
:1020E0008430984723682046DB6F984700F0ECF86F
:1020F000236820465B6F98472920FEF749FE00F0D1
:10210000E3F8236820465B6F9847F8E710B504466C
:1021100009F0E6FC23682046D3F8BC30BDE8104047
:10212000184700F0FFBC00F003BD00F035BD00F023
:10213000D5BC00F045BD00F04DBD00F0D9BC08F0A5
:10214000FDBE10B58421044621F008FB204610BDD9
:1021500010B590F8341090F878400C4B8C421A78F7
:1021600009D03AB90A4A0B491488088810800C80B3
:1021700001221A7010BD002AFCD0054A05491488B6
:10218000088810800C800022F3E700BFB8570120B8
:10219000B4570120B657012070B50D46194635B920
:1021A000094B0A4A0A4840F2FF2122F013FAC0E91B
:1021B0000F52084B003A18BF01221A700368BDE89D
:1021C0007040D3F890301847665802089E580208AD
:1021D000EC580208BE57012008B5094B1B888B42FA
:1021E00003D8084B1B88934205D9074B074A084878
:1021F000A32122F0EFF9074B1980074B1A8008BD85
:10220000B4570120B65701203159020894590208E9
:10221000EC580208BA570120BC570120034690F839
:102220007A0018B1586803681B68184770470000A7
:10223000012108B50022084606F0AAF90A4B1860E9
:1022400028B90A4B0A4A28210A4822F0C3F9002279
:102250000421012006F044FA074B186018B9074B17
:10226000034A2C21F0E708BD5C060020D75902087C
:10227000205A02084F5A020858060020B95A02088C
:10228000024B4FF0FF31186806F0CCB95C06002015
:10229000014B186806F0F2B95C060020024B0021E1
:1022A000186806F0BFB900BF5C060020FFF7F0BF5A
:1022B00003480449006800231A4606F04CBA00BFE0
:1022C000580600201400002013B5084C00231A46BD
:1022D00001A9206806F070FA20684FF0FF33002251
:1022E00001A906F069FA02B010BD00BF580600202F
:1022F00003685B6C18470120704703689B6A1847A6
:10230000FEE740F2EF307047054B0360054B4FF09E
:102310008062C3F88820BFF34F8FBFF36F8F704781
:102320001C69020800E100E010B504464FF45A6150
:10233000FFF7EAFF204621F011FA204610BD000009
:1023400082B0002301930E4B1A6B42F400021A6311
:102350001A6B02F400020192019A1A6942F4000217
:102360001A611A6922F400021A61064B064A1A61C0
:10237000064A5A61064B4FF080629A6002B070477D
:1023800000380240A0050020E125000801230008D4
:1023900000E100E008B50A2809D8DFE800F00610DF
:1023A0000E080808081010101000022008BD054B88
:1023B000054A0648902122F00DF90020F6E7012099
:1023C000F4E700BFFB5A0208165B0208615B0208D3
:1023D00038B50C46887FFFF7DDFFA58AE28A164BE9
:1023E0002169586342EA05425A64628BD963521BE1
:1023F0001A642568082D0ED19A611A615862207FEF
:102400000E4A42EA0062DA61E2681A620C4A5961D5
:10241000D9601A6038BD0022D8611A61E1680A0AE1
:10242000480902F4784200F4FC600243C1F3C4019D
:102430000A439A63034AECE700B002400900010036
:10244000012302000123030008B50B280BD8DFE8A5
:1024500000F00612100A0A0A0A08080808080220F2
:1024600008BD0520FCE7054B054A06486F2122F010
:10247000B1F80020F4E70120F2E700BFFB5A0208A0
:10248000C95B0208615B02082DE9F04191F81D80EB
:102490000C464046FFF7D8FFA77F05463846FFF7B2
:1024A000D3FF06463846FFF775FFA18A628B444B7F
:1024B000521A1A649A61228B521A1A61E28A58637C
:1024C00042EA01425A6421696268D963DA6020688D
:1024D000802828D0227F0FD8202867D0402865D0B8
:1024E00004281AD0364B45EA026545F40035B84554
:1024F000DD6161D0334A44E0B0F5807F04D0B0F5AF
:10250000007FEFD1304800E0304840EA0262DA61F3
:10251000E2681A625E62596132E045EA026242F4A0
:102520000032DA61F6E7A068021DDA62227F45EA2E
:10253000026545F40035DD615E625961017841B1A3
:10254000012921D0224B234A23484FF48D7122F0D8
:1025500041F8DA69418822F47F42013922F0100201
:1025600042EA0122DA610121154BDA6942F02002C8
:10257000DA61DA699206FCD410229A600029B9D097
:10258000164A1A60BDE8F081B2F1FF01DA694088AD
:1025900022F47F4200F1FF3022F0100242EA0022D2
:1025A00042F0100218BF0121DA61DDE745EA02625C
:1025B000034B42F40032B4E742F20132E1E700BFDC
:1025C00000B0024001230100090002000A000200DD
:1025D000135C02082D5C0208615B02080123020003
:1025E000024B1B68586803685B691847C057012095
:1025F00070B5044625460A4B0C30002660602672F2
:10260000667245F8203B6022294609F0BFFB04F5BD
:102610005A63EE6024359D42FBD1204670BD00BF59
:102620001C690208034B1A68D207FCD423229A6063
:10263000704700BF00B002407047000030B50F4C3B
:102640002568ED07FCD423250904A56041F00101AC
:102650000225FF2B65636164E0630AD00849656267
:1026600041EA0363E361074B22626061E06023603B
:1026700030BDE561039BA363034BF8E700B0024064
:1026800009000100010002000100030030B50E4CFA
:102690002568ED07FCD423251204A56042F0010251
:1026A0000225FF2B65636264E063E16008D01B06CE
:1026B00043F00213E361054B65626061236030BD46
:1026C000034BE3610123F9E700B00240010002007F
:1026D000020002FF30B50B4C2568ED07FCD4232522
:1026E00012041B06A56043F40033022542F00102E8
:1026F00065636264E063E160E361034B65626061AE
:10270000236030BD00B0024001000200012070478C
:1027100014207047142303FB010008307047142372
:1027200003FB0100083070470120704743F2D810C6
:10273000704743F2D81303FB01000830704743F29F
:10274000D81303FB010008307047012070471020A8
:10275000704700EB01100830704700EB01100830A3
:102760007047084600F0EABC10B5034B036004460E
:1027700008F03BF9204610BDD469020810B50446A4
:10278000FFF7F2FF20461C2120F0E8FF204610BD95
:1027900010B5034B0360044608F027F9204610BD2E
:1027A000A069020810B50446FFF7F2FF204643F285
:1027B000E01120F0D3FF204610BD000010B5034B00
:1027C0000360044608F011F9204610BD6C69020848
:1027D00010B50446FFF7F2FF2046182120F0BEFF97
:1027E000204610BD10B5094B0360044600F5485063
:1027F0000C30FFF7B9FF04F12C00FFF7C9FF04F11B
:102800001400FFF7DBFF204610BD00BF086A020876
:1028100008B50248FFF7E6FF08BD00BF38150020E5
:1028200010B50446FFF7DEFF204643F2903120F05A
:1028300095FF204610BD00002DE9F34100F0C2FADB
:10284000054600F0C3FA00240146234628462246E6
:10285000009411F0D1FE274B274A1A60204602F05F
:1028600039F8264D264B274A27489A6011F02CFE4E
:102870002B68BFF35B8FDB0736D4284620F070FF50
:1028800090B3224C224F234B236007F1280604F11A
:10289000140004F12C086060C4F80880E760266129
:1028A00008F0A4F81C4B6361404608F09FF81B4BEE
:1028B000E362384608F09AF804F5405303F50A70CD
:1028C000174AC3F80C2202F089F8224607F11C01CE
:1028D000304602F079F8304600F030FC114821F023
:1028E00097FE284620F048FF0F4802B0BDE8F041AF
:1028F000FFF7E4BB24580120E40600203415002033
:1029000004070020E80600201800002038150020E9
:1029100044470020086A02086C690208A06902089E
:10292000D4690208112800086006002070470000E2
:102930000148FFF7D1BB00BF6006002070B5264EEE
:10294000264C274D274B23603046FFF751FE284683
:1029500016F058FF24480FF02DFB244B2448DC6070
:1029600000224FF48071C3E9121222491A86C3E98A
:102970001A12214983F85820C3E91E011F49C3F8E0
:1029800080101F491F480B60F021C3E90422C3E9EE
:102990000622C3E90822C3E90A22C3E90E22C3E9D9
:1029A0001022C3E91422C3E917225A6683F8702063
:1029B0005A67C3E9016501801348018013484FF449
:1029C000A07101801248018012490A70012283F827
:1029D0003420114A1A6070BD900700203015002085
:1029E0000407002018680208E8060020600600209E
:1029F0000000010101000001000450001A00140051
:102A0000C0570120B4570120BA570120B657012002
:102A1000BC570120B8570120306802080148FFF771
:102A200073BC00BF90070020002070478180704772
:102A3000C18070470181704741817047704770477E
:102A400070477047704710B4C4880368121B8488AD
:102A50005B6D091B12B25DF8044B09B218474FF6C3
:102A6000FF7383814FF0FF3303621368C36110600B
:102A70007047002070478B88838001207047704723
:102A800080F82610704790F82600704710B5002295
:102A9000B1F90840B1F90A10028042808480C180F7
:102AA00010BD0022028042808280C2807047017780
:102AB000704780ED080A704780F82410704780F84E
:102AC0002510704701207047983070478C30704750
:102AD000843070477047704770470000034B902266
:102AE00083F85A2383F85823704700BF00E100E0C1
:102AF000094A0A49D3680A48C3F30A03013B9BB257
:102B00000B801169C1F30A01013901801364536B11
:102B100043F001035363704700680140CA48002036
:102B2000C8480020014BD3F8AC0070470068014052
:102B3000024B0122C3F8AC105A6270470068014092
:102B400010B52C21044620F009FE204610BD10B51A
:102B5000BC21044620F002FE204610BD70B504469C
:102B600008F041FA23689D6E0DF094FF014620465F
:102B7000A8472368054AD3F88C502046AC4600236A
:102B8000BDE87040A2F51631604700BF00B004D028
:102B900008F010BA08F01ABA08F0D6B908F045BB28
:102BA00090F8252012B103685B691847704790F8C8
:102BB00025201AB190F8242002B118607047000057
:102BC000034B4FF080629A604FF080729A607047BA
:102BD00000E100E0084B4FF08062C3F88820BFF3AB
:102BE0004F8FBFF36F8F4FF08072C3F88820BFF311
:102BF0004F8FBFF36F8F704700E100E070B5002387
:102C0000124E8380124B0360336893F858200546B8
:102C10000AB1D86C00B998680368DB6A98473368D2
:102C2000B0FA80F4D86C640930B10368DB6A984765
:102C3000002808BF44F001042CB9064B064A074897
:102C40002C2121F0C7FC284670BD00BFC0570120D1
:102C50001C6A02086B5C0208C95C0208025D02087B
:102C600070B5254E3568BFF35B8F15F0010540D177
:102C7000304620F075FD00283BD0204C204B2561CC
:102C800004F13400C4E90035C4E90255E584A562C5
:102C9000A5850FF074FC04F158000AF02DFD194BC6
:102CA000A3652046184B40F8843BFFF7A7FF174B5E
:102CB000C4F884302433C4F88C304FF4C803C4E91A
:102CC00028350023C4F8AC30C4F8B030C4F8B430B0
:102CD000C4F8B8300E480F4BC4F89050C4F89C505C
:102CE000C4F8A850C4F8983021F092FC304620F087
:102CF00043FD024870BD00BFCC480020D0480020F2
:102D0000DC7602083C6A0208B46A0208907602087F
:102D1000D92A00087076020838B5184C23685BB3CE
:102D2000174B184A1B6C11888B4216D1164B198809
:102D300003F0E4FF236893F86A200025013283F84A
:102D40006A2083F87C50FFF7B3FA206808F0C8FEC9
:102D50002846BDE83840FFF7F3B803F0CFFF2468FA
:102D6000236820461B6A9847012384F87C300020A2
:102D7000BDE83840FFF70EB938BD00BFC05701208D
:102D800000680140CA480020C8480020704710B5BC
:102D90000421044620F0E2FC204610BD012908B5BC
:102DA00006D0022908D059B901F0E0FD006808BD3D
:102DB00001F0DCFD4068FAE701F0D8FD8068F6E735
:102DC0000020F4E7004870470C6B020807207047AA
:102DD00013B5002451B1036801948DF8034001AA92
:102DE0009C680DF10303A04702B010BD0846FBE745
:102DF000C0897047008A7047C088704780887047D4
:102E0000807A00F07F007047807AC0097047002008
:102E1000704700009FED010A704700BF00000000EE
:102E2000704710B50821044620F098FC204610BDDC
:102E30007047704700F598730868496803C3704786
:102E4000704770474160704770477047064BC0F845
:102E50004C310023C0F8503100F5A273C0F848018E
:102E6000C0F84031704700BF4933000801230372A6
:102E70007047704770477047704738B505464068DF
:102E80000368DB699847044604B938BDA188AB895B
:102E9000C91A236820461B6B09B29847A469F3E757
:102EA00010B4C26841685410034601EB6200D207B7
:102EB00048BF0A599B685DF8044B48BFD358184770
:102EC0000346406830B19A681AB9D86800F001002A
:102ED00070470120704710B50C21044620F03EFCDD
:102EE000204610BD10B51421044620F037FC2046C2
:102EF00010BD10B51021044620F030FC204610BD56
:102F000010B51021044620F029FC204610BD10B554
:102F10004FF4AE71044620F021FC204610BD10B5E0
:102F20000DF0B8FD0368BDE81040DB6B184710B525
:102F30000DF0B0FD0368BDE810405B6B184710B59D
:102F40000DF0A8FD0368BDE810405B6B184700005A
:102F500013B50446807A637A0130C0B29842A072F9
:102F600005D9012323720023A37202B010BDB4F966
:102F70000C2000210FF06CFFC30707D500284FF687
:102F8000FF73C8BF012313FA80F000B20023ADF82D
:102F90000230B4F91030ADF80030C31AADF8043087
:102FA0000D4BE0811B882082ADF806300DF072FDDC
:102FB000036802AA1B6C12E906009847A37A012B4A
:102FC000D3D1064B1B78002BCFD00DF063FD02B0A0
:102FD000BDE810400DF064BDB6570120BE5701207A
:102FE00037B50546807A6B7A0130C0B29842A87234
:102FF00005D901232B720023AB7203B030BDB5F9A4
:103000000C20B5F90E4000210FF022FFC30707D5B1
:1030100000284FF6FF73C8BF012313FA80F000B2F7
:10302000AB7AE881041B012BA4B206D1174B1B78A5
:103030001BB10DF02FFD0DF033FD154A0023128852
:10304000ADF80230EB891A445B42ADF80430114B05
:10305000ADF800201B88ADF806300DF01BFD0368AD
:1030600002AA12E906001B6C984768680368DB69CE
:1030700098470546002DC0D0A9882B6821442846D2
:103080001B6B09B29847AD69F4E700BFBE5701203A
:10309000B4570120B657012010B50446D0F84001BE
:1030A00058B10368DB68984738B1D4F84001036829
:1030B0009B6898470023C4F8403110BD044B1B683F
:1030C00093F858200AB1D86C00B99868704700BFCF
:1030D000C0570120F8B5174604460E460DF0C4FD52
:1030E000124B1C60124B2360124B0025C4E9513572
:1030F000114BC4E953551868036801219B68C4E962
:103100004F55C4E955769847284601F0E3FBFFF791
:10311000D5FF18F020FAFFF7D1FF18F097FAFFF764
:10312000CDFF18F09FFA2046F8BD00BF14580120CB
:10313000C86B0208B06B0208C0570120064BC0F8EC
:103140004C310023C0F8503100F5A273C0F848019B
:10315000C0F84031704700BF49330008064BC0F843
:103160004C310023C0F8503100F5A273C0F848017B
:10317000C0F84031704700BFE9310008064BC0F885
:103180004C310023C0F8503100F5A273C0F848015B
:10319000C0F84031704700BF59370008064BC0F8EF
:1031A0004C310023C0F8503100F5A273C0F848013B
:1031B000C0F84031704700BFF9350008064BC0F831
:1031C0004C310023C0F8503100F5A273C0F848011B
:1031D000C0F84031704700BF9934000803685B6A4B
:1031E000184703685B6A18472DE9F14FD0E9556A23
:1031F0000746B06803681B6A9847B0F5D27F05D2CE
:10320000484B494AA321494821F0E4F97068036812
:103210001B6A98470F2803D8454B434AA421F2E77D
:10322000F06803681B6A9847132803D8414B3E4A4D
:10323000A521E8E70DF02EFCDFF8049104300DF035
:1032400076FCD9F8000010B10368DB689847D9F81C
:10325000000010B103681B689847DFF8E880D8F8D1
:10326000000010B103685B699847D7F83C0110B1C2
:1032700003685B689847D8F8000010B103681B68C2
:103280009847D7F83C0110B103689B689847F068ED
:10329000036800215B6A9847274B03604FF4A053F3
:1032A0000381264B4FF0000B1B8880F80AB00446C0
:1032B00083815946C0F804B0A0F80EB0A0F810B051
:1032C000B068FFF78BFF054601F0DAFB59467068DE
:1032D000FFF787FF2946064601F0AEFB331DC7F80E
:1032E0003C61CAF804302B68C6F808A02846DB68A1
:1032F000C9F80040C8F80050EE639847336830467C
:103300001B689847214628460FF09CFD23682046FD
:103310001B69984723685B69204601B0BDE8F04F00
:10332000184700BF645D0208F25D0208D65E02081D
:103330001D5F0208C05F0208646C0208B4570120D8
:1033400008580120045801202DE9F14FD0E9556AB1
:103350000746B06803681B6A9847B0F5D27F05D26C
:10336000434B444AA321444821F034F97068036870
:103370001B6A98470F2803D8404B3E4AA421F2E726
:10338000F06803681B6A98470B2803D83C4B394AFE
:10339000A521E8E70DF07EFBDFF8EC9004300DF09E
:1033A000C6FBD9F8000010B10368DB689847D9F86C
:1033B000000010B103681B689847DFF8D080D8F888
:1033C000000010B103685B699847D7F83C0110B161
:1033D00003685B689847D8F8000010B103681B6861
:1033E0009847D7F83C0110B103689B689847F0688C
:1033F000036800215B6A98474FF0000B214B036084
:1034000004465946C0F804B080F808B0B068FFF729
:10341000E5FE054601F034FB59467068FFF7E1FE12
:103420002946064601F008FB331DC7F83C61CAF87F
:1034300004302B68C6F808A02846DB68C9F80040AD
:10344000C8F80050EE639847336830461B689847C9
:10345000214628460FF0F6FC236820461B69984752
:1034600023685B69204601B0BDE8F04F184700BFF4
:10347000645D020863600208D65E02081D5F0208F0
:10348000C05F02081C6C0208085801200458012083
:1034900003685B6A184700002DE9F14FD0E9556ACF
:1034A0000746B06803681B6A984743F2D7139842EF
:1034B00005D8484B484AA321484821F08BF870684A
:1034C00003681B6A98470F2803D8454B424AA4213A
:1034D000F2E7F06803681B6A98470F2803D8414B4E
:1034E0003D4AA521E8E70DF0D5FADFF80491043054
:1034F0000DF01DFBD9F8000010B10368DB68984798
:10350000D9F8000010B103681B689847DFF8E48021
:10351000D8F8000010B103685B699847D7F83C0100
:1035200010B103685B689847D8F8000010B10368D1
:103530001B689847D7F83C0110B103689B6898470F
:10354000F0680021FFF7A4FF274B03604FF4A0535E
:103550000381264B1B884FF0000B80F80AB05B42BA
:103560000446C0F804B0A0F80EB08381B0680368C8
:1035700059465B6A9847054601F0ACFD70680368E0
:1035800059465B6A98472946064601F057FB331DAA
:10359000C7F83C61CAF804302B68C6F808A0284672
:1035A000DB68C9F80040C8F80050EE6398473368FC
:1035B00030461B689847214628460FF043FC236895
:1035C00020461B69984723685B69204601B0BDE827
:1035D000F04F1847645D020835610208D65E0208A4
:1035E0001D5F0208C05F0208406C0208B45701204A
:1035F00008580120045801202DE9F14FD0E9556AFF
:103600000746B06803681B6A9847B0F5EA7F05D2A1
:10361000484B494AA321494820F0DCFF7068036801
:103620001B6A98470F2803D8454B434AA421F2E769
:10363000F06803681B6A98470F2803D8414B3E4A3D
:10364000A521E8E70DF026FADFF8049104300DF02B
:103650006EFAD9F8000010B10368DB689847D9F812
:10366000000010B103681B689847DFF8E880D8F8BD
:10367000000010B103685B699847D7F83C0110B1AE
:1036800003685B689847D8F8000010B103681B68AE
:103690009847D7F83C0110B103689B689847F068D9
:1036A0000021FFF7F5FE284B03604FF4A053038180
:1036B000264B1B884FF0000B80F80AB05B42044693
:1036C000C0F804B0A0F80EB08381B0680368594612
:1036D0005B6A9847054601F097FA70680368594697
:1036E0005B6A98472946064601F00CFA331DC7F875
:1036F0003C61CAF804302B68C6F808A02846DB688D
:10370000C9F80040C8F80050EE6398473368304667
:103710001B689847214628460FF094FB23682046F3
:103720001B69984723685B69204601B0BDE8F04FEC
:10373000184700BF645D02081A620208D65E0208DC
:103740001D5F0208C05F0208406C0208B4570120E8
:1037500008580120045801202DE9F14FD0E9556A9D
:103760000746B06803681B6A9847B0F5D27F05D258
:10377000474B484AA321484820F02CFF7068036853
:103780001B6A98470F2803D8444B424AA421F2E70A
:10379000F06803681B6A98470F2803D8404B3D4ADE
:1037A000A521E8E70DF076F9DFF8009104300DF07F
:1037B000BEF9D9F8000010B10368DB689847D9F862
:1037C000000010B103681B689847DFF8E480D8F860
:1037D000000010B103685B699847D7F83C0110B14D
:1037E00003685B689847D8F8000010B103681B684D
:1037F0009847D7F83C0110B103689B689847F06878
:103800000021FFF745FE274B03604FF4A0530381CF
:10381000254B1B884FF0000B5B4280F80AB0044632
:1038200083815946C0F804B0A0F80EB0B068FFF725
:10383000D5FC054601F024F959467068FFF7D1FC24
:103840002946064601F0F8F8331DC7F83C61CAF86E
:1038500004302B68C6F808A02846DB68C9F8004089
:10386000C8F80050EE639847336830461B689847A5
:10387000214628460FF0E6FA236820461B69984740
:1038800023685B69204601B0BDE8F04F184700BFD0
:10389000645D0208FF620208D65E02081D5F02082E
:1038A000C05F0208406C0208B4570120085801208C
:1038B00004580120406A7047806A704770478A88C0
:1038C0000B8810B5D20A4C88C1699BB251F822000E
:1038D00043EA0443184410BD10B50446BAB1107B46
:1038E00068B1537BD27A1B0203F4E0631A43236A64
:1038F00003EB82031A888A4202D193F9020010BDB9
:1039000005D8013880B204330028F3D1F7E700204E
:10391000F5E710B52C2104461FF020FF204610BD0E
:1039200030B58BB00446BDF860500895BDF85C50CA
:1039300007959DF8505006959DF84C5005959DF8BB
:10394000485004959DF8445003959DF840500295C9
:103950009DF83C500195BDF8385000950EF0CCFE16
:10396000064B2360159BE361169B2362199B6362E0
:103970001A9BA36220460BB030BD00BF886C0208C2
:103980007047704770477047704730B5036885B01F
:103990006D460181D3F88430014604462846984795
:1039A00095E807003C3484E8070005B030BD30B529
:1039B000036885B06D464181D3F8843001460446E2
:1039C0002846984795E807003C3484E8070005B08E
:1039D00030BD0022028042808280C280704780F821
:1039E0003610704770B5036804461B6B1546984740
:1039F0002368294620465B6EBDE8704018470020CA
:103A00007047806C7047704770477047704730B49C
:103A1000C26844685510034604EB6200D20748BFF1
:103A200062599B6830BC48BFD3581847034640686A
:103A300030B19A681AB9D86800F0010070470120C7
:103A4000704710B54C2104461FF088FE204610BD7B
:103A500010B5102104461FF081FE204610BD10B5A0
:103A60004FF4D07104461FF079FE204610BD08B512
:103A7000FFF796F808BD0000036870B55E6B124B47
:103A80001B6804468DB22BB9104B114A6C211148AA
:103A900020F0A0FD1049828D0988914203D80F4B78
:103AA0000B4A6D21F3E713F812200D4B1B6853F8F6
:103AB000220003681B6B9847291A3346204609B237
:103AC000BDE87040184700BF18580120E4630208A1
:103AD00026640208616402081C580120A8640208D8
:103AE0002058012000F5A470884208B505D10CF0DB
:103AF000D1FFBDE80840FFF751BB08BD00224FF0E1
:103B0000FF31C0E900218260704770B50368044648
:103B10001B6B154698472368294620465B6BBDE81A
:103B20007040184770B504461D46BDF91060FFF798
:103B3000ECFF2368294620469B6B98472368314653
:103B40002046DB6BBDE87040184700000022C0E94A
:103B50000122C0E90322C0E90522C0E907224FF48F
:103B600080728284014A0260704700BFF06C0208D4
:103B700010B526220446002120F033FF2046FFF72F
:103B8000E5FF0A4B23600A4BA3624FF6FF73A38540
:103B90004FF47F020023C4E90C3223874FF0FF3239
:103BA000C4E91023E363204610BD00BFA0770208DC
:103BB000A06B02082DE9F04F04468BB02646002585
:103BC0000EF094FF7E4BE56346F8403B29462622E3
:103BD000304620F006FF3046FFF7B8FF794B2364EC
:103BE00004F16C0BFF2304F1B40A84F86630A56677
:103BF0005846FFF7BDFF04F1FC095046FFF7B8FF38
:103C00004846FFF7B5FF04F5A4786F4BC4F8FC30C5
:103C100029462622C4F84451404620F0E2FE4046A0
:103C2000FFF794FF012384F86C31684BC4F84831E6
:103C30004FF6FF73A4F87631A4F8783184F87A311E
:103C4000634BC4F87051C4E96434624B84F8745116
:103C5000C4E966354FF4A0732A46294630460093DE
:103C6000F023FFF75FFF271D4FF07F43A366314628
:103C7000384606F0CDFE0A2206215846FFF745FFDA
:103C800002AE554BC4F89C30A4F8A05059463046BB
:103C900009F030FE96E8070004F1A80383E8070066
:103CA0004E4B089308A908235846ADF824300AF073
:103CB000C9F85946384606F0ABFE5D22342150461D
:103CC000FFF723FF464BC4F8E430A4F8E850514610
:103CD000304609F00FFE96E8070004F1F00383E890
:103CE00007003E4B089308A907235046ADF824303F
:103CF0000AF0A8F85146384606F08AFE29237722B2
:103D0000294600934846F023FFF70CFF354BC4F8D3
:103D10002C31D4F8FC30A4F83051D3F88430494623
:103D20003046984796E8070004F59C7383E807003F
:103D30002D4B1B6804F5BE752BB92C4B2C4A60210A
:103D40002C4820F047FC2C4B1B88052B03D82B4B11
:103D5000274A6121F4E72A4B0521186800F0F6FD97
:103D6000284A03460A21284610F0A0FB1B4BC4F842
:103D7000445108A9062548460893ADF824500AF096
:103D800061F84946384606F043FE4046D0221421E9
:103D9000FFF7BBFE08AA07A94046ADF81C50ADF8D6
:103DA00020500AF0ADF804F5C8733846C4F87031F5
:103DB000414606F02DFE20460BB0BDE8F08F00BF57
:103DC000006E020830780208586D020898780208E0
:103DD000E86D0208E53A00080AD8FCFFA06B02086B
:103DE0000C0CF5FF0000FFFF18580120E4630208E7
:103DF000E6640208616402081C580120A8640208F5
:103E00002458012031650208806A70477047704766
:103E100070477047704770477047704730B4C2684A
:103E200044685510034604EB6200D20748BF62594C
:103E30009B6830BC48BFD35818470346406830B130
:103E40009A681AB9D86800F00100704701207047DD
:103E500030B4C26844685510034604EB6200D207D0
:103E600048BF62599B6830BC48BFD35818470346C7
:103E7000406830B19A681AB9D86800F001007047FC
:103E80000120704790F82D3080F86030704710B5F1
:103E9000642104461FF062FC204610BD10B51021BD
:103EA00004461FF05BFC204610BD10B510210446EF
:103EB0001FF054FC204610BD10B54FF4EA710446C3
:103EC0001FF04CFC204610BD0146383091F82C30D4
:103ED00013B136310AF0E2B93431FBE700F1E803FF
:103EE000994270B504460D4607D10CF0D3FDFFF79B
:103EF00065F923682046DB6A984704F1B4039D42C4
:103F000007D10CF0C7FDFFF759F9236820461B6B5A
:103F1000984704F58E739D4209D10CF0BBFDFFF765
:103F20004DF9236820465B6BBDE87040184770BDB3
:103F300010B50446006B50B10368DB68984730B198
:103F4000206B036821469B68BDE81040184710BDF0
:103F50000B7970B590F82C6004460D460BB916B17C
:103F600070BD002EFCD0B3FA83F35B0984F82C30CB
:103F700023682046D3F88C309847236820465B6935
:103F80009847002EECD02B79012BE9D123682046ED
:103F9000D3F88830BDE87040184700F5A870884213
:103FA00008B505D10CF076FDBDE80840FFF7D6B89E
:103FB00008BD0B882DE9F04183861388B0F90850BD
:103FC000C38604461046904610F02AFBB4F90A3026
:103FD000074603EBD3734046C3F34F0610F054FB80
:103FE00005EBD575C5F34F0500EBD07007EBD77720
:103FF000A6EB6002A5EB670104F1380012B209B22A
:10400000FFF783FD23682046D3F88C30BDE8F041EC
:104010001847000010B526220446002120F0E1FCDC
:104020002046FFF793FD0023A36284F82C30012380
:1040300084F82430044B23604FF6FF7384F8323049
:10404000E3852386204610BD987802084FF47F430D
:1040500073B50546838540F2011300218384174B15
:104060008162C0E90111C0E90311C0E90511C0E98D
:10407000071145F8383B4FF0FF3304462622016311
:1040800043634FF6FF762846ADF8046020F0A9FCA4
:104090002846FFF75BFD0A4BA363BDF80430A4F884
:1040A0005E3001A9284684F860600AF0F7F82046DF
:1040B000294606F0ADFC204602B070BD346E020801
:1040C000747902082DE9F04F04468DB0A046002512
:1040D0000EF00CFD754BE56348F8403B2626324652
:1040E0002946404620F07DFC4046FFF72FFD704BEF
:1040F000236404F16C07FF232946324684F86630B6
:10410000A566384620F06DFC3846FFF71FFD694B69
:10411000E366694BC4F894304FF6FF73A4F8983007
:104120004FF47F0304F1B40BC4F8A0304FF0FF3319
:10413000C4E92B3504F1E80AC4F89C50A4F8A45053
:10414000C4F8A8505846FFF765FF04F58E7950462D
:10415000FFF760FF4846FFF75DFF04F5A8721046C1
:104160000392FFF773FF554BC4E96D34544BC4E918
:104170006F35544BC4E97134534BC4E973354FF474
:10418000A0732A46009329464046F023FFF7CAFC55
:10419000261D4FF07F43A3664146304606F038FCAB
:1041A0000A2238464421FFF7B0FC0DF11008474BB6
:1041B000C4F89C3039464046A4F8A05009F09AFB58
:1041C00098E8070004F1A80383E807004FF004080B
:1041D000394B0A930AA93846ADF82C8009F032FE13
:1041E0003946304606F014FC58464B221421FFF79E
:1041F0008CFC04F5DA7702230AAA09A95846ADF81F
:104200002430ADF8283009F07BFE59463046C4F81A
:10421000DC7006F0FDFB5046EB221421FFF775FC25
:104220000AAA09A95046ADF82480ADF8288009F003
:1042300067FE51463046C4F8107106F0E9FB484667
:104240009B221421FFF761FC05230AAA09A948460D
:10425000ADF82430ADF8283009F052FE494630461A
:10426000C4F8447106F0D4FB01230398ADF8243060
:104270000AAA09A9ADF82830FFF79BFE04F5E273FE
:10428000C4F8803122230398C4F88C514FF48F7204
:104290000093CF212123FFF745FC3046039906F018
:1042A000B7FB20460DB0BDE8F08F00BF046F0208D9
:1042B00030780208A0770208A06B0208D46E0208CA
:1042C000DD3E0008EC6E02089B3F0008D6C3C4FF29
:1042D00070477047704730B4C26844685510034651
:1042E00004EB6200D20748BF62599B6830BC48BFEC
:1042F000D35818470346406830B19A681AB9D8684D
:1043000000F0010070470120704710B510210446ED
:104310001FF024FA204610BD10B54FF40A71044670
:104320001FF01CFA204610BD9830884208B505D110
:104330000CF0B0FBBDE80840FEF720BF08BD000050
:1043400038B5262204460D46002120F04AFB2046BF
:10435000FFF7FCFB064B23602B88E384FF232046FA
:1043600084F82830294609F099FF204638BD00BF5F
:10437000747902082DE9F04F04468DB027460025D8
:104380000EF0B4FBA34BE56347F8403B26222946D9
:10439000384620F026FB3846FFF7D8FB9E4B2364B7
:1043A00004F16C0BFF234FF6FF7684F866300AA900
:1043B0005846A566ADF82860FFF7C2FF4FF47F436B
:1043C000A4F8C43040F20113A4F8BC30934BC4F8F5
:1043D000983004F1D0084FF0FF3304F1980AC4F884
:1043E000CC300AA94046C4E92755C4E92955C4E997
:1043F0002B55C4E92D55C4F8C050C4F8C850ADF8C9
:10440000283004F1FC09FFF79BFF4146504606F0B7
:10441000FFFA04F5A2784846FFF7AAFB4046FFF7EB
:10442000A7FB04F5C67318460293FFF7A1FB7C4B6C
:10443000C4F88C3104F5EC730AA91846C4F8D451B9
:104440000393ADF82860FFF77BFF764BC4E9863411
:10445000754BC4E988354FF4A0732A46384600935B
:104460002946F023FFF75EFB261D4FF07F43A3662E
:104470003946304606F0CCFA2A4658462946FFF718
:1044800044FB58460AA9ADF8285009F007FF5946E1
:10449000304606F0BDFA4FF0010B50460AAA09A9B2
:1044A000ADF824B0ADF828B0FFF783FD04F506732E
:1044B000C4F8C83020234FF490725046C4F8D4504A
:1044C000D0210093FFF72EFB5146304606F0A0FAAC
:1044D0003622BF214846FFF718FB04AF534BC4F800
:1044E0002C3138464946A4F8305109F003FA97E8D0
:1044F000070004F59C7383E80700DFF85CA1CDF8A2
:1045000028A04FF003030AA94846ADF82C3009F063
:1045100099FC4946304606F07BFA8822B72140468E
:10452000FFF7F3FA424BC4F8743138464146A4F819
:10453000785109F0DFF997E8070004F5C07383E8C4
:10454000070002230AA94046ADF82C30CDF828A078
:1045500009F078FC4146304606F05AFA2E23A8228C
:104560000298009368218823FFF7DCFA314BC4F8E6
:10457000BC31D4F88C310299D3F88430A4F8C051FE
:104580003846984797E8070004F5E47383E8070086
:10459000294B1B6804F501772BB9284B284A602169
:1045A000284820F017F8284B1B881BB9274B244AB2
:1045B0006121F5E7264B2946186800F0C7F9254A1E
:1045C00003460A2138460FF071FF0298C4F8D471EF
:1045D0000AA9CDF828A0ADF82CB009F033FC029957
:1045E000304606F015FA362203982946FFF78DFA71
:1045F0004FF003030398ADF828300AA909F04EFEE6
:104600003046039984F8FD5106F002FA20460DB0B9
:10461000BDE8F08F5C6F020830780208346E020843
:10462000586D0208446F020829430008D60BAEFFFC
:10463000C90CB0FF0000FFFF18580120E463020816
:10464000E6640208616402081C580120A86402089C
:104650002458012031650208A06B02087047000051
:1046600030B5184D2C6814F001048FB0BFF35B8F88
:1046700024D128461FF074F800B3134B1349144893
:104680000A94CDE90B433F230993124B0893124B35
:1046900007930123CDE9053304930423CDE90243B5
:1046A0000A23009340F215220D230194FFF738F9F5
:1046B0000A481FF0ADFF28461FF05EF804480FB00F
:1046C00030BD00BF8C490020886F02086053060887
:1046D00090490020D8AA0608B4AD06085D46000837
:1046E0007047000030B5184D2C6814F001048FB0ED
:1046F000BFF35B8F25D128461FF032F808B3134B68
:10470000134914480A94CDE90B433F230993124BF4
:104710000893124B079304220223CDE905320123AB
:10472000CDE90323CDE901341423009340F215228F
:104730001A23FFF7F5F80A481FF06AFF28461FF012
:104740001BF804480FB030BDBC490020886F020838
:1047500088700608C0490020E0AA0608B8AD06081F
:10476000E14600087047000030B5184D2C6814F081
:1047700001048FB0BFF35B8F25D128461EF0F0FFF8
:1047800008B3134B134914480A94CDE90B433F2354
:104790000993124B0893124B079307220423CDE988
:1047A00005320122CDE903322823009340F215227D
:1047B0003323CDE90144FFF7B3F80A481FF028FF7F
:1047C00028461EF0D9FF04480FB030BDEC49002048
:1047D000886F0208B08D0608F04900201CAC06085E
:1047E000BCAD0608654700080020704700207047F0
:1047F0000EB403B503AB002153F8042B01930DF065
:10480000F9F902B05DF804EB03B070470CB407B5DA
:1048100004AB53F8042B01930DF0ECF903B05DF8F1
:1048200004EB02B070470000436C10B5044673B34C
:10483000038F2BB9184B194AC52119481FF0CAFE1E
:10484000C38E00EB43035B8C0BB30FF086F8238F12
:10485000012B03D8134B144ACB21EEE7E28E531CF5
:104860009BB2092B194688BFA3F10A0104EB410151
:1048700040F63F10498C814209D10A2B04EB4202D9
:1048800028BF002304EB4303508C588451842046F6
:10489000BDE810400EF064BF346502083D650208B3
:1048A000E865020832660208406602080EF01FBF83
:1048B00010B586B002AC84E806001A460AAB059330
:1048C0000193099B00932146089B0BF081FC06B0E5
:1048D00010BD000038B518BB124B13481C681349B3
:1048E000B4B1226822440260626822440A60A2686D
:1048F00014440F4B00221A8000F038F8054600F0EF
:1049000033F80C4B1C600C4B1D600C4B188007E0FF
:104910000B4B03600B4B0B600B4B1C68002CE8D15E
:1049200038BD00BF284A0020204A00201C4A002031
:10493000244A002018580120205801201C5801202A
:10494000E4AD0608C0AD060838AE0608044B1B6887
:1049500053F82100034B1B6803EB4000704700BF76
:104960001C4A0020204A0020092070470048704758
:104970002C4A002010B5FFF7B5FE044C2060FFF76D
:10498000F3FE6060FFF76CFEA06010BD2C4A0020B3
:1049900010B5002404600C6014601C6010BD7047EA
:1049A00010B54FF4AE7104461EF0D8FE204610BD7F
:1049B00010B50446D0F8580100F024F82046BDE8B0
:1049C00010400CF011B9000010B50446FEF782FB50
:1049D000014B2360204610BDE873020813B5002385
:1049E0000446C0E90033836001220548019301A910
:1049F000FCF738FE019BA360204602B010BD00BF4B
:104A000000401008036801330360704780687047F6
:104A100083688B42B8BF8160704770470438704725
:104A2000704710B5102104461EF098FE204610BDB8
:104A3000A0F10400F5E7000000228260024A026053
:104A400018324260C16070473C7402088068FFF70A
:104A5000DDBF704710B5034B03600446FEF7D5FF7A
:104A6000204610BD6474020810B50446FFF7F2FF3B
:104A700020464FF4D2711EF071FE204610BD00009A
:104A800010B50446FFF796F8074B23600023C4F8DF
:104A9000A031064B01221A70022211460F20FCF7AA
:104AA00005FA204610BD00BF647402081000002003
:104AB000FEF7ACBFD0F8A031013310B50446C0F802
:104AC000A031C06BFFF7C2FF064A03460A2104F576
:104AD000BE700FF0EBFC04F1FC00BDE810400DF0DF
:104AE000B3B900BF126702087047043870477047B7
:104AF00010B5102104461EF031FE204610BDA0F175
:104B00000400F5E700228260024A02601832426027
:104B1000C1607047987402087047000013B56123A4
:104B20000D4C8DF80730206803F076FE024650B930
:104B300065238DF8073020680A230DF1070103F083
:104B40000AFE02B010BD2068642300220DF10701A7
:104B500003F032FEE7E700BFBC03002013B561237A
:104B60000D4C8DF80730206803F056FE024650B910
:104B70006D238DF8073020680A230DF1070103F03B
:104B8000EAFD02B010BD2068642300220DF1070188
:104B900003F012FEE7E700BFBC03002013B561235A
:104BA0000D4C8DF80730206803F036FE024650B9F0
:104BB00068238DF8073020680A230DF1070103F000
:104BC000CAFD02B010BD2068642300220DF1070168
:104BD00003F0F2FDE7E700BFBC03002010B5034B74
:104BE00003600446FFF718F9204610BDC0740208A0
:104BF00010B50446FFF7F2FF20464FF4EA711EF0AD
:104C0000ADFD204610BD000010B50446FFF75AFA6E
:104C1000014B2360204610BDC0740208FFF7FDB8A9
:104C2000704704387047704710B5102104461EF0D5
:104C300095FD204610BDA0F10400F5E7002282603A
:104C4000024A026018324260C16070470075020873
:104C50008068FFF7DBBE8068FFF7DABE70470000B0
:104C60000E4B70B50546036043F29C1442F65C6639
:104C7000B4420DD140F2BC562B5928191B68343C64
:104C80009847B442F8D12846FFF723FB284670BD69
:104C90002B5928191B689847343CE9E72875020806
:104CA00010B50446FFF7DCFF204643F2D8111EF092
:104CB00055FD204610BD0000094A02604FF4807186
:104CC00000228184FF21C0E90122C0E90322C0E95A
:104CD0000522C0E9072280F826108262704700BFD3
:104CE000307802082DE9F04F89B000F5A963D0F8BB
:104CF0008885D0F88C75039305464FF0000A4FF471
:104D0000027B00F50A760BFB0A544FF0000952466D
:104D100049463046FBF730FF034600284CD04FEAA7
:104D2000032C400100F47C400CF4780CDB0040EADA
:104D30000C00DBB2184340F07F404FF0FF3384F8A3
:104D40001636D4F8F035C4F818065B6904F5BE6071
:104D500009F101099847B9F10A0F04F13404D6D1D9
:104D60000AF1010ABAF1140FCDD13046FBF7FCFE6F
:104D700007AB4FEA102BC4080193C00006AB0093A9
:104D8000039905AB5FFA80FA04AA3046FBF782FD6F
:104D9000069E04F0FC0405EB06190BF0F80B240248
:104DA00009F5A9693E4444EA0B43079AF11B8A427C
:104DB00005DA09B0BDE8F08F4FF07F40BDE7DDF8C0
:104DC00010B04FF402740BEB08027443342101FB62
:104DD00002442C44059A5A4503DA09F110090136B8
:104DE000E3E759F82B20B2B108EB0B02092A12D8DD
:104DF000132E10D843EA0A0242F07F42C4F8182664
:104E0000FF2284F81626D4F8F0250393526904F59E
:104E1000BE609047039B0BF1010B3434DAE72DE9B8
:104E2000F04700F50A7798B005460DF10A0303AA8A
:104E300008A93846FBF784FC002605F53A5909F124
:104E40001009B24609EB06044FF00008236884F805
:104E500026A020465B6908F101089847B8F1040FC5
:104E600004F13404F2D1D036B6F5507FEAD1BDF862
:104E70000A304FEAD328DC08DB00DEB207AB01932F
:104E800006AB0093384605AB04AA08A904F0FC045D
:104E9000FBF700FD4FEAC8082402002744EA084453
:104EA00008AB03EB07194FF0000859F8043B23B394
:104EB000049AA8EB0202032A1FDC069BFB1A032BB1
:104EC0001BDC34214A43D0214B43D118294442F6FC
:104ED000B86C44EA060040F07F4041F80C0042F60E
:104EE000B6604FF0FF0C01F800C042F6906003443A
:104EF00013440A58E8185269904708F10108B8F1BC
:104F0000040FD2D10137042FCAD118B0BDE8F08701
:104F10002DE9F74300F540560446D6F8D05196F8EF
:104F2000D5310135C6F8D05195FBF3F203FB12558C
:104F3000002D40F0C08090F89485B8F1000F61D149
:104F40005E4F386803F068FC04F50A75B8B10A23AF
:104F50003868424601A903F02FFC9DF80430522B1B
:104F600000F0A18000F29480442B00F0A0804C2B34
:104F700000F0958000225248114603F02CFA284692
:104F8000FBF760FDD4F898354E4A0A2104F501700C
:104F90000FF08CFA04F5C6700CF056FFD4F8981593
:104FA000E06BFFF758FE94F89C353BB10022464871
:104FB000114603F010FA002384F89C3594F89435D8
:104FC000BBB196F8D421A2B9012511463F4886F815
:104FD000D45103F000FAD4F89835E06B0193FFF751
:104FE00037FE019B984204D839482A4601A9FCF7AC
:104FF000E1FA2046FFF776FE204603B0BDE8F04315
:10500000FFF70DBFA84642F6A0092E190027D6F8D3
:10501000F03586F8158606F5BE605B69013798475E
:105020000A2F06F13406F2D105F502754D45ECD193
:10503000002604F53A5909F11009374609EB06052F
:105040004FF000082B6885F8257028465B6908F149
:1050500001089847B8F1040F05F13405F2D1D036B4
:10506000B6F5507FEAD1012304F5EC7084F8217184
:1050700084F8697184F8B17184F8FD310CF0E4FEB4
:10508000D4F89815E06B03B0BDE8F043FFF7E3BD3B
:10509000542B7FF46FAF2846FBF738FD6AE72846AC
:1050A000FBF7F2FC66E72846FBF701FD62E72846BE
:1050B000FBF710FD5EE703B0BDE8F083C0030020FE
:1050C000310E000812670208650E0008050F00087F
:1050D000004010082DE9F04F044689B0FFF74AF967
:1050E00004F53A556B4B236004F50A701035DFF870
:1050F000B481FBF79BFB04F5BE6703954FF00009F5
:105100003E463046FFF7D8FD343607F5027346F8C1
:10511000348C46F8089C26F8049C9E42F1D1AE429D
:105120003746EDD104F547561036002705F1D00972
:105130002846FFF7C1FD343545F8348C45F8087C26
:1051400025F8047C4D45F3D1B542EFD100274FF44B
:10515000027A4FF07F4B3A0112B20AFB0746002554
:105160004FF00109102306F5BE60C6F81CB6A6F87C
:10517000209629B2009305920490FEF7D3FC049880
:1051800086F8159604F1040810350146ADB2404684
:1051900005F03EFCA02D059A06F13406E2D1013758
:1051A000142FD8D100274FF05A09BA464FF0010BFF
:1051B000039B0FFA89F2DD19C826082385F826A07B
:1051C000A5F830B031B22846009308360492B6B242
:1051D000FEF7A8FC85F825B02946404605F018FCE6
:1051E000E82E049A05F13405E7D1D03709F1080912
:1051F000B7F5507F1FFA89F9DAD1274B84F8FDA162
:1052000004F5405503221A7085F8D4A10122022129
:105210000F20FBF74BFE214E61238DF81F303068C5
:1052200003F0FAFAF0B914231D4E85F8D531306831
:1052300003F0F2FA01281DD8306803F0EDFA30B11E
:1052400030680A2300220DF11F0103F0B5FA9DF822
:105250001F30652B16D1142385F8D531204609B0AF
:10526000BDE8F08F30680A2300220DF11F0103F022
:10527000A3FAD4E730680A2300220DF11F0103F0DE
:105280009BFAD4E76D2B01D10F23E5E7682BE5D11D
:105290000A23E1E72875020810000020C00300205F
:1052A000BC0300200C79020810B50446FFF712F881
:1052B00004F50A70FBF797FA04F540520023C2F890
:1052C000D03104F5EC7084F8FD31BDE810400CF0ED
:1052D000BBBDF02070474FF4A07070472920FBF74A
:1052E00057BD2820FBF754BD08B5FBF725FDCA20A4
:1052F000FBF74EFDC320FBF72FFD0820FBF72CFD2D
:105300005020FBF729FDCF20FBF742FD0020FBF7E3
:1053100023FDC120FBF720FD3020FBF71DFDED2014
:10532000FBF736FD6420FBF717FD0320FBF714FDA8
:105330001220FBF711FD8120FBF70EFDE820FBF7A3
:1053400027FD8520FBF708FD0020FBF705FD7820F1
:10535000FBF702FDCB20FBF71BFD3920FBF7FCFC24
:105360002C20FBF7F9FC0020FBF7F6FC3420FBF7C0
:10537000F3FC0220FBF7F0FCF720FBF709FD2020EF
:10538000FBF7EAFCEA20FBF703FD0020FBF7E4FC57
:105390000020FBF7E1FCB120FBF7FAFC0020FBF753
:1053A000DBFC1B20FBF7D8FCB620FBF7F1FC0A2046
:1053B000FBF7D2FCA220FBF7CFFCC020FBF7E8FCF8
:1053C0001020FBF7C9FCC120FBF7E2FC1020FBF723
:1053D000C3FCC520FBF7DCFC4520FBF7BDFC15201A
:1053E000FBF7BAFCC720FBF7D3FC9020FBF7B4FC1B
:1053F0003620FBF7CDFCC820FBF7AEFCF220FBF714
:10540000C7FC0020FBF7A8FCB020FBF7C1FCC220C2
:10541000FBF7A2FCB620FBF7BBFC0A20FBF79CFCC9
:10542000A720FBF799FC2720FBF796FC0420FBF74D
:1054300093FC2A20FBF7ACFC0020FBF78DFC00203E
:10544000FBF78AFC0020FBF787FCEF20FBF784FCCE
:105450002B20FBF79DFC0020FBF77EFC0020FBF7D8
:105460007BFC0120FBF778FC3F20FBF775FCF62066
:10547000FBF78EFC0120FBF76FFC0020FBF76CFCB8
:105480000620FBF769FC2C20FBF782FCC820FBF709
:10549000CDFC2620FBF77CFC0120FBF75DFCE02027
:1054A000FBF776FC0F20FBF757FC2920FBF754FC99
:1054B0002420FBF751FC0C20FBF74EFC0E20FBF7E1
:1054C0004BFC0920FBF748FC4E20FBF745FC7820FD
:1054D000FBF742FC3C20FBF73FFC0920FBF73CFCC0
:1054E0001320FBF739FC0520FBF736FC1720FBF7F0
:1054F00033FC1120FBF730FC0020FBF72DFCE120F2
:10550000FBF746FC0020FBF727FC1620FBF724FCEA
:105510001B20FBF721FC0420FBF71EFC1120FBF7EE
:105520001BFC0720FBF718FC3120FBF715FC332090
:10553000FBF712FC4220FBF70FFC0520FBF70CFCED
:105540000C20FBF709FC0A20FBF706FC2820FBF7E0
:1055500003FC2F20FBF700FC0F20FBF7FDFB1120C5
:10556000FBF716FCC820FBF761FC2920FBF710FCB9
:10557000BDE808402C20FBF70BBC08B5FBF7DCFBB3
:105580000321D320FBF720FC80B208BD10B5C4B2C4
:10559000022203212046FBF785FB0A20FBF7CAFB0A
:1055A000204600220321FBF77DFBBDE810400220CE
:1055B000FBF7C0BB38B50446E4B2FBF771FB002132
:1055C0002046FBF787FB012105462046FBF782FBBF
:1055D00040EA052080B238BD10B5C4B24021204653
:1055E000FBF778FB030607D54C212046FBF772FB3F
:1055F000003818BF012010BD01224B212046FBF7C7
:1056000051FB204600224B21FBF74CFB0020F2E728
:1056100073B50423C4B20E461546D7210DEB030221
:105620002046FBF771FB019B1BBA1A0DC3F30B233A
:10563000328020462B8001224B21FBF733FB0022D6
:105640004B212046FBF72EFB02B070BD10B50A4A75
:105650001378984204460DD0517888420AD00BB195
:1056600041B90123D454FBF71BFB2046BDE8104091
:10567000FFF78CBF10BD00BF384A002010B5C4B280
:1056800009212046FBF726FB40F00102D2B220465A
:105690000921BDE81040FBF705BB10B5C4B20921D4
:1056A0002046FBF717FB092100F0FE022046BDE86B
:1056B0001040FBF7F7BA38B5C4B20D4620460A21B0
:1056C000FBF708FB40EA0502D2B220460A21BDE8FA
:1056D0003840FBF7E7BA10B50446FBF7E2FA20467C
:1056E0001F21FFF7E8FF2046BDE81040FFF7C6BFC7
:1056F00038B5C4B20D4620460A21FBF7EBFA20EA82
:105700000502D2B220460A21BDE83840FBF7CABAEA
:1057100010B50446FFF7C1FF20461F21BDE8104029
:10572000FFF7E6BF10B5C0B20C460B21FBF7D2FA6B
:10573000204010BD1F21FFF7F5BF0A46C0B20B2164
:10574000FBF7B0BA1F21FFF7F8BF38B5C4B20D465A
:1057500020461721FBF7BEFA20EA0502D2B2204606
:105760001721BDE83840FBF79DBA70B5C4B20646B4
:1057700004212046FBF7AEFA042100F0FB020546A7
:105780002046FBF78FFA3046F021FFF7DEFF05F0E9
:10579000F80220460421FBF785FA49222021204601
:1057A000FBF780FA0220FBF7C5FA204601222121EF
:1057B000FBF778FA20469A224121FBF773FA20463C
:1057C00001224A21FBF76EFA204601224B21FBF70A
:1057D00069FA204600224B21FBF764FA2046012299
:1057E0005621FBF75FFA204601225821FBF75AFAAF
:1057F000204601224021FBF755FA2046FF220B21CB
:10580000FBF750FABDE870400220FBF793BA0000A6
:10581000054BD3F8882042F47002C3F888204FF07B
:1058200000629A60704700BF00ED00E008B50B4BC6
:105830001A6842F400721A601A6842F480621A60B0
:105840001A6842F480721A60032000F02FF80020DA
:10585000FCF7DCF9FBF75AFF002008BD003C0240D2
:10586000034A044B11681B780B441360704700BF58
:105870003C4A002080000020014B1868704700BFA0
:105880003C4A002038B50446FFF7F6FF631C1CBFF6
:10589000054B1B78054618BFE418FFF7EDFF431BC7
:1058A000A342FAD338BD00BF800000200749CA6870
:1058B00022F4E0620302120403F4E063120C1343C7
:1058C00043F0BF6343F40033CB60704700ED00E06A
:1058D000164B30B5DC68C4F30224C4F10703251D60
:1058E000042B28BF0423062D4FF0FF358CBF033C4B
:1058F000002405FA03F321EA0303A54022EA050286
:10590000A340002843EA0203ACBF00F16040084A0C
:105910004FEA0313B8BF00F00F00DBB2AABF00F5D7
:105920006140135480F8003330BD00BF00ED00E04B
:1059300014ED00E0002807DB044A4109012300F0D0
:105940001F00834042F82130704700BF00E100E0B3
:1059500010B5044650B1437903F0FF0213B9027148
:10596000FBF7F4FE01236371002010BD0120FCE76A
:1059700010B5044620B390F8393003F0FF021BB98C
:1059800080F83820FBF7FAFE022384F839302368C8
:1059900061681A6822F440320A431A605A6BA1689F
:1059A00022F007020A435A631A6CE1686FF30D0292
:1059B0000A431A6400200123E06384F8393010BDE3
:1059C0000120FCE770477047036870B55E681D688A
:1059D000F207044614D5E90512D51A6822F480723C
:1059E0001A60C26B42F00102C26301229A60042372
:1059F00080F83930002380F83830436903B1984784
:105A0000B20616D5AB0414D523681A6822F40052E6
:105A10001A6020229A60E36B43F00203E3630423DD
:105A200084F83930002384F8383063690BB120469C
:105A30009847300716D5290514D523681A6822F42B
:105A400000621A6008229A60E36B43F00403E36388
:105A5000042384F83930002384F8383063690BB1AB
:105A60002046984772070BD56B0509D523681A683D
:105A700022F480621A6004229A602046FFF7A2FF97
:105A8000B00714D5A90512D523681A6822F400724C
:105A90001A6002229A60E36BE363012384F83930D1
:105AA000002384F8383023690BB120469847F2066A
:105AB00013D5EB0411D523681A6822F480521A60BA
:105AC00010229A60E36BE363012384F839300023EA
:105AD00084F838302046FFF776FF70BDF0B590F8B7
