:020000040800F2
:1000000000000320BD050008E1170008E317000801
:10001000E5170008E7170008E917000800000000CE
:10002000000000000000000000000000C174000893
:10003000EB1700080000000051750008BB6D0008B8
:100040000D0600080D0600080D0600080D06000844
:100050000D0600080D060008111800080D0600081E
:100060000D0600080D0600080D0600080D06000824
:100070000D0600080D0600080D0600080D06000814
:100080000D0600080D0600080D0600080D06000804
:100090000D0600080D0600080D0600080D060008F4
:1000A0000D0600080D0600080D0600080D060008E4
:1000B0000D0600080D0600080D0600080D060008D4
:1000C0000D0600080D0600080D0600080D060008C4
:1000D0000D0600080D0600080D0600080D060008B4
:1000E0000D0600080D0600080D0600080D060008A4
:1000F0000D0600080D0600080D0600080D06000894
:100100000D0600080D0600080D0600080D06000883
:100110000D0600080D060008ED1700080D06000882
:100120000D0600080D0600080D0600080D06000863
:100130000D0600080D0600080D0600080D06000853
:100140000D0600080D0600080D0600080D06000843
:100150000D0600080D0600080D0600080D06000833
:100160000D0600080D0600080D0600080D06000823
:100170000D0600080D0600080D060008000000002E
:100180000D0600080D0600080D0600080D06000803
:100190000D0600080D0600080D0600080D060008F3
:0C01A000F91700080D06000805180008FB
:1001B00010B5054C237833B9044B13B10448AFF3A1
:1001C00000800123237010BDF0000020000000001B
:1001D0006839010808B5034B1BB103490348AFF365
:1001E000008008BD00000000F4000020683901080C
:1001F00001F0FF01102A2BDB10F0070F08D010F8D8
:10020000013B013A8B422DD010F0070F42B3F6D1DB
:10021000F0B441EA012141EA014122F007047FF0F4
:1002200000070023F0E80256083C85EA010586EA4B
:10023000010685FA47F5A3FA87F586FA47F6A5FA87
:1002400087F68EB9EED1F0BC01F0FF0102F0070293
:1002500032B110F8013B013A83EA010313B1F8D13E
:100260000020704701387047002D06BF354603381F
:10027000073815F0010F07D1013015F4807F02BF58
:10028000013015F4C03F0130F0BC0138704700BFA9
:1002900053B94AB9002908BF00281CBF4FF0FF31ED
:1002A0004FF0FF3000F088B9ADF1080C6DE904CED5
:1002B00000F006F8DDF804E0DDE9022304B0704741
:1002C0002DE9F047089D8E4604468846002B4AD10A
:1002D0008A42174662D9B2FA82F64EB1C6F12003BD
:1002E00001FA06F820FA03F3B74043EA0808B440DD
:1002F0004FEA174E1FFA87FCB8FBFEF1230C0EFBEA
:10030000118843EA084301FB0CF29A4209D9FB1811
:1003100001F1FF3080F0EA809A4240F2E780023932
:100320003B449A1AA3B2B2FBFEF00EFB102243EA42
:10033000024300FB0CFC9C4509D9FB1800F1FF327D
:1003400080F0D6809C4540F2D3803B44023840EA9E
:100350000140A3EB0C0300211DB1F3400022C5E9CD
:100360000032BDE8F0878B4205D90DB1C5E9000127
:1003700000210846F5E7B3FA83F1002946D1734519
:1003800002D3824200F20581841A6EEB030201203F
:100390009046002DE5D0C5E90048E2E7002A00F0CC
:1003A0009080B2FA82F6002E40F0A4808A1A030CE4
:1003B0004FEA174E80B2BCB20121B2FBFEFC0EFB2D
:1003C0001C2243EA024304FB0CF29A4207D9FB18B1
:1003D0000CF1FF3802D29A4200F2E080C4469B1A28
:1003E000B3FBFEF20EFB123340EA034302FB04F4BC
:1003F0009C4207D9FB1802F1FF3002D29C4200F266
:10040000CA8002461B1B42EA0C40A5E7C1F1200648
:100410008B4022FA06F71F430EFA01F420FA06F386
:100420002EFA06FE4FEA1749234300FA01F81FFA95
:1004300087FCBEFBF9F01C0C09FB10EE44EA0E44ED
:1004400000FB0CFEA64502FA01F209D93C1900F1A5
:10045000FF3A80F09C80A64540F2998002383C44E7
:10046000A4EB0E041FFA83FEB4FBF9F309FB13445B
:100470004EEA044403FB0CFCA44508D93C1903F1E3
:10048000FF3E80F08280A4457FD9023B3C4443EA92
:100490000040A4EB0C04A0FB02EC64457346E1466B
:1004A00062D35FD05DB1B8EB030264EB090404FAD8
:1004B00006F622FA01F31E43CC40C5E90064002190
:1004C0004FE7B1FBF2FC010C41EA0E4180B240EA79
:1004D00001423B4638463C46B846BE462026B1FB64
:1004E000F7F1A2EB080241EA0C4166E7014618E782
:1004F00010462CE7C6F120022EFA02F3B740B140B5
:1005000020FA02F24FEA174E0A43B3FBFEF8BCB2E0
:100510000EFB1833110C41EA034108FB04F9B0400B
:1005200089454FEA104380B23ED9791808F1FF3C63
:1005300001D289451FD8A1EB0901B1FBFEF909FBE6
:1005400004F80EFB191192B242EA0142424529D247
:10055000BA1809F1FF31C4D24245C2D2A9F1020151
:100560003A44BEE7F0459DD2BEEB02036CEB070CAC
:100570000138E14696E7A7EB09094944A8F1020CC6
:10058000B1FBFEF909FB04F8DBE773467FE7504651
:1005900066E70846FDE63B44023A33E7ACF1020C5D
:1005A0003B441CE749469CE7A1EB0901C446B1FB6B
:1005B000FEF909FB04F8C4E7704700BFDFF834D048
:1005C000002103E00C4B5B58435004310B480C4BAB
:1005D00042189A42F6D30B4A02E0002342F8043B49
:1005E000094B9A42F9D304F0A5F812F04FFC00F041
:1005F0002FFB704700000320E8FD0E0800000020DC
:10060000F0000020F0000020A4570120FEE70000C9
:1006100010B5044606F00AFC0723B0FBF3F3C3EB66
:10062000C303C01AC4F87C03E8B1012814BF032334
:100630000223C4F878330D4B04F1400203EB80131E
:1006400020461968C0F880135968C0F88413996867
:10065000C0F88813D968C0F88C131030904203F1A9
:100660001003EED110BD0423E3E700BFC039010839
:10067000F0B500F56075064617460C460FCD0FC461
:100680000FCD0FC40FCD0FC495E80F0084E80F0005
:10069000D6F878333B60F0BDD0F87C33013310B529
:1006A000044601D1FFF7B4FF234604F14002D3F81A
:1006B0008013C3F82013D3F88413C3F82413D3F89A
:1006C0008813C3F82813D3F88C13C3F82C131033F2
:1006D0009342ECD1D4F87833C4F86833C3F10A03F9
:1006E00003EBD3735B10C4F860330023C4F86433A6
:1006F0002046BDE81040FFF78BBF10B50346044607
:1007000000F5487100208B4210D1002384F86C332F
:10071000C4F870334FF0FF332046C4F87C33FFF742
:1007200077FF2046BDE81040FFF7B6BF1A462833D2
:100730009342E8D042F8040BFAE710B50446FFF7FD
:10074000DCFF204610BDF0B5054691B00C464022B6
:100750000021684612F0F1FAD5F8682300230DEB6A
:10076000820104EB82009A420CDC6D460FCD0FC46F
:100770000FCD0FC40FCD0FC495E80F0084E80F0014
:1007800011B0F0BD04EB03150E4655F8047B46F896
:10079000047C854206F11006F7D10133043910308C
:1007A000E1E7F0B5D0F868431460DDE9056C00249A
:1007B0001C60D0F868533560CCF80040D0F868531E
:1007C000A5421FDD01EB041E002515E05EF8047B49
:1007D0008FB11768AF42C8BF15601F68AF42B8BF7E
:1007E0001D603768A742C8BF3460DCF80070A742BC
:1007F000B8BFCCF800400135D0F86873AF42E5DCF3
:100800000134DBE7F0BD2DE9F04F87B00E46194605
:1008100005AB019304AB1446009302AA03ABFFF7A8
:10082000C0FF0546DDE9040EDDE902BC021905EB57
:1008300086054FF0280886451CDB01EB001908FBF4
:1008400002575C460DE059F824304BB104EB060A20
:10085000BAF1090F0AD8132A08D857F824302BB94F
:100860000134A445EFDA01300132E4E7012007B09A
:10087000BDE8F08F0020FAE72DE9F0474FF0280E91
:10088000064613274FF0010900EB0E084FF0000A4F
:100890000EFB07610022012351F8040B01320028EE
:1008A00008BF00230A2AF7D103B3D6F8703386F8BD
:1008B00074930133C6F87033BC46BCF1000F05D108
:1008C00033469845E4D043F804ABFAE70CF1FF3C1B
:1008D0000EFB0CF408EB040534440FCC0FC50FCC11
:1008E0000FC594E8030085E80300E6E7013FCFD297
:1008F000BDE8F087F8B5D0F86863044600F54775A1
:1009000000224FF00A0C4FF0010E964207DC204601
:10091000FFF7B2FF2046BDE8F840FFF7BDBE2F4607
:10092000002157F8043F6BB1D4F864031044132836
:1009300008D8D4F860330B44092B9CBF0CFB003360
:1009400044F823E001318E42EBD101321035DCE76F
:1009500038B590F86C33044663B9D0F86453D0F8D6
:100960006013013500F548732A46FFF74CFF10B9B4
:10097000C4F8645338BD2046FFF7BCFF231F04F1C1
:100980002402012153F8040F08B184F86C13934238
:10099000F8D1EFE770B500F5607506460FCD90B061
:1009A0006C460FC40FCD0FC40FCD0FC495E80F00D8
:1009B00084E80F006B46002205213046FFF723FF35
:1009C00010B070BD38B590F86C33044663B9D0F8F8
:1009D0006053D0F86423013D00F548732946FFF7C2
:1009E00012FF08B9C4F8605338BD38B590F86C33BD
:1009F000044663B9D0F86053D0F86423013500F59C
:100A000048732946FFF7FFFE08B9C4F8605338BDA4
:100A1000F8B590F86C330446ABB9D0F8606300F5D4
:100A20004877D4F8645301353B462A463146204680
:100A3000FFF7E9FE20B12046BDE8F840FFF75ABFB6
:100A4000C4F86453EDE7F8BD70B590F86C3390B01E
:100A5000044623BB00F548760FCE6D460FC50FCE7A
:100A60000FC50FCE0FC596E80F0085E80F00204692
:100A70006946FFF768FED4E9D81220466B46FFF7B7
:100A8000C2FE04F5487450B96D460FCD0FC40FCDAA
:100A90000FC40FCD0FC495E80F0084E80F0010B00D
:100AA00070BD000007B5064BADF806001B68054891
:100AB00001220DF1060105F013FC03B05DF804FB03
:100AC00004000020A001002007B50C4C0C4D20684C
:100AD00006F04CFB70B90821284604F0B9F802462C
:100AE00040B944238DF8073020680A230DF107012F
:100AF00006F0DBFA0A2006F0E9F9E8E71001002029
:100B00000018024007B51D4C1D4D1E4E206806F012
:100B10002DFB014698B92A461B4806F08EF9194864
:100B20004FF4805104F094F8024660B94C238DF8DC
:100B3000073020680A230DF1070106F0B6FA0A20F3
:100B400006F0C4F9E2E74FF40051304604F080F8B3
:100B5000024608B95223EAE70C48042104F078F869
:100B6000024608B95423E2E70848082104F070F867
:100B700002460028E3D14423D9E700BF1401002036
:100B80006448010800040240910B0008001802406C
:100B9000084C0122114608B5204604F05FF8642095
:100BA00006F094F900220121204604F057F806F0DF
:100BB00088F900BF0000024030B595B01022002136
:100BC0000AA812F0BAF81422002103A812F0B5F80E
:100BD00000241D4B01941A6C42F080521A641B6C65
:100BE00003F080530193019B184B02941A6842F45E
:100BF00040421A601B6803F4404302930122029BA7
:100C00004FF48033CDE9082302254FF48003CDE96A
:100C10000E5308214FF4A873CDE9101308A804233C
:100C20001393129504F01CFE0F23CDE903354FF406
:100C3000A0504FF48053CDE90603052103A8059485
:100C400004F0EAFF15B030BD0038024000700040EB
:100C50002DE980489BB003F07BFDFFF7ADFF142228
:100C600000210DA8002412F068F8C54B00941A6BFF
:100C7000C448DFF868B342F010021A631A6B02F03E
:100C800010020092009A01941A6B42F020021A633B
:100C90001A6B02F020020192019A02941A6B42F040
:100CA00080021A631A6B02F080020292029A039485
:100CB0001A6B42F004021A631A6B02F004020392E8
:100CC000039A04941A6B42F001021A631A6B02F041
:100CD00001020492049A05941A6B42F002021A630C
:100CE0001A6B02F002020592059A06941A6B42F002
:100CF00040021A631A6B02F040020692069A0794A9
:100D00001A6B42F008021A631B6B03F008032246B9
:100D100007933C21079B03F0A1FF22469A48042138
:100D200003F09CFF224699484FF4405103F096FF90
:100D300001253C234FF0030992480F940DA9022787
:100D40004FF00408CDE90D35CDF8409003F09CFE3E
:100D50008D480F940DA94FF44056CDE90D8510979D
:100D600003F092FE89480DA9CDE90D65CDE90F4745
:100D700003F08AFE86480F940DA9CDE90D5503F0C6
:100D800083FE0C2383480F950DA9CDE90D3403F0A4
:100D90007BFE0DA980480F95CDE90D6403F074FE2C
:100DA0007E487F4B7F4E036003F064FD7E4A7F4B9D
:100DB0003462C6E9002330464FF48043C6E9043468
:100DC000C6E90244C6E9064404F03AF91021304667
:100DD00004F076FB2146304604F091FB74487549D7
:100DE00084624FF48273C0E900134FF40076182335
:100DF000C0E906630A23C362C0E90244C0E90444AF
:100E0000C0E9084405F010FA6B4A0D974FF0100C3A
:100E1000CBE900254022CBE904C24FF4C072CBE9F4
:100E200006244FF40062CBE908244FF0070A4FF480
:100E300000520DA958460826CBE90248CBF82820D5
:100E4000CDE910A9CDE90EA8CDE9127705F0E8F8B3
:100E50004FF6FF7209A95846CDE90A6508940C942B
:100E6000099505F0FDF8284603F09EFC4FF6FF7249
:100E700009A95846CDE90976CDE90B5405F0F0F8FB
:100E80004FF6FF7209A95846CDE90996CDE90B84C2
:100E900005F0E6F84FF40C720892089A0C9209A932
:100EA0004FF6FF725846CDE909860B9505F0D8F844
:100EB00040F26A51584605F0F1F8342221460DEB14
:100EC000020011F03AFF3D4E3D4B3461C6E900345B
:100ED0000923C6E905351D2340F20D1EC6E9073971
:100EE00040F24313C6E909E3304640F2471340F2AB
:100EF0001719C6E90244C6E90B93B48686F8364052
:100F000004F098FBFF21CDE91214F02205214FF4E3
:100F1000806B4FF4A073CDE90E24CDE91642CDE9E4
:100F200014B122460DA93046CDE91037254E0D9457
:100F30001893ADF864408DF8664004F046FC224BEF
:100F400033601B6898473368204EDB689847204B16
:100F50003046C6E90034C6E90274C6E90A47C6E964
:100F60000C4403F097FC2946304603F049FD194E26
:100F700000F0A2FC184A34614FF4E13330E000BFC6
:100F8000003802400010024000080240000C0240FD
:100F90000000024000180240000402403403002018
:100FA00000300240A0020020005C0040A08601004A
:100FB000A001002000500140400100A0F8010020E5
:100FC000006801400C01002014000020F402002001
:100FD00000B0024024010020001001406C010020FC
:100FE000C6E9002330460C23C6E90534C6E90244AD
:100FF000F46105F0CDFD05F0EDFE1B4A29464046A3
:1010000006F018F8194B1A4A18602946404606F0AF
:1010100011F8184B184A18602146184805F00DFFC2
:10102000174B184A18602146174805F006FF174B62
:10103000174A186021461748174C05F0FEFE174B5B
:101040001549186052466423304605F0D0FD05F07E
:10105000D3FE642307222146304605F0C8FD4FF435
:101060007A7003F0A1FBF4E728480108140100207E
:101070001048010810010020AC480108C90A000806
:101080002001002088480108050B00081C010020F1
:1010900040480108BD180008803B010818010020E5
:1010A000704770477FB5094B8DF817201B68029376
:1010B0000DF117020123009201930A4601460448EC
:1010C00004F066F807B05DF804FB00BF08000020DC
:1010D000A00200207FB500238DF81730084B1B6855
:1010E00002930A4601230DF1170100910193014675
:1010F000044804F0DDF89DF8170007B05DF804FB24
:1011000008000020A00200201FB5084C24680092AF
:10111000CDE901340A4601230146054804F0C8F828
:10112000003818BF012004B010BD00BF0800002027
:10113000A002002003F038BB10B5064C0022204668
:10114000042103F08BFD20460122BDE8104004215C
:1011500003F084BD0008024038B50B4D044601225F
:101160000A484FF4005103F079FD0022042128467B
:1011700003F074FD2046FFF795FC28460122BDE8E8
:101180003840042103F06ABD00080240000C024010
:1011900038B50B4D044600220A484FF4005103F0C5
:1011A0005DFD00220421284603F058FD2046FFF78C
:1011B00079FC28460122BDE83840042103F04EBDE9
:1011C00000080240000C0240F7B5144E144F0546CB
:1011D0000C4630460022042103F040FD00224FF46B
:1011E0000051384603F03AFD2846FFF75BFC0D4BF3
:1011F0000D481B68224601A905F00FFA3846012266
:101200004FF40051019C03F029FD304601220421D6
:1012100003F024FD204603B0F0BD00BF00080240EB
:10122000000C024004000020A001002003F0BCBA22
:10123000104C08B501220821204603F00FFD642060
:1012400005F044FE00220821204603F007FD64203B
:1012500005F03CFE01220821204603F0FFFC64203B
:1012600005F034FE00220821204603F0F7FC05F0CB
:1012700028FE00BF000402400268034B9A4201D1DD
:1012800003F080BA704700BF0010004070470000B4
:1012900082B00E4B00220092596C41F48041596497
:1012A000596C01F48041009100990192196C41F050
:1012B000805119641B6C03F080530193019B0F2133
:1012C0006FF0010002B003F095BA00BF0038024091
:1012D0000268094B9A4282B00BD100230193074B5D
:1012E0001A6B42F480521A631B6B03F48053019310
:1012F000019B02B0704700BF00300240003802403E
:1013000007B50F4B02689A4216D10022A3F5F043AD
:101310000192196B41F4000119631B6B03F4000384
:10132000019305215A20019B03F064FA5A2003B06F
:101330005DF804EB03F090BA03B05DF804FB00BF66
:1013400000B002402DE9F043044689B01422002188
:1013500003A811F0F2FC2268244B9A4243D1244C9A
:10136000244800250095236B43F004032363236B7B
:1013700003F004030093009B0195236B43F00103EA
:101380002363236B03F001030193019B4FF01209C8
:101390004FF400734FF001080327042603A9CDE999
:1013A0000339CDE90587079603F06EFB4FF4807390
:1013B0001148079603A9CDE90339CDE9058703F064
:1013C00063FB0295236C43F400032364236C03F452
:1013D00000030293029B236A43F400032362236AFF
:1013E00023F40003236209B0BDE8F083005C0040F1
:1013F000003802400008024000000240F0B599B0F9
:1014000004461422002107A811F097FC30220DEBAE
:101410000200002111F091FC22685E4B9A4240F0DC
:10142000B78008230C93C0231093042312930CA8B5
:101430004FF40033159304F0C7FC08B1FFF726FF03
:10144000554B5648002400945A6C42F080625A640E
:101450005A6C02F080620092009A01941A6B42F07A
:1014600020021A631A6B02F020020192019A029480
:101470001A6B42F001021A631A6B02F00102029227
:10148000029A03941A6B42F002021A631A6B02F07A
:1014900002020392039A04941A6B42F040021A6308
:1014A0001A6B02F040020492049A05941A6B42F0FF
:1014B00004021A631A6B02F004020592059A06945C
:1014C0001A6B42F008021A631B6B03F008030693C1
:1014D00002250E26069B0B964FF4806307A9CDE9E3
:1014E0000735CDE9094503F0CFFA41F658032C48FA
:1014F0000B9607A9CDE907350927CDE9094503F082
:10150000C3FA032327480B9707A9CDE90735CDE98F
:10151000094503F0B9FA4FF4706322480B9607A906
:10152000CDE90735CDE9094503F0AEFA4FF40C6378
:101530001D480B9607A9CDE90735CDE9094503F00C
:10154000A3FAC02319480B9607A9CDE90735CDE9C1
:10155000094503F099FA082315480B9607A9CDE928
:101560000735CDE9094503F08FFA4FF4A0530E4833
:101570000B9707A9CDE90735CDE9094503F084FAB2
:1015800058202246052103F035F9582003F064F96C
:1015900019B0F0BD0068014000380240001402405C
:1015A000000002400004024000180240000802400F
:1015B000000C024010B5044688B01422002103A894
:1015C00011F0BBFB2268144B9A4223D103F5684308
:1015D000002101915A6C114842F480125A645A6CED
:1015E00002F480120192019A02911A6B42F02002D9
:1015F0001A631B6B03F020030293029B4FF460728B
:1016000002230321CDE903230523CDE9061303A912
:1016100003F03AFA08B010BD005001400014024037
:101620002DE9F04186B0002303932B4B1C68002C5E
:101630004FD14FF00108C3F80080284B00949A6BFB
:10164000274842EA08029A639B6B03EA0803009367
:10165000022703260C25009B01A94FF63F03CDE985
:101660000137CDE9046503F00FFA1E48059501A97D
:10167000CDE90187CDE9034603F006FA48F23313BA
:101680001948059501A9CDE90137CDE9034603F0D5
:10169000FBF94FF683731548059501A9CDE901378C
:1016A000CDE9034603F0F0F94CF2037310480595B9
:1016B00001A9CDE90137CDE9034603F0E5F960233F
:1016C0000C48059501A9CDE90137CDE9034603F0A2
:1016D000DBF906B0BDE8F0813C0300200038024091
:1016E00000140240000802400018024000100240AE
:1016F000000C02400004024010B5044688B01422D9
:10170000002103A811F019FB2268144B9A4223D13F
:1017100003F59433002101915A6C114842F01002F4
:101720005A645A6C02F010020192019A02911A6BEB
:1017300042F001021A631B6B03F001030293029B48
:101740004FF4C06202230321CDE903230723CDE92F
:10175000061303A903F098F908B010BD001001406A
:101760000000024030B5014689B00022362003F067
:1017700041F8362003F070F80025154B02951A6CDD
:10178000144C42F010021A641B6C03F01003029315
:1017900001A903A8029B04F0F9FA04F0D7FA0E4B52
:1017A000236040F2E733E36040000C4BB0FBF3F002
:1017B0000138606020462561A56005F0FDF820B97C
:1017C000204604F0C9FF09B030BD0120FBE700BF8F
:1017D00000380240400300200010004040420F004B
:1017E0007047FEE7FEE7FEE7FEE77047014804F0BA
:1017F000F1BF00BF40030020014803F089BF00BFD4
:10180000F8010020014803F071B800BFF402002085
:1018100070470120704708B511F032FB16230360B2
:101820004FF0FF3008BD08B511F02AFB1623036006
:10183000FEE770B50D4614460E46731B9C4201DC54
:10184000204670BDAFF3008006F8010BF5E770B5D8
:101850000D4614460E46731B9C4201DC204670BDAB
:1018600016F8010BAFF30080F5E74FF0FF3070473B
:101870004FF400534B600020704701207047002058
:10188000704700000A4A116808B5034609B90949BA
:1018900011601068694603448B4206D911F0F0FAD2
:1018A0000C2303604FF0FF3008BD1360FCE700BF5E
:1018B00088030020A857012000F0BCBC00F02CBD1C
:1018C000704710B50421044611F002F8204610BDFF
:1018D00038B50C4B0C4C18800C4B82201980636877
:1018E000984740F6110398420AD1094D23682C60AD
:1018F000822098472B688220DB689847002038BDFB
:101900000120FCE7960300204C00002094030020F7
:10191000980300204FF4A071F020FFF7D9BF00001A
:10192000F7B5354D2B6804461B6982209847208007
:1019300000284BD02B680DF106025B6901A98220BB
:101940009847BDF8063040F67462934240D9ADF82E
:101950000620BDF80630D21A92B20A2A3ED90B23CD
:10196000B2FBF3F2254B1B889A4201D9013B9AB294
:10197000BDF80430224840F6B8318B4230D8C3F568
:1019800071630E3301689BB20F25B3FBF5F31D4D58
:101990002D88AB4284BF05F1FF35ABB28B421D46AB
:1019A0008EB226D99B1B99B2174E3768BBB2BA428A
:1019B0008CBFD31A9B1A9BB219440529C8BF056076
:1019C0000368C8BF326063803368A38003B0F0BD92
:1019D000B32B9CBFB423ADF80630BAE70022C7E7AB
:1019E000C3F56D6308339BB20E2B0168CCD800257C
:1019F0002B46C91A89B2D7E7980300209403002028
:101A000090030020960300208C03002037B5684621
:101A10000D461446FFF784FFBDF8000030B1BDF855
:101A200002302B60BDF804302360012003B030BDCC
:101A3000032821D8DFE800F0020B12190F4B1A68B7
:101A4000B2FA82F2520904210D4803F007B90B4B98
:101A50005A68B2FA82F252090821F5E7074B9A68F0
:101A6000B2FA82F252091021EEE7044BDA68B2FAB8
:101A700082F252092021E7E7704700BF9C03002053
:101A800000100240032821D8DFE800F0020B1219F1
:101A90000F4B1A68003A18BF012204210D4803F0C9
:101AA000DDB80B4B5A68003A18BF01220821F5E750
:101AB000074B9A68003A18BF01221021EEE7044B49
:101AC000DA68003A18BF01222021E7E7704700BF1B
:101AD0009C0300200010024003280DD8DFE800F02E
:101AE0000206080A0421054803F0BDB80821FAE7F8
:101AF0001021F8E72021F6E7704700BF00100240F0
:101B000008B5032811D8DFE800F0020A0C0E042102
:101B1000074803F09DF8431E5842584108BD08216C
:101B2000F6E71021F4E72021F2E70020F3E700BFF9
:101B30000010024070B5084D00240126E0B2FFF706
:101B4000DFFF18B12B68012B18BF2E600134052C64
:101B500005F10405F2D170BD9C030020012380F83B
:101B6000781080F87930704700207047034B41644B
:101B7000003918BF01211970704700BF2F54012090
:101B800000207047836B0BB10846184770474FF62B
:101B9000FF707047406803689B691847704770473B
:101BA0007047000070B5044600F056FC2368D3F877
:101BB0008850044BD4E90F122046AC46BDE8704073
:101BC000604700BF000000D008B503680446D3F8A2
:101BD00080309847236820469B6F984700F0ECF8C8
:101BE000236820461B6F98472920FFF7D1FA00F0A1
:101BF000E3F8236820461B6F9847F8E710B50446C2
:101C000008F0A2FA23682046D3F8AC30BDE81040B3
:101C1000184700F013BC00F017BC00F043BC00F004
:101C2000E9BB00F043BC00F04BBC00F0EDBB07F09B
:101C3000EBBC10B57C21044610F04AFE204610BDD6
:101C400010B590F8341090F878400C4B8C421A780C
:101C500009D03AB90A4A0B491488088810800C80C8
:101C600001221A7010BD002AFCD0054A05491488CB
:101C7000088810800C800022F3E700BF2854012060
:101C8000245401202654012070B50D46194635B95B
:101C9000094B0A4A0A4840F2D22110F047FEC0E937
:101CA0000F52084B003A18BF01221A700368BDE8B2
:101CB0007040D3F88C301847E33B01081B3C010807
:101CC000693C01082E54012008B5094B1B888B4242
:101CD00003D8084B1B88934205D9074B074A08488D
:101CE0009E2110F023FE074B1980074B1A8008BD78
:101CF0002454012026540120AE3C0108113D010866
:101D0000693C01082A5401202C540120034690F814
:101D10007A0018B1586803681B68184770470000BC
:101D2000012108B50022084605F0DCF80A4B1860CE
:101D300028B90A4B0A4A28210A4810F0F7FD002268
:101D40000421012005F076F9074B186018B9074BFC
:101D5000034A2C21F0E708BDB0030020543D0108E0
:101D60009D3D0108CC3D0108AC030020163E010852
:101D7000024B4FF0FF31186805F0FEB8B0030020A9
:101D8000014B186805F024B9B0030020024B002174
:101D9000186805F0F1B800BFB0030020FFF7F0BFEE
:101DA00003480449006800231A4605F07EB900BFC5
:101DB000AC0300200C00002013B5084C00231A4689
:101DC00001A9206805F0A2F920684FF0FF33002236
:101DD00001A905F09BF902B010BD00BFAC030020C3
:101DE00003685B6C18470120704703689B6A1847BB
:101DF00082B0002301930D4B1A6B42F400021A6368
:101E00001A6B02F400020192019A1A6942F400026C
:101E10001A611A6922F400021A61054B054A1A6117
:101E2000054B4FF080629A6002B070470038024064
:101E3000F4020020C920000800E100E040F2EF3089
:101E400070470000054B0360054B4FF08062C3F8FC
:101E50008820BFF34F8FBFF36F8F7047C8490108C9
:101E600000E100E010B504464FF45A61FFF7EAFFC5
:101E7000204610F02DFD204610BD000008B50A28B0
:101E800009D8DFE800F006100E0808080810101046
:101E90001000022008BD054B054A0648872110F0B6
:101EA00045FD0020F6E70120F4E700BF583E010899
:101EB000733E0108BE3E010838B50C46887FFFF727
:101EC000DDFFA58AE28A164B2169586342EA054282
:101ED0005A64628BD963521B1A642568082D0ED18F
:101EE0009A611A615862207F0E4A42EA0062DA6102
:101EF000E2681A620C4A5961D9601A6038BD002242
:101F0000D8611A61E1680A0A480902F4784200F4CB
:101F1000FC600243C1F3C4010A439A63034AECE73D
:101F200000B00240090001000102020001020300AA
:101F300008B50B280BD8DFE800F00612100A0A0AD1
:101F40000A0808080808022008BD0520FCE7054B20
:101F5000054A0648662110F0E9FC0020F4E701205C
:101F6000F2E700BF583E0108063F0108BE3E0108E7
:101F70002DE9F04191F81D800C464046FFF7D8FF4F
:101F8000A77F05463846FFF7D3FF06463846FFF7DA
:101F900075FFA18A628B444B521A1A649A61228B94
:101FA000521A1A61E28A586342EA01425A6421696C
:101FB0006268D963DA602068802828D0227F0FD831
:101FC000202867D0402865D004281AD0364B45EA2F
:101FD000026545F40035B845DD6161D0334A44E01F
:101FE000B0F5807F04D0B0F5007FEFD1304800E03D
:101FF000304840EA0262DA61E2681A625E62596160
:1020000032E045EA026242F40032DA61F6E7A068A3
:10201000021DDA62227F45EA026545F40035DD6182
:102020005E625961017841B1012921D0224B234AD6
:10203000234840F2111110F079FCDA69418822F44A
:102040007F42013922F0100242EA0122DA610121C5
:10205000154BDA6942F02002DA61DA699206FCD4A3
:1020600010229A600029B9D0164A1A60BDE8F081A2
:10207000B2F1FF01DA69408822F47F4200F1FF30BB
:1020800022F0100242EA002242F0100218BF0121A1
:10209000DA61DDE745EA0262034B42F40032B4E75D
:1020A00040F20122E1E700BF00B00240010201005E
:1020B000090002000A000200503F01086A3F0108BF
:1020C000BE3E010801020200024B1B68586803680B
:1020D0005B6918473054012070B5044625460A4B09
:1020E0000C30002660602672667245F8203B602244
:1020F000294608F067F904F55A63EE6024359D42DD
:10210000FBD1204670BD00BFC849010801207047BF
:1021100038207047382303FB01000830704738230C
:1021200003FB0100083070470120704743F2CC10D8
:10213000704743F2CC1303FB01000830704743F2B1
:10214000CC1303FB010008307047012070471020BA
:10215000704700EB01100830704700EB01100830A9
:102160007047084600F070BE10B5034B036004468C
:1021700006F0A1FF204610BD804A010810B50446B4
:10218000FFF7F2FF2046402110F0A2FB204610BDD1
:1021900010B5034B0360044606F08DFF204610BDCA
:1021A0004C4A010810B50446FFF7F2FF204643F2FF
:1021B000D41110F08DFB204610BD000010B5034B6C
:1021C0000360044606F077FF204610BD184A010858
:1021D00010B50446FFF7F2FF2046182110F078FBF7
:1021E000204610BD10B5084B0360044600F548506A
:1021F000FFF7BAFF04F12C00FFF7CAFF04F1140047
:10220000FFF7DCFF204610BDB44A010808B50248BC
:10221000FFF7E8FF08BD00BF6812002010B50446B4
:10222000FFF7E0FF204643F2AC3110F051FB2046AF
:1022300010BD00002DE9F34100F0A4F9054600F0BF
:10224000A5F90024014623462846224600940DF0B5
:10225000ADFC264B264A274D1A60204601F03CFC77
:1022600025480DF00BFC2B68BFF35B8FDB0737D4E1
:10227000284610F02FFB98B3204C214B236004F527
:10228000485707F1500604F1140004F12C0860606F
:10229000C4F80880E760266106F00EFF194B636101
:1022A000404606F009FF184BE362384606F004FF8B
:1022B00004F54053154AC3F8002204F5495001F0D3
:1022C00087FC224604F54951304601F077FC304640
:1022D00000F0BAFD0E4810F047FB284610F006FB50
:1022E0000C4802B0BDE8F041FFF75CBC8C54012003
:1022F000300400206412002010000020681200202A
:10230000B44A0108184A01084C4A0108804A0108E9
:102310000D220008B40300200148FFF755BC00BFA0
:10232000B403002070B5224E224C234D234B236072
:102330003046FFF7D1FE28460EF098FA204B214890
:10234000DC6000224FF48071C3E912121E491A8624
:10235000C3E91A121D4999671D4983F858200B607B
:10236000F02101801B485A6601801B4883F87020C9
:102370004FF4A071C3E90422C3E90622C3E908228D
:10238000C3E90A22C3E90E22C3E91022C3E91422D9
:10239000C3E917225A67C3E9016501800F4801802C
:1023A0000F490A70012283F834200E4A1A6070BD6A
:1023B000C00400206012002034040020D848010826
:1023C000B403002024540120010000010000010199
:1023D000305401202A540120265401202C5401207D
:1023E00028540120F04801080148FFF72BBD00BF29
:1023F000C0040020034B902283F85A2383F858230B
:10240000704700BF00E100E0094A0A49D3680A4862
:10241000C3F30A03013B9BB20B801169C1F30A01AC
:10242000013901801364536B43F001035363704718
:10243000006801401646002014460020014BD3F8E6
:10244000AC00704700680140024B0122C3F8AC1099
:102450005A6270470068014070B5044607F029F9D8
:1024600023685D6E0AF0D6FA01462046A847236825
:10247000054AD3F888502046AC460023BDE870409A
:10248000A2F51631604700BF00B004D007F0F8B8DD
:1024900090F84B3013B1024B01221A7007F0FCB8D0
:1024A0001846002007F0B6B807F017BA034B4FF0F4
:1024B00080629A604FF080729A60704700E100E09D
:1024C000084B4FF08062C3F88820BFF34F8FBFF3F3
:1024D0006F8F4FF08072C3F88820BFF34F8FBFF328
:1024E0006F8F704700E100E010B5144C236823B3F0
:1024F000134B144A1B6C11888B4213D1124B198851
:1025000003F090F9226892F86A30013382F86A3059
:10251000FFF746FC206807F017FEBDE810400020DA
:10252000FFF786BA03F07EF9206803681B6A9847B4
:10253000BDE810400020FFF7A5BA10BD30540120BF
:10254000006801401646002014460020704710B570
:102550000421044610F0BCF9204610BD012908B53D
:1025600006D0022908D059B901F002FB006808BD65
:1025700001F0FEFA4068FAE701F0FAFA8068F6E73F
:102580000020F4E700487047D44A0108042070474F
:1025900013B5002451B1036801948DF8034001AADA
:1025A0009C680DF10303A04702B010BD0846FBE78D
:1025B000C0897047008A7047C0887047808870471C
:1025C000807A00F07F007047807AC0097047002051
:1025D000704700009FED010A704700BF0000000037
:1025E000704710B50821044610F072F9204610BD5E
:1025F0000020704781807047C1807047018170471B
:10260000418170477047704770477047704710B4FA
:10261000C4880368121B84885B6D091B12B25DF8C5
:10262000044B09B218474FF6FF7383814FF0FF3315
:1026300003621368C361106070477047704700F50C
:1026400098730868496803C37047704770474160D2
:10265000704710B50022B1F90840B1F90A100280A4
:1026600042808480C18010BD704770477047000071
:10267000064BC0F84C310023C0F8503100F5A2736E
:10268000C0F84801C0F84031704700BF3129000848
:1026900001230372704770477047704770470146C7
:1026A0004068036810315B6E184701464068036854
:1026B00010311B6E1847704701464068036810319F
:1026C0005B6E184770B5054640680368DB6998473C
:1026D00004463CB96868036805F110011B6EBDE84B
:1026E00070401847A188AB89C91A236820461B6B24
:1026F00009B29847A469ECE7704710B4C268416812
:102700005410034601EB6200D20748BF0A599B6888
:102710005DF8044B48BFD35818470346406830B1B2
:102720009A681AB9D86800F0010070470120704714
:1027300010B50C21044610F0CBF8204610BD10B5A2
:102740001021044610F0C4F8204610BD10B54FF417
:10275000AE71044610F0BCF8204610BD10B538210B
:10276000044610F0B5F8204610BD10B528210446E7
:1027700010F0AEF8204610BD10B53821044610F018
:10278000A7F8204610BD10B50AF044F90368BDE86B
:102790001040DB6B1847000037B50546807A6B7A2E
:1027A0000130C0B29842A87205D901232B720023D0
:1027B000AB7203B030BDB5F90C20B5F90E40002165
:1027C0000BF020FEC30707D500284FF6FF73C8BFE4
:1027D000012313FA80F000B2AB7AE881041B012BCD
:1027E000A4B206D1174B1B781BB10AF013F90AF0FB
:1027F00017F9154A00231288ADF80230EB891A4404
:102800005B42ADF80430114BADF800201B88ADF8E9
:1028100006300AF0FFF8036802AA12E906001B6CF2
:10282000984768680368DB6998470546002DC0D063
:10283000A9882B68214428461B6B09B29847AD69CB
:10284000F4E700BF2E540120245401202654012017
:1028500090F8252012B103685B69184770470000A3
:1028600037B50446807A637A0130C0B29842A072CC
:1028700005D9012323720023A37203B030BDB4F93C
:102880000C2000210BF0BEFDC30707D500284FF632
:10289000FF73C8BF012313FA80F000B2144BE0812C
:1028A0001988258B83B21348B0F90000ADF80600F3
:1028B000CA1A60682B445B1A12B2ADF80430036880
:1028C0002283ADF8002000221B69ADF80220694682
:1028D0009847A37A012BD0D1074B1B78002BCCD083
:1028E0000AF098F803B0BDE830400AF099B800BF8C
:1028F00024540120265401202E54012090F8252034
:102900001AB190F8242002B11860704710B504463F
:10291000D0F8400158B10368DB68984738B1D4F863
:10292000400103689B6898470023C4F8403110BDFC
:102930002DE9F14FD0E9556A0746B06803681B6A74
:102940009847B0F5D27F05D2444B454AA32145486C
:102950000FF0ECFF706803681B6A98470F2803D8D4
:10296000414B3F4AA421F2E7F06803681B6A98478D
:102970000B2803D83D4B3A4AA521E8E70AF04AF86C
:10298000DFF8F09004300AF092F8D9F8000010B1A6
:102990000368DB689847D9F8000010B103681B682A
:1029A0009847DFF8D480D8F8000010B103685B695D
:1029B0009847D7F83C0110B103685B689847D8F88E
:1029C000000010B103681B689847D7F83C0110B1AC
:1029D00003689B689847F068036800215B6A984722
:1029E0004FF0000B224BC0F804B0044680F808B04A
:1029F0000360B068036859465B6A9847054601F072
:102A00002BF97068036859465B6A98472946064661
:102A100001F0FEF8331DC7F83C61CAF808302B6896
:102A2000C6F808A02846DB68C9F80040C8F800507E
:102A3000EE639847336830461B689847214628461E
:102A40000BF0DAFC236820461B69984723685B6912
:102A5000204601B0BDE8F04F184700BFA83F01086D
:102A600036400108084101084F410108F2410108C0
:102A7000104C0108705401206C5401202DE9F041E4
:102A80001D460368BDF918701B6B0446164698472F
:102A90002368314620465B6B9847236829462046C9
:102AA0009B6B9847236839462046DB6BBDE8F041B5
:102AB000184700002DE9F74FD0E955BA0746DBF873
:102AC000080003681B6A9847B0F5D27F05D2544BC3
:102AD000544AA32154480FF029FFDBF8040003688F
:102AE0001B6A98470F2803D8504B4E4AA421F1E7A0
:102AF000DBF80C0003681B6A9847372803D84C4B57
:102B0000484AA521E6E709F085FFDFF8389104304F
:102B100009F0CDFFD9F8000010B10368DB689847D1
:102B2000D9F8000010B103681B689847DFF81881D6
:102B3000D8F8000010B103685B699847D7F83C01EA
:102B400010B103685B689847D8F8000010B10368BB
:102B50001B689847D7F83C0110B103689B689847F9
:102B6000DBF80C00036800215B6A9847314B036077
:102B70004FF4A05303814FF4807343632E4B0361E2
:102B80002E4A2F4BB2F90020B3F900308381002583
:102B9000044645608572C581C0E90555C0E9075501
:102BA000C0E90955C0E90B552946009210302A4664
:102BB000FFF764FFDBF80800036829465B6A984763
:102BC000064601F049F8DBF80400036829465B6A11
:102BD00098473146054601F01BF82B1DC7F83C51BC
:102BE000CAF808303368C5F808A03046DB68C9F871
:102BF0000040C8F80060F56398472B6828461B68BA
:102C00009847214630460BF0F7FB236820461B69A6
:102C1000984723685B69204603B0BDE8F04F18472A
:102C2000A83F010895420108084101084F410108E9
:102C3000F2410108584C01083C4B01082654012080
:102C400024540120705401206C5401202DE9F74FC9
:102C5000D0E955BA0746DBF8080003681B6A9847B5
:102C600043F2CB13984205D8544B554AA3215548FB
:102C70000FF05CFEDBF8040003681B6A98470F281E
:102C800003D8514B4E4AA421F1E7DBF80C0003684E
:102C90001B6A9847372803D84C4B494AA521E6E7D9
:102CA00009F0B8FEDFF83891043009F000FFD9F8D8
:102CB000000010B10368DB689847D9F8000010B134
:102CC00003681B689847DFF81C81D8F8000010B132
:102CD00003685B699847D7F83C0110B103685B68EB
:102CE0009847D8F8000010B103681B689847D7F8D8
:102CF0003C0110B103689B689847DBF80C0003683F
:102D000000215B6A9847324B03604FF4A053038164
:102D10004FF4807343632F4B03612F4B1B885A4240
:102D200082812E4A0025B2F9002045600446857252
:102D3000C581C0E90555C0E90755C0E90955C0E995
:102D40000B55294600921BB22A461030FFF796FE1B
:102D5000DBF80800036829465B6A9847064601F0DD
:102D6000ABF9DBF80400036829465B6A98473146F3
:102D7000054600F0A9FF2B1DC7F83C51CAF80830E2
:102D80003368C5F808A03046DB68C9F80040C8F8C9
:102D90000060F56398472B6828461B6898472146D2
:102DA00030460BF029FB236820461B6998472368AF
:102DB0005B69204603B0BDE8F04F1847A83F010803
:102DC00079430108084101084F410108F241010817
:102DD000344C01083C4B01082454012026540120A6
:102DE000705401206C540120F8B5044617460E4675
:102DF00009F0FAFE104B0025C4E955760F4E1C6011
:102E0000C4E953550E4B306823600E4BC4E951356D
:102E1000036801219B68C4E94F559847284600F094
:102E20005BFE336893F858200AB1D86C00B99868F3
:102E30000FF002F82046F8BD7C54012030540120E8
:102E4000BC4B0108A44B0108064BC0F84C310023D1
:102E5000C0F8503100F5A273C0F84801C0F8403105
:102E6000704700BF31290008064BC0F84C310023E1
:102E7000C0F8503100F5A273C0F84801C0F84031E5
:102E8000704700BFB52A0008064BC0F84C3100233C
:102E9000C0F8503100F5A273C0F84801C0F84031C5
:102EA000704700BF4D2C0008406A7047806A704729
:102EB00070478B88C0690A68DB0A50F82300104409
:102EC000704710B50446BAB1107B68B1537BD27A13
:102ED0001B0203F4E0631A43236A03EB82031A889C
:102EE0008A4202D193F9020010BD05D8013880B2A0
:102EF00004330028F3D1F7E70020F5E710B52C21C3
:102F000004460FF0E5FC204610BD000030B58BB044
:102F10000446BDF860500895BDF85C5007959DF8D3
:102F2000505006959DF84C5005959DF848500495D5
:102F30009DF8445003959DF8405002959DF83C50F3
:102F40000195BDF8385000950AF0B0FE064B23609D
:102F5000159BE361169B2362199B63621A9BA36214
:102F600020460BB030BD00BF7C4C01087047704755
:102F700070477047704730B5036885B06D46018172
:102F8000D3F88430014604462846984795E8070060
:102F90003C3484E8070005B030BD30B5036885B027
:102FA0006D464181D3F8843001460446284698474F
:102FB00095E807003C3484E8070005B030BD0022E6
:102FC000028042808280C280704780F8361070474D
:102FD00070B5036804461B6B15469847236829465D
:102FE00020465B6EBDE87040184700207047806C3B
:102FF0007047704770477047704730B4C268446884
:103000005510034604EB6200D20748BF62599B6823
:1030100030BC48BFD35818470346406830B19A685F
:103020001AB9D86800F0010070470120704710B548
:103030004C2104460FF04CFC204610BD10B5102169
:1030400004460FF045FC204610BD10B54FF4D0717A
:1030500004460FF03DFC204610BD08B5FFF7F8FB15
:1030600008BD0000036870B55E6B124B1B68044618
:103070008DB22BB9104B114A6C2111480FF056FC40
:103080001049828D0988914203D80F4B0B4A6D215C
:10309000F3E713F812200D4B1B6853F82200036866
:1030A0001B6B9847291A3346204609B2BDE8704089
:1030B000184700BF805401205E440108A044010865
:1030C000DB44010884540120224501088854012072
:1030D0006C30884208B505D109F09CFCBDE8084079
:1030E000FFF7D2BE08BD00224FF0FF31C0E900213A
:1030F0008260704770B5036804461B6B154698479D
:103100002368294620465B6BBDE8704018470000E5
:103110000022C0E90122C0E90322C0E90522C0E97A
:1031200007224FF480728284014A0260704700BF18
:10313000E44C010810B52622044600210FF0FDFDE5
:103140002046FFF7E5FF0A4B23600A4BA3624FF6C8
:10315000FF73A3854FF47F020023C4E90C32238759
:103160004FF0FF32C4E91023E363204610BD00BFD7
:10317000945501082C4B01082DE9F04F04468BB003
:10318000A34600250AF08CFF7F4BE5634BF8403BDC
:103190002622294658460FF0D0FD5846FFF7B8FFC3
:1031A0007A4B236404F16C06FF232622294684F817
:1031B00066303046A5660FF0C0FD3046FFF7A8FF29
:1031C000012384F89030724BE36604F1A00A4FF6B5
:1031D000FF73A4F89A30A4F89C3084F89E3004F170
:1031E000E8095046C4F8945084F89850FFF7A2FFBD
:1031F0004846FFF79FFF04F59A78664BC4F8E8301D
:10320000C4F830514046FFF795FF634BC4E964347E
:10321000624BC4E966354FF4A0732A4658460093C2
:103220002946F023FFF72AFC271D4FF07F43A366B2
:103230005946384605F052FF3046C7221421FFF7A1
:1032400059FF4FF0030B08AA304607A9ADF81CB090
:10325000ADF820B007F0AEFC04F5C873C4F89430A4
:103260003146384605F03AFF672250463521FFF7D0
:1032700041FF02AE4A4BC4F8D03051463046A4F864
:10328000D45007F091F996E8070004F1DC0383E8D5
:103290000700444B089350464FF00A0308A9ADF8C5
:1032A000243007F029FC5146384605F017FF2A2341
:1032B0008B2200932946F0234846FFF7DFFB3A4B69
:1032C000C4F81831D4F8E830A4F81C51D3F884308D
:1032D00049463046984796E8070004F5927383E81C
:1032E0000700324B1B6804F5BE7A2BB9304B314ACC
:1032F000602131480FF01AFB304B1B88032B03D899
:103300002F4B2C4A6121F4E72E4B5946186800F0E8
:103310001FFC2D4A03460A2150460CF0A1FB214B0D
:10332000089308A909234846C4F830A1ADF8243011
:1033300007F0E2FB4946384605F0D0FE0E22404633
:103340000721FFF7D7FE214BC4F8643141463046D0
:10335000A4F8685107F028F996E8070004F5B87357
:1033600083E807000F4B089308A902234046ADF8F5
:10337000243007F0C1FB3846414605F0AFFE204639
:103380000BB0BDE8F08F00BFF44D010824560108D2
:103390008C5601084C4D0108DC4D0108D130000865
:1033A0000A0AF0FF2C4B01081414FCFF8054012082
:1033B0005E44010860450108DB4401088454012093
:1033C000224501088C540120AB4501080FE9FCFFA0
:1033D000806A70477047704770477047704730B4D5
:1033E000C26844685510034604EB6200D20748BF28
:1033F00062599B6830BC48BFD358184703464068A1
:1034000030B19A681AB9D86800F0010070470120FD
:10341000704790F82D3080F86030704701463830A2
:1034200091F82C3013B1363107F092BD3431FBE7FF
:1034300010B5642104460FF04BFA204610BD10B5BC
:10344000102104460FF044FA204610BD10B54FF489
:103450000A7104460FF03CFA204610BD10B5044630
:10346000006B50B10368DB68984730B1206B03688C
:1034700021469B68BDE81040184710BD0B7970B518
:1034800090F82C6004460D460BB916B170BD002EA5
:10349000FCD0B3FA83F35B0984F82C302368204610
:1034A000D3F88C309847236820465B699847002EF4
:1034B000ECD02B79012BE9D123682046D3F8883052
:1034C000BDE87040184700F1C4038B4210B50446B4
:1034D00009D109F09FFAFFF7C7FC23682046DB6A91
:1034E000BDE81040184710BD0B882DE9F0418386D8
:1034F0001388B0F90850C3860446104690460CF075
:1035000069FBB4F90A30074603EBD3734046C3F3B3
:103510004F060CF093FB05EBD575C5F34F0500EB9B
:10352000D07007EBD777A6EB6002A5EB670104F13B
:10353000380012B209B2FFF7DDFD23682046D3F848
:103540008C30BDE8F041184738B5262204460D46B8
:1035500000210FF0F2FB2046FFF7DAFD064B236057
:103560002B88E384FF23204684F82830294607F07F
:10357000EFFC204638BD00BF685701082DE9F04F29
:1035800004468DB0274600250AF08AFDA24BE5636C
:1035900047F8403B2622294638460FF0CEFB3846F6
:1035A000FFF7B6FD9D4B2364FF2384F8663004F1DA
:1035B0006C0304F1980A4FF6FF7618460AA9A5662F
:1035C0000393ADF82860FFF7BFFF0AA95046ADF896
:1035D0002860FFF7B9FF4FF47F43A4F8F03040F2C2
:1035E0000113A4F8E8308E4BC4F8C43004F1FC0693
:1035F0004FF0FF3304F1C409C4F8F8300AA930468B
:10360000C4E93255C4E93455C4E93655C4E93855DE
:10361000C4F8EC50C4F8F450ADF8283004F59478B0
:10362000FFF792FF3146484605F058FD4046FFF748
:1036300081FD7C4BC4F8283104F5BA731846C4F8F0
:10364000705104F5DE7B0293FFF774FD5846FFF7D7
:1036500071FD754BC4E98634744BC4E988354FF469
:10366000A0732A46384600932946F023FFF706FA4E
:10367000261D4FF07F43A3663946304605F02EFDE8
:103680002A4603982946FFF735FD0398ADF82850E0
:103690000AA907F05DFC0399304605F01FFD3422AE
:1036A00050462946FFF726FD022350460AA9ADF8E9
:1036B000283007F04DFC5146304684F8BD5005F0E7
:1036C0000DFD012748460AAA09A9ADF82470ADF8F6
:1036D0002870FFF709FF04F50673C4F8F4302023BF
:1036E0004FF48D724846C4F80051CC210093FFF787
:1036F000C5F94946304605F0F1FC3123A622009376
:10370000642188234046FFF7B9F9494BC4F8583182
:10371000D4F82831A4F85C510DF11009D3F88430A5
:1037200041464846984799E8070004F5B27383E894
:103730000700404B1B6804F5017A2BB93E4B3F4A0A
:1037400060213F480FF0F2F83E4B1B88052B03D851
:103750003D4B3A4A6121F4E73C4B0521186800F0E3
:10376000F7F93B4A03460A2150460CF079F9042345
:10377000C4F870A10AA9DFF8E4A0ADF82C304046E7
:10378000CDF828A007F0B8F94146304605F0A6FC70
:1037900002988822B921FFF7ADFC2E4B0299C4F89C
:1037A000A4314846A4F8A85106F0FEFE99E80700A7
:1037B00004F5D87383E807000298CDF828A00AA979
:1037C000ADF82C7007F098F90299304605F086FCA8
:1037D00036225846BF21FFF78DFC1F4BC4F8EC3151
:1037E00059464846A4F8F05106F0DEFE99E8070075
:1037F00004F5FC7383E807000AA95846CDF828A011
:10380000ADF82C5007F078F93046594605F066FCC3
:1038100020460DB0BDE8F08FE04E010824560108A7
:10382000284E01084C4D0108C84E0108C734000855
:103830000C0CF5FF805401205E440108604501082E
:10384000DB44010884540120224501088C540120E6
:10385000AB450108F511B4FFF70F9EFF2C4B010893
:103860007047000030B5184D2C6814F001048FB07B
:10387000BFF35B8F24D128460FF02CF800B3134B15
:10388000134914480A94CDE90B433F230993124B83
:103890000893124B07930123CDE9053304930423C6
:1038A000CDE902430A23009340F215220D2301942F
:1038B000FFF72CFB0A480FF057F828460FF016F8D0
:1038C00004480FB030BD00BF1C460020104F010857
:1038D000942A0508204600200C820508E884050883
:1038E000613800087047000030B5184D2C6814F09E
:1038F00001048FB0BFF35B8F25D128460EF0EAFF9D
:1039000008B3134B134914480A94CDE90B433F23E2
:103910000993124B0893124B079304220223CDE91B
:1039200005320123CDE90323CDE9013414230093AB
:1039300040F215221A23FFF7E9FA0A480FF014F8AB
:1039400028460EF0D3FF04480FB030BD4C4600208F
:10395000104F0108BC470508504600201482050896
:10396000EC840508E53800087047000030B5184DB4
:103970002C6814F001048FB0BFF35B8F25D128466B
:103980000EF0A8FF08B3134B134914480A94CDE96D
:103990000B433F230993124B0893124B07930722C3
:1039A0000423CDE905320122CDE903322823009317
:1039B00040F215223323CDE90144FFF7A7FA0A4864
:1039C0000EF0D2FF28460EF091FF04480FB030BD34
:1039D0007C460020104F0108E46405088046002062
:1039E00050830508F08405086939000800207047F5
:1039F000002070470EB403B503AB002153F8042B2D
:103A0000019309F07BFF02B05DF804EB03B070474F
:103A10000CB407B504AB53F8042B019309F06EFF07
:103A200003B05DF804EB02B070470000436C10B5C2
:103A3000044673B3038F2BB9184B194AC521194893
:103A40000EF074FFC38E00EB43035B8C0BB30BF0E3
:103A50005EFA238F012B03D8134B144ACB21EEE7D8
:103A6000E28E531C9BB2092B194688BFA3F10A01B1
:103A700004EB410140F63F10498C814209D10A2BE9
:103A800004EB420228BF002304EB4303508C58840C
:103A900051842046BDE810400BF03CB9AE4501080A
:103AA000B745010862460108AC460108BA4601085C
:103AB0000BF0F7B810B586B002AC84E806001A46E1
:103AC0000AAB05930193099B00932146089B08F0DC
:103AD0003FFB06B010BD000038B518BB124B1348B1
:103AE0001C681349B4B1226822440260626822440F
:103AF0000A60A26814440F4B00221A8000F038F8C4
:103B0000054600F033F80C4B1C600C4B1D600C4B51
:103B1000188007E00B4B03600B4B0B600B4B1C68D2
:103B2000002CE8D138BD00BFB8460020B0460020C8
:103B3000AC460020B4460020805401208854012067
:103B40008454012020850508F48405087085050843
:103B5000044B1B6853F82100034B1B6803EB400028
:103B6000704700BFAC460020B04600200B207047D5
:103B700000487047BC46002010B5FFF7B5FE044C66
:103B80002060FFF7F3FE6060FFF76CFEA06010BDE1
:103B9000BC460020704710B54FF4AE7104460EF0DD
:103BA00097FE204610BD10B50446D0F8580100F02D
:103BB00016F82046BDE8104008F0D6BF10B5044600
:103BC000FFF712F9014B2360204610BD7053010826
:103BD00000225F21C0E902220260818070470368F1
:103BE000013303607047C0687047C3688B42B8BF39
:103BF000C1607047704704387047704710B5102196
:103C000004460EF065FE204610BDA0F10400F5E765
:103C100000228260024A026018324260C16070472E
:103C2000C45301088068FFF7DEBF704710B5034B2F
:103C300003600446FFF7DFF9204610BDEC5301088E
:103C400010B50446FFF7F2FF20464FF4D2710EF094
:103C50003FFE204610BD000010B50446FFF78CFA69
:103C6000034B23600023C4F8A031204610BD00BFE1
:103C7000EC530108FFF7C0B9D0F8A031013310B5FB
:103C80000446C0F8A031C06BFFF7CCFF064A0346DC
:103C90000A2104F5BE700BF0E3FE04F1E800BDE874
:103CA000104009F055BF00BF8C4701087047043829
:103CB0007047704710B5102104460EF009FE2046EB
:103CC00010BDA0F10400F5E700228260024A026004
:103CD00018324260C1607047205401088068FFF7C5
:103CE00084BF704710B5044600F50A70FCF705FD67
:103CF00004F540520023C2F8C83104F1980084F85A
:103D0000BD30BDE8104009F023BF00000E4B70B578
:103D10000546036043F2941442F65466B4420DD152
:103D200040F2B4562B5928191B68343C9847B442CA
:103D3000F8D12846FFF751FB284670BD2B592819AA
:103D40001B689847343CE9E74854010810B504461D
:103D5000FFF7DCFF204643F2CC110EF0B9FD204600
:103D600010BD0000094A02604FF480710022818476
:103D7000FF21C0E90122C0E90322C0E90522C0E910
:103D8000072280F826108262704700BF245601087F
:103D90002DE9F04FD0F88885D0F88C7589B00446AD
:103DA00000F5A96100F5097A0026A519D3464FF060
:103DB00000095BF8042F0391002A0CBF4FF07F42EB
:103DC0006FF47F42C5F81026D5F8E82505F5BD60EB
:103DD000526909F101099047B9F10A0F039905F1F8
:103DE000340542F6A003E4D106F502769E420AF1BC
:103DF000280ADAD107AB019306AB009304AA05ABFE
:103E000004F50A70FCF7CDFC069E06EB070904EBEF
:103E1000061606F5A9664FF0340A4FF4027B6FF0E0
:103E2000FF01079AA9EB07039A4202DA09B0BDE83D
:103E3000F08F049B0BFB09F503EB08020AFB02550C
:103E40002544059A9A4203DA09F101091036E8E798
:103E500056F8232092B108EB0302092A0ED8B9F1D3
:103E6000130F0BD8D5F8E8250393C5F8101652693F
:103E700005F5BD609047039B6FF0FF0101333435BA
:103E8000DFE72DE9F04F00F50A7999B0064603AA5D
:103E900008A94846FCF7ECFB002706F53A5808F15C
:103EA0000808BA4608EB070504242B6885F826A005
:103EB00028465B699847013C05F13405F5D1D037B8
:103EC000B7F5507FEED107AB019306AB00934846A0
:103ED00005AB04AA08A9FCF764FC08AD4FF034094F
:103EE0004FF0D00A42F6B06BA846002758F8043BC2
:103EF000FBB1049ABA1A032A1BDC069BE31A032BB4
:103F000017DC09FB02F20AFB03F3D11831444FF02E
:103F1000FF2041F80B0042F6AE604FF0FF0C01F8B5
:103F200000C042F68860034413440A58F0185269EE
:103F300090470137042FD9D10134042C05F1100525
:103F4000D2D119B0BDE8F08F00F540532DE9F74309
:103F5000D3F8C8510135C3F8C851142395FBF3F2C7
:103F600003FB12550446002D40F09D8000F50A76B3
:103F70003046FCF70FFD074600283CD14B4D286822
:103F800003F0F4F878B10A2328683A460DF10701E6
:103F900003F0BCF89DF80730522B7CD071D8442B2D
:103FA0007DD04C2B73D03046FCF7D2FCD4F898353A
:103FB0003F4A0A2104F501700BF052FD04F594709C
:103FC00009F0C6FDD4F89815E06BFFF787FE94F86A
:103FD0009C353BB100223748114602F02EFF0023EA
:103FE00084F89C352046FFF7D3FE204603B0BDE899
:103FF000F043FFF746BFA84642F6A0092E19002756
:10400000D6F8E83586F80D8606F5BD605B690137A0
:1040100098470A2F06F13406F2D105F502754D4591
:10402000ECD1002604F53A5909F10809374609EBA5
:1040300006054FF000082B6885F8257028465B6957
:1040400008F101089847B8F1040F05F13405F2D1E1
:10405000D036B6F5507FEAD1012304F1980084F8F8
:10406000997184F8E17184F84D7184F8BD3009F0DC
:104070006FFDD4F89815E06B03B0BDE8F043FFF78F
:104080002DBE542B8FD13046FCF7DEFC8BE730463B
:10409000FCF798FC87E73046FCF7A7FC83E730463F
:1040A000FCF7B6FC7FE703B0BDE8F0831401002005
:1040B0008C470108311200082DE9F04F044687B003
:1040C000FFF75CFA04F53A55484B236004F50A7093
:1040D0000835DFF81C81FCF730FB04F5BD6703955C
:1040E0004FF000093E463046FFF73CFE343607F5F8
:1040F000027346F8348C46F8089C26F8049C9E42CD
:10410000F1D1AE423746EDD104F5475608360027C7
:1041100005F1D0092846FFF725FE343545F8348CE3
:1041200045F8087C25F8047C4D45F3D1B542EFD124
:1041300000274FF4027A4FF07F4B3A0112B20AFB8C
:10414000074600254FF00109102306F5BD60C6F8AB
:1041500014B6A6F8189629B2009305920490FEF7BB
:104160008DFC049886F80D9604F10408103501467C
:10417000ADB2404604F0B2FFA02D059A06F1340618
:10418000E2D10137142FD8D100274FF05A09BA468F
:104190004FF0010B039B0FFA89F2DD19C3260823A8
:1041A00085F826A0A5F830B031B22846009308362D
:1041B0000492B6B2FEF762FC85F825B02946404667
:1041C00004F08CFFE32E049A05F13405E7D1D037D3
:1041D00009F10809B7F5507F1FFA89F9DAD12046AD
:1041E00084F8BDA007B0BDE8F08F00BF48540108B7
:1041F00000570108F02070474FF4A0707047292045
:10420000FCF7C6BF2820FCF7C3BF08B5FCF794FF36
:10421000CA20FCF7BDFFC320FCF79EFF0820FCF777
:104220009BFF5020FCF798FFCF20FCF7B1FF002048
:10423000FCF792FFC120FCF78FFF3020FCF78CFFCA
:10424000ED20FCF7A5FF6420FCF786FF0320FCF7B8
:1042500083FF1220FCF780FF8120FCF77DFFE82020
:10426000FCF796FF8520FCF777FF0020FCF774FF32
:104270007820FCF771FFCB20FCF78AFF3920FCF790
:104280006BFF2C20FCF768FF0020FCF765FF342053
:10429000FCF762FF0220FCF75FFFF720FCF778FFD6
:1042A0002020FCF759FFEA20FCF772FF0020FCF702
:1042B00053FF0020FCF750FFB120FCF769FF0020FE
:1042C000FCF74AFF1B20FCF747FFB620FCF760FF16
:1042D0000A20FCF741FFA220FCF73EFFC020FCF7BC
:1042E00057FF1020FCF738FFC120FCF751FF1020CA
:1042F000FCF732FFC520FCF74BFF4520FCF72CFFF5
:104300001520FCF729FFC720FCF742FF9020FCF79F
:1043100023FF3620FCF73CFFC820FCF71DFFF220EE
:10432000FCF736FF0020FCF717FFB020FCF730FF4A
:10433000C220FCF711FFB620FCF72AFF0A20FCF789
:104340000BFFA720FCF708FF2720FCF705FF042040
:10435000FCF702FF2A20FCF71BFF0020FCF7FCFE05
:104360000020FCF7F9FE0020FCF7F6FEEF20FCF73A
:10437000F3FE2B20FCF70CFF0020FCF7EDFE0020E5
:10438000FCF7EAFE0120FCF7E7FE3F20FCF7E4FE25
:10439000F620FCF7FDFE0120FCF7DEFE0020FCF716
:1043A000DBFE0620FCF7D8FE2C20FCF7F1FEC8202F
:1043B000FCF73CFF2620FCF7EBFE0120FCF7CCFECF
:1043C000E020FCF7E5FE0F20FCF7C6FE2920FCF7F5
:1043D000C3FE2420FCF7C0FE0C20FCF7BDFE0E201F
:1043E000FCF7BAFE0920FCF7B7FE4E20FCF7B4FE3E
:1043F0007820FCF7B1FE3C20FCF7AEFE0920FCF76C
:10440000ABFE1320FCF7A8FE0520FCF7A5FE172045
:10441000FCF7A2FE1120FCF79FFE0020FCF79CFE9B
:10442000E120FCF7B5FE0020FCF796FE1620FCF715
:1044300093FE1B20FCF790FE0420FCF78DFE11205C
:10444000FCF78AFE0720FCF787FE3120FCF784FE8C
:104450003320FCF781FE4220FCF77EFE0520FCF7AE
:104460007BFE0C20FCF778FE0A20FCF775FE282066
:10447000FCF772FE2F20FCF76FFE0F20FCF76CFE9E
:104480001120FCF785FEC820FCF7D0FE2920FCF7A0
:104490007FFEBDE808402C20FCF77ABE08B5FCF78B
:1044A0004BFE0321D320FCF78FFE80B208BD10B570
:1044B000C4B2022203212046FCF7F4FD0A20FCF7D7
:1044C00039FE204600220321FCF7ECFDBDE8104038
:1044D0000220FCF72FBE38B50446E4B2FCF7E0FD3D
:1044E00000212046FCF7F6FD012105462046FCF799
:1044F000F1FD40EA052080B238BD10B5C4B24021BC
:104500002046FCF7E7FD030607D54C212046FCF7C3
:10451000E1FD003818BF012010BD01224B212046CB
:10452000FCF7C0FD204600224B21FCF7BBFD00201C
:10453000F2E773B50423C4B20E461546D7210DEB3E
:1045400003022046FCF7E0FD019B1BBA1A0DC3F3E2
:104550000B23328020462B8001224B21FCF7A2FD49
:1045600000224B212046FCF79DFD02B070BD0000EB
:1045700010B50A4A1378984204460DD05178884203
:104580000AD00BB141B90123D454FCF789FD204670
:10459000BDE81040FFF78BBF10BD00BFC84600202C
:1045A00010B5C4B209212046FCF794FD40F0010289
:1045B000D2B220460921BDE81040FCF773BD10B50A
:1045C000C4B209212046FCF785FD092100F0FE0256
:1045D0002046BDE81040FCF765BD38B5C4B20D46B5
:1045E00020460A21FCF776FD40EA0502D2B22046B9
:1045F0000A21BDE83840FCF755BD10B50446FCF76C
:1046000050FD20461F21FFF7E8FF2046BDE810407F
:10461000FFF7C6BF38B5C4B20D4620460A21FCF7E5
:1046200059FD20EA0502D2B220460A21BDE83840F1
:10463000FCF738BD10B50446FFF7C1FF20461F2127
:10464000BDE81040FFF7E6BF10B5C0B20C460B2125
:10465000FCF740FD204010BD1F21FFF7F5BF0A46C3
:10466000C0B20B21FCF71EBD1F21FFF7F8BF38B504
:10467000C4B20D4620461721FCF72CFD20EA0502A6
:10468000D2B220461721BDE83840FCF70BBD70B50B
:10469000C4B2064604212046FCF71CFD042100F0AC
:1046A000FB0205462046FCF7FDFC3046F021FFF7F3
:1046B000DEFF05F0F80220460421FCF7F3FC492256
:1046C00020212046FCF7EEFC0220FCF733FD2046BB
:1046D00001222121FCF7E6FC20469A224121FCF729
:1046E000E1FC204601224A21FCF7DCFC20460122A5
:1046F0004B21FCF7D7FC204600224B21FCF7D2FCD3
:10470000204601225621FCF7CDFC204601225821EB
:10471000FCF7C8FC204601224021FCF7C3FC2046E0
:10472000FF220B21FCF7BEFCBDE870400220FCF725
:1047300001BD0000054BD3F8882042F47002C3F895
:1047400088204FF000629A60704700BF00ED00E0E3
:1047500008B50B4B1A6842F400721A601A6842F4EA
:1047600080621A601A6842F480721A60032000F0B6
:104770002FF80020FCF7F6FFFCF78AFD002008BDAB
:10478000003C0240034A044B11681B780B44136041
:10479000704700BFCC46002078000020014B18680D
:1047A000704700BFCC46002038B50446FFF7F6FF3F
:1047B000631C1CBF054B1B78054618BFE418FFF7A8
:1047C000EDFF431BA342FAD338BD00BF78000020A1
:1047D0000749CA6822F4E0620302120403F4E063AA
:1047E000120C134343F0BF6343F40033CB607047B4
:1047F00000ED00E0164B30B5DC68C4F30224C4F1D0
:104800000703251D042B28BF0423062D4FF0FF3579
:104810008CBF033C002405FA03F321EA0303A540FF
:1048200022EA0502A340002843EA0203ACBF00F1DC
:104830006040084A4FEA0313B8BF00F00F00DBB234
:10484000AABF00F56140135480F8003330BD00BFAB
:1048500000ED00E014ED00E0002807DB4109044A08
:1048600000F01F000123834042F82130704700BF51
:1048700000E100E010B5044650B1437903F0FF02B7
:1048800013B90271FCF724FD01236371002010BDF0
:104890000120FCE710B5044620B390F8393003F04E
:1048A000FF021BB980F83820FCF72AFD022384F8A8
:1048B0003930236861681A6822F440320A431A606A
:1048C0005A6BA16822F007020A435A631A6CE16826
:1048D0006FF30D020A431A6400200123E06384F899
:1048E000393010BD0120FCE770477047036870B590
:1048F0005E681D68F207044614D5E90512D51A68EA
:1049000022F480721A60C26B42F00102C26301227B
:104910009A60042380F83930002380F838304369E6
:1049200003B19847B20616D5AB0414D523681A68AC
:1049300022F400521A6020229A60E36B43F00203D3
:10494000E363042384F83930002384F83830636942
:104950000BB120469847300716D5290514D5236892
:104960001A6822F400621A6008229A60E36B43F02E
:104970000403E363042384F83930002384F83830D7
:1049800063690BB12046984772070BD56B0509D5B3
:1049900023681A6822F480621A6004229A60204612
:1049A000FFF7A2FFB00714D5A90512D523681A682E
:1049B00022F400721A6002229A60E36BE36301231F
:1049C00084F83930002384F8383023690BB120464D
:1049D0009847F20613D5EB0411D523681A6822F420
:1049E00080521A6010229A60E36BE363012384F81B
:1049F0003930002384F838302046FFF776FF70BD49
:104A0000F0B590F83820012A03464FF002002BD071
:104A1000012283F8382083F8390003EB0112D2E930
:104A20000740556A174F44EA0040093C012C9CBFDF
:104A300005F07F4210434FEA01161A6888BF40EA2A
:104A4000056091B9516A394001435162012C99695D
:104A5000916103D8596A21F07F41916201220020BF
:104A600083F8392083F83800F0BDD169394001431B
:104A7000D1619919012C896911619CBF25F07F458D
:104A80001562EBE7F0FFFC002DE9F74FDFF8BC9172
:104A90006C4A00230D6801249C4004EA0506AC43DF
:104AA00040F0B7804D68032705F003044FEA430840
:104AB00007FA08FC671E012F6FEA0C0C34D88768D0
:104AC00007EA0C0ECF6807FA08F747EA0E07876077
:104AD000476827EA060EC5F300179F4047EA0E070E
:104AE0004760C76807EA0C0E8F6807FA08F747EABD
:104AF0000E07022CC76019D14FEAD30A00EB8A0ACD
:104B000003F0070BDAF820704FEA8B0B4FF00F0E13
:104B10000EFA0BFE27EA0E0E0F6907FA0BF747EAAB
:104B20000E07CAF8207001E0032CDAD1076804FAF6
:104B300008F407EA0C073C4315F4403F046068D0D2
:104B400000240194D9F8444044F48044C9F8444016
:104B5000D9F8444023F0030707F1804704F4804468
:104B600007F59C37019403F0030C019CD7F808E08B
:104B70004FEA8C0C0F2404FA0CF42EEA040E324C8B
:104B8000A0424DD004F58064A0424BD004F580646F
:104B9000A04249D004F58064A04247D004F5806467
:104BA000A04245D004F58064A04243D004F580645F
:104BB000A04241D004F58064A0423FD004F5806457
:104BC000A0423DD004F58064A04214BF0A24092409
:104BD00004FA0CF444EA0E04BC609468F74315F43C
:104BE000801F0CBF3C4034439460D46815F4001F10
:104BF0000CBF3C403443D460546815F4003F0CBFF4
:104C00003C40344354601468ED0354BF3C4034438B
:104C100014600133102B7FF43DAF03B0BDE8F08F7B
:104C20000024D5E70124D3E70224D1E70324CFE70A
:104C30000424CDE70524CBE70624C9E70724C7E70A
:104C40000824C5E7003C0140000002400038024053
:104C50000369194214BF0120002070470AB1816125
:104C600070470904FBE7436901EA030221EA0301F3
:104C700041EA02418161704701684B6913F4806326
:104C80004FF0000210D06FF480634B612023026369
:104C900080F83D3080F83E20036C80F83C2043F0E3
:104CA0000403036401207047184670472DE9F84655
:104CB00006460F4691461D464FEA114A3368BAF13F
:104CC000010F0CBF5C699C6927EA0404A4B2B4FA22
:104CD00084F46409A14501D0002017E06A1CEED0DD
:104CE000FFF75CFD089BC01AA84201D8002DE5D152
:104CF00000232022336386F83D2086F83E30326C54
:104D000086F83C3042F0200232640120BDE8F8868B
:104D10002DE9F04104460F46164698462568686915
:104D200027EA000080B2C0B16B695A0517D52B681D
:104D300043F400732B606FF480636B6120220023C7
:104D4000236384F83D2084F83E30236C43F0040351
:104D50002364002384F83C300120BDE8F081731CFB
:104D6000DDD0FFF71BFDA0EB0800B04209D90023FE
:104D70002022236384F83D2084F83E30236C1343C3
:104D8000E6E7002ECAD1F2E770B504460D46164696
:104D900023685B691B0601D5002018E02046FFF759
:104DA0006BFF98B96A1CF3D0FFF7F8FC801BA84290
:104DB0000ED900232022236384F83D2084F83E305E
:104DC000226C84F83C3042F020022264012070BD45
:104DD000002DDDD1EDE700002DE9F0431546026816
:104DE00085B0DDE90C789946136843F4807313604D
:104DF0000E463B46CDF8008000224FF001110446DC
:104E0000FFF754FF236838B11B68DB0502D54FF468
:104E100000732364032620E006F0FE061E611A4993
:104E200043463A462046FFF773FFA8B9236803902C
:104E30005A6903929B690393424639462046039B75
:104E4000FFF7A2FF064660B1236C042B01BF226866
:104E5000136843F4007313600126304605B0BDE8C3
:104E6000F083B9F1010F236802D1EDB21D61F4E7BF
:104E70002A0A1A61394642462046FFF785FF002874
:104E8000E2D12368F1E700BF020001002DE9FF47EE
:104E90009A46036815461A6842F480621A601A68D6
:104EA000DDE90C7842F480721A600E463B46CDF87C
:104EB000008000224FF001110446FFF7F7FE23683F
:104EC00038B11B68DB0544BF4FF400732364032033
:104ED00021E05FFA86F906F0FE061E612B49434683
:104EE0003A462046FFF714FFA0B9236803905A6999
:104EF00003929B690393424639462046039BFFF782
:104F000043FF58B1236C042B01BF2268136843F49C
:104F100000731360012004B0BDE8F087BAF1010FFF
:104F200023681AD1EDB242461D6139462046FFF78B
:104F30002BFF02460028E5D121680B6843F48073FB
:104F40000B602046CDF800803B464FF00111FFF783
:104F5000ADFE226860B11368B4E72A0A1A613946C7
:104F600042462046FFF710FF0028CBD12368D9E73F
:104F700049F001031361054943463A462046FFF7CD
:104F8000C7FE003818BF0120C5E700BF02000100BE
:104F900070B504460D46164623685B695B0701D56C
:104FA000002018E02046FFF767FE98B96A1CF3D08E
:104FB000FFF7F4FB801BA8420ED9002320222363B5
:104FC00084F83D2084F83E30226C84F83C3042F076
:104FD00020022264012070BD002DDDD1EDE770B507
:104FE00004460D46164621684B6913F0400301D074
:104FF000002011E04A69D2060FD56FF010024A6115
:105000002022236384F83D2084F83E30236C2364FF
:10501000002384F83C30012070BDFFF7BFFB801BEC
:10502000A84209D900232022236384F83D2084F874
:105030003E30236C1343EAE7002DD4D1F2E70000A1
:1050400070B5044608B9012070BD90F83D3003F0FA
:10505000FF021BB980F83C20FCF774F9242384F884
:105060003D3023681A6822F001021A601A6842F47F
:1050700000421A601A6822F400421A6000F066FECC
:105080003F4B65689D4294BF3E4B3F4B98428CBF5F
:1050900000230123002BD6D12268394E51683B4BA7
:1050A000B0FBF3F321F03F011943B542516088BFD3
:1050B0004FF49676116A88BF734321F03F0184BF95
:1050C0004FF47A76B3FBF6F301330B431362D169E5
:1050D000431E2B4821F44F41854221F0FF0132D875
:1050E0006D0040F6FC70B3FBF5F30133034242D090
:1050F000C3F30B031943D161D4E9073011680343AB
:1051000021F0C0010B4313609168D4E9030321F43B
:105110000341034321F0FF010B439360D4E90530C1
:10512000D168034321F0FF010B43D360136843F0C0
:105130000103136000202023206484F83D302063A5
:1051400084F83E0080E7A06850B905EB4505B3FB45
:10515000F5F30133C3F30B037BB143F40043C9E719
:1051600019206843B3FBF0F30133C3F30B0323B1FE
:1051700043F44043BEE70423BCE70123BAE700BF82
:10518000A08601007F841E00FF083D0040420F0002
:105190002DE9F743044699460C9E0F469046FFF7CB
:1051A000FDFA94F83D30202B054603D0022003B0D1
:1051B000BDE8F08300903C49192301222046FFF707
:1051C00075FD0028F2D194F83C30012BEED0206818
:1051D000012384F83C300368D9075EBF036843F0BD
:1051E00001030360036823F400630360212384F850
:1051F0003D30402384F83E30002323640A9B6362E1
:10520000BDF82C306385638D2385284BE3624246CD
:10521000CDE900654B4639462046FFF7DDFD002805
:105220002AD00120C3E7FFF7AFFD40B1236C042B68
:1052300001BF2268136843F400731360F1E7636AE7
:1052400027681A4612F8011B39616262628D218D4E
:10525000013A92B262857A69481E80B2520720856F
:105260000AD548B15A783A6102336362638D013BD3
:1052700002399BB221856385238D2A46314620461B
:10528000002BD0D1FFF784FE0028CFD1226813680D
:1052900043F400731360202384F83D3084F83C000D
:1052A00084F83E0083E700BF020010000000FFFF0B
:1052B0002DE9F043044687B09946109F0D4690466D
:1052C000FFF76CFA94F83D30202B064604D00225F7
:1052D000284607B0BDE8F0830090764919230122E3
:1052E0002046FFF7E3FC0028F1D194F83C30012B75
:1052F000EDD02068012384F83C300368DB075EBFF3
:10530000036843F001030360036823F40063036050
:10531000222384F83D30402384F83E300023236468
:105320000E9B6362BDF83C306385638D2385624BC1
:10533000E3622946CDE900764B4642462046FFF718
:10534000A5FD054608B10125C2E7228D2368B2B943
:1053500002905A6902929A690292029A1A6842F479
:1053600000721A60DFF85481238D002B2CD120228B
:1053700084F83D2084F83C3084F83E30A8E7012AC8
:105380000AD11A6822F480621A6003905A69039263
:105390009A690392039AE1E7022A0ED11A6822F46D
:1053A00080621A601A6842F400621A6004905A69B6
:1053B00004929B690493049BD4E705905A69059273
:1053C0009B690593059BCDE7032B56D8012B15D17F
:1053D000324639462046FFF702FE0028B3D1236843
:1053E0001A69636A1A70636A01336362238D013B31
:1053F0002385638D013B9BB26385B5E7022B009645
:105400003B464FF000024146204619D1FFF74EFCC3
:10541000002898D123681A6842F400721A601A6949
:10542000636A1A70626A531C6362238D013B238591
:10543000638D013B9BB2638523681B695370D2E780
:10544000FFF734FC024600287FF47DAF236819681B
:1054500021F4806119601969636A1970636A013304
:105460006362238D013B2385638D013B9BB2638582
:10547000414600963B462046C8E73246394620461C
:10548000FFF7ADFD00287FF45EAF23681A69636AF9
:105490001A70626A531C6362238D013B2385638DFE
:1054A000013B9BB263852368596949077FF55CAF6F
:1054B000C3E700BF020010000000FFFF040001006E
:1054C00010B590F83D30202BDCB216D1242380F8A3
:1054D0003D3003681A6822F001021A605A6A22F00D
:1054E00010025A625A6A114359621A6842F0010264
:1054F0001A6080F83D40002010BD0220FCE730B566
:1055000090F83D30202BDCB216D10268242380F8BD
:105510003D30136823F001031360556A4FF6F073B2
:105520002B400B439BB25362136843F0010313609B
:1055300080F83D40002030BD0220FCE70068D1F833
:1055400000C0D201843283182DE9F043C6685D683B
:105550004C68D1F8189005F470455D60C5680CF191
:105560000107C5F30B45C6F30B4626443D4445EA07
:1055700006455D60C668CD68C6F30A062E449D6880
:1055800005F470459D60C7688D68C7F30A0701354B
:105590003D4445EA06459D601D690E6925F00705F5
:1055A0001D614FF0000E1E6191F832709D6991F8F7
:1055B0003180C3F818E091F8305045EA096545EAB2
:1055C000082545EA07459D615D6925F0FF055D6198
:1055D0004D695D61DD6925F4E06525F00705DD6154
:1055E000D1E907573D43DD619D6A4D6AC3F828E064
:1055F000072E9D629CBF0E4DAE5DDD6A05F0E02575
:10560000DD6288BF01268D6AC96AA4EB0C0474436D
:105610007543033444EA0544DC621C6B6FF30A04EF
:105620001C631963835843F001038350BDE8F08382
:105630009054010838B50446002863D090F8A13092
:1056400003F0FF021BB980F8A020FBF7D7FE02236E
:1056500084F8A13023689A6922F070429A61D4E9F3
:1056600001200243E06899690243206902430A432A
:105670009A619A68244960690A409A609A6842EA85
:105680000042A06902439A60DA68E0690A40DA6081
:10569000DA6842EA0042206A0243DA601A69606A04
:1056A0000A401A611A6942EA0042A06A02431A617A
:1056B0005A690A405A615A69E16A42EA0142216B19
:1056C0000A435A61DA6A94F8350094F8361002F009
:1056D0007F42DA62DD6A94F834202A4342EA0022EB
:1056E00042EA0142DA625A6B42F006025A639A6950
:1056F00042F001029A6100200123C4F8A40084F85A
:10570000A13038BD0120FCE700F800F07047704779
:10571000036870B59E6B5D6B7207044614D569070C
:1057200012D55A6B22F004025A630422DA63D0F8CD
:10573000A43043F00103C0F8A430002380F8A12076
:1057400080F8A030FFF7E2FFB20716D5AB0714D5FB
:1057500023685A6B22F002025A630222DA63D4F8F9
:10576000A4301343C4F8A430042384F8A1300023E8
:1057700084F8A0302046FFF7C9FFF00710D5E907ED
:105780000ED523685A6B22F001025A630122DA63B4
:10579000002384F8A12084F8A0302046FCF7A4FE62
:1057A000320711D52B070FD523685A6B22F0080258
:1057B0005A630822DA63012384F8A130002384F8B5
:1057C000A0302046FFF7A3FF70BD2DE9F04190F80F
:1057D000A030012B06460F4694464FF002001FD022
:1057E0004FF0010886F8A08086F8A10034240D4609
:1057F00004FB02640FCD38340FC40FCD0FC40FCD9E
:105800000FC42B682360304662463946FFF796FE88
:1058100033680020C3F8248086F8A18086F8A000B1
:10582000BDE8F08190F8A020012A03464FF0020065
:1058300012D01A6883F8A100506B20F00100506369
:1058400006480164516B41F00101516300200122BF
:1058500083F8A12083F8A000704700BF00680140D2
:105860002DE9F341044640B30368DE0710D42368F2
:105870009D075BD42368190700F19D8023685A07B0
:1058800000F1BD80A369002B40F0248100202CE0B2
:105890008D4B9A6802F00C02042A07D09A6802F035
:1058A0000C02082A0BD15B68590208D5864B1B688D
:1058B0009A03DCD56368002BD9D1012015E0636819
:1058C000814DB3F5803F13D12B6843F480332B60B7
:1058D000FEF764FF7C4E054633689B03C7D4FEF792
:1058E0005DFF401B6428F7D9032002B0BDE8F081BA
:1058F000B3F5A02F04D12B6843F480232B60E3E79A
:105900002A6822F480322A602A6822F480222A60DF
:10591000002BDDD1FEF742FF06462B689F03A6D57C
:10592000FEF73CFF801B6428F7D9DDE7664B9A68D9
:1059300012F00C0F07D09A6802F00C02082A11D15D
:105940005B685D020ED4604A1368990702D5E3686C
:10595000012BB2D11368216923F0F80343EAC10394
:10596000136087E7E268594BB2B101221A60FEF773
:1059700015FF554D06462B689B0707D52B682269F6
:1059800023F0F80343EAC2032B6073E7FEF706FF38
:10599000801B0228EFD9A7E71A60FEF7FFFE4A4EE8
:1059A000054633689F077FF565AFFEF7F7FE401B9E
:1059B0000228F6D998E76269444B82B10122C3F804
:1059C000802EFEF7EBFE404E0546736F9B073FF5BA
:1059D00055AFFEF7E3FE401B0228F6D984E7C3F873
:1059E000802EFEF7DBFE384E0546736F9F077FF56E
:1059F00045AFFEF7D3FE401B0228F6D974E7324BC1
:105A00001A6C12F0805228D101921A6C42F0805226
:105A10001A641B6C03F080530193019B01272C4DEA
:105A20002B68D8051BD5A368274D012B27D12B6FD9
:105A300043F001032B67FEF7B1FE234E054641F20A
:105A40008838336F9A0739D5002F3FF41BAF1E4AB1
:105A5000136C23F08053136414E70027DFE72B68EF
:105A600043F480732B60FEF799FE06462B68D90538
:105A7000D9D4FEF793FE801B0228F7D934E7052B13
:105A800004D12B6F43F004032B67D0E72A6F22F079
:105A900001022A672A6F22F004022A67002BCAD16A
:105AA000FEF77CFE41F2883806462B6F9B07CBD56C
:105AB000FEF774FE801B4045F7D915E7FEF76EFE32
:105AC000401B4045BDD90FE7003802400000474267
:105AD00000700040374DAA6802F00C02082A3ED040
