:020000040800F2
:1000000000000320BD0500082D1900082F19000865
:1000100031190008331900083519000800000000E4
:1000200000000000000000000000000061780008EF
:100030003719000800000000F1780008437000083C
:100040000D0600080D0600080D0600080D06000844
:100050000D0600080D0600085D1900080D060008D1
:10006000791900087F1900080D0600080D06000820
:100070000D0600080D0600080D0600080D06000814
:100080000D0600080D0600080D0600080D06000804
:100090000D0600080D0600080D0600080D060008F4
:1000A0000D0600080D0600080D0600080D060008E4
:1000B0000D0600080D0600080D0600080D060008D4
:1000C0000D0600080D0600080D0600080D060008C4
:1000D0000D0600080D0600080D0600080D060008B4
:1000E000631900080D0600080D0600080D0600083B
:1000F0000D0600080D0600080D0600080D06000894
:100100000D0600080D0600080D0600080D06000883
:100110000D0600080D060008391900080D06000834
:100120000D0600080D0600080D0600080D06000863
:100130000D0600080D0600080D0600080D06000853
:100140000D0600080D0600080D0600080D06000843
:100150000D0600080D0600080D0600080D06000833
:100160000D0600080D0600080D0600080D06000823
:100170000D0600080D0600080D060008000000002E
:100180000D0600080D0600080D0600080D06000803
:100190000D0600080D0600080D0600080D060008F3
:0C01A000451900080D0600085119000860
:1001B00010B5054C237833B9044B13B10448AFF3A1
:1001C00000800123237010BDF40000200000000017
:1001D0008C3F010808B5034B1BB103490348AFF33B
:1001E000008008BD00000000F80000208C3F0108DE
:1001F00001F0FF01102A2BDB10F0070F08D010F8D8
:10020000013B013A8B422DD010F0070F42B3F6D1DB
:10021000F0B441EA012141EA014122F007047FF0F4
:1002200000070023F0E80256083C85EA010586EA4B
:10023000010685FA47F5A3FA87F586FA47F6A5FA87
:1002400087F68EB9EED1F0BC01F0FF0102F0070293
:1002500032B110F8013B013A83EA010313B1F8D13E
:100260000020704701387047002D06BF354603381F
:10027000073815F0010F07D1013015F4807F02BF58
:10028000013015F4C03F0130F0BC0138704700BFA9
:1002900053B94AB9002908BF00281CBF4FF0FF31ED
:1002A0004FF0FF3000F088B9ADF1080C6DE904CED5
:1002B00000F006F8DDF804E0DDE9022304B0704741
:1002C0002DE9F047089D8E4604468846002B4AD10A
:1002D0008A42174662D9B2FA82F64EB1C6F12003BD
:1002E00001FA06F820FA03F3B74043EA0808B440DD
:1002F0004FEA174E1FFA87FCB8FBFEF1230C0EFBEA
:10030000118843EA084301FB0CF29A4209D9FB1811
:1003100001F1FF3080F0EA809A4240F2E780023932
:100320003B449A1AA3B2B2FBFEF00EFB102243EA42
:10033000024300FB0CFC9C4509D9FB1800F1FF327D
:1003400080F0D6809C4540F2D3803B44023840EA9E
:100350000140A3EB0C0300211DB1F3400022C5E9CD
:100360000032BDE8F0878B4205D90DB1C5E9000127
:1003700000210846F5E7B3FA83F1002946D1734519
:1003800002D3824200F20581841A6EEB030201203F
:100390009046002DE5D0C5E90048E2E7002A00F0CC
:1003A0009080B2FA82F6002E40F0A4808A1A030CE4
:1003B0004FEA174E80B2BCB20121B2FBFEFC0EFB2D
:1003C0001C2243EA024304FB0CF29A4207D9FB18B1
:1003D0000CF1FF3802D29A4200F2E080C4469B1A28
:1003E000B3FBFEF20EFB123340EA034302FB04F4BC
:1003F0009C4207D9FB1802F1FF3002D29C4200F266
:10040000CA8002461B1B42EA0C40A5E7C1F1200648
:100410008B4022FA06F71F430EFA01F420FA06F386
:100420002EFA06FE4FEA1749234300FA01F81FFA95
:1004300087FCBEFBF9F01C0C09FB10EE44EA0E44ED
:1004400000FB0CFEA64502FA01F209D93C1900F1A5
:10045000FF3A80F09C80A64540F2998002383C44E7
:10046000A4EB0E041FFA83FEB4FBF9F309FB13445B
:100470004EEA044403FB0CFCA44508D93C1903F1E3
:10048000FF3E80F08280A4457FD9023B3C4443EA92
:100490000040A4EB0C04A0FB02EC64457346E1466B
:1004A00062D35FD05DB1B8EB030264EB090404FAD8
:1004B00006F622FA01F31E43CC40C5E90064002190
:1004C0004FE7B1FBF2FC010C41EA0E4180B240EA79
:1004D00001423B4638463C46B846BE462026B1FB64
:1004E000F7F1A2EB080241EA0C4166E7014618E782
:1004F00010462CE7C6F120022EFA02F3B740B140B5
:1005000020FA02F24FEA174E0A43B3FBFEF8BCB2E0
:100510000EFB1833110C41EA034108FB04F9B0400B
:1005200089454FEA104380B23ED9791808F1FF3C63
:1005300001D289451FD8A1EB0901B1FBFEF909FBE6
:1005400004F80EFB191192B242EA0142424529D247
:10055000BA1809F1FF31C4D24245C2D2A9F1020151
:100560003A44BEE7F0459DD2BEEB02036CEB070CAC
:100570000138E14696E7A7EB09094944A8F1020CC6
:10058000B1FBFEF909FB04F8DBE773467FE7504651
:1005900066E70846FDE63B44023A33E7ACF1020C5D
:1005A0003B441CE749469CE7A1EB0901C446B1FB6B
:1005B000FEF909FB04F8C4E7704700BFDFF834D048
:1005C000002103E00C4B5B58435004310B480C4BAB
:1005D00042189A42F6D30B4A02E0002342F8043B49
:1005E000094B9A42F9D304F0DDF912F061FF00F0F3
:1005F0003DFC704700000320D0030F0800000020DE
:10060000F4000020F4000020B8570120FEE70000AD
:1006100038B5044606F04EFD0723B0FBF3F3C3EBF9
:10062000C303C01AC4F87C0310B3012814BF03230A
:100630000223C4F8783306F03DFD0723B0FBF3F343
:10064000C3EBC303D4F87C23C01A0A4BC4F8C40319
:1006500003EB821304F5607403F140051A4603CAE4
:10066000AA4220606160134604F10804F6D138BD47
:100670000423DEE7F43F0108F0B500F56075064697
:1006800094461F460C460FCD0FC40FCD0FC40FCD9F
:100690000FC495E80F0084E80F00D6F87833CCF843
:1006A0000030D6F8C423024B33F812303B80F0BD43
:1006B000E43F0108D0F87C33013310B5044601D182
:1006C000FFF7A6FF234604F14002D3F88013C3F8D6
:1006D0002013D3F88413C3F82413D3F88813C3F872
:1006E0002813D3F88C13C3F82C1310339342ECD196
:1006F000D4F87833C4F86833C3F10A0303EBD37337
:100700005B10D4F8C423C4F860330023C4F8C023BA
:10071000C4F864332046BDE81040FFF779BF10B538
:100720000346044600F5487100208B4212D1002395
:100730004FF0FF32204684F86C33C4F87033C4F8AD
:100740007C23C4F8C433FFF763FF2046BDE81040A4
:10075000FFF7B0BF1A4628339342E6D042F8040BA5
:10076000FAE710B50446FFF7DAFF204610BDF0B5F2
:10077000054691B00C4640220021684612F0EFFD7C
:10078000D5F8682300230DEB820104EB82009A4226
:100790000CDC6D460FCD0FC40FCD0FC40FCD0FC4B1
:1007A00095E80F0084E80F0011B0F0BD04EB0315CD
:1007B0000E4655F8047B46F8047C854206F1100687
:1007C000F7D1013304391030E1E7F0B5D0F86843D0
:1007D0001460DDE9056C00241C60D0F868533560B6
:1007E000CCF80040D0F86853A5421FDD01EB041E91
:1007F000002515E05EF8047B8FB11768AF42C8BFD3
:1008000015601F68AF42B8BF1D603768A742C8BFF8
:100810003460DCF80070A742B8BFCCF80040013566
:10082000D0F86873AF42E5DC0134DBE7F0BD2DE9B9
:10083000F04F87B00E46194605AB019304AB144642
:10084000009302AA03ABFFF7C0FF0546DDE9040EE3
:10085000DDE902BC021905EB86054FF02808864544
:100860001CDB01EB001908FB02575C460DE059F850
:1008700024304BB104EB060ABAF1090F0AD8132A47
:1008800008D857F824302BB90134A445EFDA0130E9
:100890000132E4E7012007B0BDE8F08F0020FAE75D
:1008A0002DE9F0474FF0280E064613274FF00109B7
:1008B00000EB0E084FF0000A0EFB07610022012337
:1008C00051F8040B0132002808BF00230A2AF7D18F
:1008D00003B3D6F8703386F874930133C6F87033D7
:1008E000BC46BCF1000F05D133469845E4D043F82F
:1008F00004ABFAE70CF1FF3C0EFB0CF408EB04052B
:1009000034440FCC0FC50FCC0FC594E8030085E825
:100910000300E6E7013FCFD2BDE8F087F8B5D0F895
:100920006863044600F5477500224FF00A0C9642B2
:1009300007DC2046FFF7B4FF2046BDE8F840FFF78C
:10094000B9BE2F46002157F8043F83B1D4F86403A1
:10095000104413280BD8D4F860330B44092B9FBFE5
:100960000CFB0033D4F8C003013044F823000131FC
:100970008E42E8D101321035D9E738B590F86C33A2
:10098000044663B9D0F86453D0F86013013500F51C
:1009900048732A46FFF74BFF10B9C4F8645338BDBB
:1009A0002046FFF7BBFF231F04F12402012153F867
:1009B000040F08B184F86C139342F8D1EFE738B50F
:1009C00090F86C33044663B9D0F86053D0F86423D0
:1009D000013D00F548732946FFF729FF08B9C4F81F
:1009E000605338BD38B590F86C33044663B9D0F81D
:1009F0006053D0F86423013500F548732946FFF7AA
:100A000016FF08B9C4F8605338BDF8B590F86C33D8
:100A10000446ABB9D0F8606300F54877D4F8645366
:100A200001353B462A4631462046FFF700FF20B1FC
:100A30002046BDE8F840FFF771BFC4F86453EDE706
:100A4000F8BD70B590F86C3390B0044623BB00F548
:100A500048760FCE6D460FC50FCE0FC50FCE0FC512
:100A600096E80F0085E80F0020466946FFF77FFEF5
:100A7000D4E9D81220466B46FFF7D9FE04F5487436
:100A800050B96D460FCD0FC40FCD0FC40FCD0FC49D
:100A900095E80F0084E80F0010B070BDD0F8C023B7
:100AA000014B33F812007047E43F01080A2303FBAF
:100AB000021150F8210018B1024B013833F8100030
:100AC000704700BFE43F010807B5064BADF80600CC
:100AD0001B68054801220DF1060105F045FD03B034
:100AE0005DF804FB04000020A801002008B50A20DE
:100AF00006F0B8FBFBE7000038B50D4C0D4D4FF08C
:100B0000FF320021012006F05FFBC307F7D52378F1
:100B1000002BF4D0286806F0F5FC024620B92868BE
:100B20000A23214606F08DFC00232370E7E700BF6F
:100B3000280100201801002030B595B010220021B6
:100B40000AA812F00CFC1422002103A812F007FCE2
:100B500000241D4B01941A6C42F080521A641B6CE5
:100B600003F080530193019B184B02941A6842F4DE
:100B700040421A601B6803F4404302930122029B27
:100B80004FF48033CDE9082302254FF48003CDE9EB
:100B90000E5308214FF4A873CDE9101308A80423BD
:100BA0001393129504F0A0FF0F23CDE903354FF402
:100BB000A0504FF48053CDE90603052103A8059406
:100BC00005F06EF915B030BD0038024000700040ED
:100BD000704770477FB5094B8DF817201B6802934B
:100BE0000DF117020123009201930A4601460448C1
:100BF00004F012FC07B05DF804FB00BF0800002001
:100C0000A80200207FB500238DF81730084B1B6821
:100C100002930A4601230DF1170100910193014649
:100C2000044804F089FC9DF8170007B05DF804FB48
:100C300008000020A80200201FB5084C246800927C
:100C4000CDE901340A4601230146054804F074FC4D
:100C5000003818BF012004B010BD00BF08000020FC
:100C6000A802002003F0D8BE10B5064C0022204692
:100C7000042104F02BF920460122BDE81040042194
:100C800004F024B90008024038B50B4D0446012297
:100C90000A484FF4005104F019F9002204212846B3
:100CA00004F014F92046FFF70FFF28460122BDE8A3
:100CB0003840042104F00AB900080240000C024048
:100CC00038B50B4D044600220A484FF4005104F099
:100CD000FDF800220421284604F0F8F82046FFF72A
:100CE000F3FE28460122BDE83840042104F0EEB8A6
:100CF00000080240000C0240F7B5144E144F0546A0
:100D00000C4630460022042104F0E0F800224FF4A3
:100D10000051384604F0DAF82846FFF7D5FE0D4BAF
:100D20000D481B68224601A905F0BBFD384601228B
:100D30004FF40051019C04F0C9F83046012204210F
:100D400004F0C4F8204603B0F0BD00BF0008024024
:100D5000000C024004000020A801002003F05CBE4B
:100D60000A4C08B501220821204604F0AFF83220D1
:100D700006F078FA00220821204604F0A7F804487B
:100D80004FF4005104F0A7F806F0DFF90008024024
:100D900000180240104C08B501220821204604F03A
:100DA00095F8322006F05EFA00220821204604F071
:100DB0008DF8322006F056FA01220821204604F070
:100DC00085F8322006F04EFA00220821204604F071
:100DD0007DF806F0BAF900BF000802401FB54FF6D3
:100DE0007E738DF80A2002F20512ADF804308DF8FA
:100DF0000910062311448DF806308DF807000023F2
:100E000008448DF808304042EF238DF80D30C0F3D0
:100E100007238DF80B308DF80C004FF0FF330A22BA
:100E200001A9034806F027F805B05DF804FB00BFF0
:100E30002C01002008B5022103220F20FFF7CEFF6E
:100E40004FF4FA6006F00EFA074B1978012906D123
:100E5000022211460F20FFF7C1FF06F076F90229A2
:100E6000FBD10122F6E700BF0C0000202DE98048ED
:100E70009BB003F0A5FDFFF75FFE142200210DA833
:100E8000002412F06CFAC94B00941A6BC84842F067
:100E900010021A631A6B02F010020092009A019479
:100EA0001A6B42F020021A631A6B02F020020192C0
:100EB000019A02941A6B42F080021A631A6B02F0D4
:100EC00080020292029A03941A6B42F004021A639F
:100ED0001A6B02F004020392039A04941A6B42F014
:100EE00001021A631A6B02F001020492049A05943B
:100EF0001A6B42F002021A631A6B02F002020592A8
:100F0000059A06941A6B42F040021A631A6B02F0BB
:100F100040020692069A07941A6B42F008021A637E
:100F20001B6B03F00803079322463C21079B03F049
:100F3000CDFFA0482246042103F0C8FF22469E4868
:100F40004FF44051012603F0C1FF4FF0030A3C2348
:100F50009748CDF840A00DA902274FF00409CDE92C
:100F60000D360F9403F0C8FE92480F940DA9CDE9F9
:100F70000D96109703F0C0FE4FF440538E480DA914
:100F80004FF00808CDE90D36CDE90F4703F0B4FE68
:100F900088480F940DA9CDE90D8603F0ADFE2246D9
:100FA0004146844803F092FF4FF4881583480F9719
:100FB0004FF00C0B0DA9CDE90DB503F09DFE4FF4DC
:100FC00040537F480F970DA9CDE90D3503F094FEEE
:100FD0004FF4005379480F940DA9CDE90D3603F075
:100FE0008BFE78480F970DA9CDE90D6503F084FEBF
:100FF00022465521062003F035FD062003F064FD4E
:1010000022465521282003F02DFD282003F05CFD09
:1010100022465521404603F025FD404603F054FD8D
:1010200055212246092003F01DFD092003F04CFD47
:101030006548664A664D026003F054FD654B664A9A
:101040002C62C5E9003228464FF48042C5E90424E9
:10105000C5E90244C5E9064404F036F910212846E2
:1010600004F072FB2146284604F08DFB5B485C4986
:1010700084624FF48272C0E900124FF400751822A6
:10108000C0E906520A22574DC262C0E90244C0E9D3
:101090000444C0E9084405F00BFA534A0D974FF099
:1010A000100CC5E900264022C5E904C24FF40053E4
:1010B0004FF4C072C5E90624AB624FF40062072307
:1010C0000DA92846CDE9103ACDE90E39C5E9082425
:1010D000C5E90249CDE9127705F0E6F84FF6FF724F
:1010E00009A92846CDE90968CDE90B64089405F003
:1010F000FBF8304603F090FC4FF6FF7209A9284632
:10110000CDE90978CDE90B6405F0EEF84FF6FF72F2
:1011100009A92846CDE909A8CDE90B9405F0E4F822
:101120004FF40C730893089B0C934FF6FF7209A9B8
:101130002846CDE909980B9605F0D6F840F26A5199
:10114000284605F0EFF8342221460DEB020012F09C
:1011500006F9264D264B2C61C5E900340923C5E963
:1011600005361D2340F20D1EC5E9073A40F2431330
:10117000C5E909E3284640F2471340F21718C5E9CC
:101180000B83C5E90244AC8685F8364004F096FB33
:10119000FF21F022CDE912144FF4806A05214FF4AB
:1011A000A073CDE90E24CDE914A123E0003802405C
:1011B0000010024000080240000C024000180240EB
:1011C00000040240000002403C03002000300240C6
:1011D000A8020020005C0040A0860100A8010020B9
:1011E0000050014074010020400100A000020020D6
:1011F00000680140CDE916420DA922462846CDE9F6
:101200001037354D18930D94ADF864408DF8664055
:1012100004F01FFC314B2B601B6898472B68304D46
:10122000DB6898472F4B2846C5E90034C5E90274AE
:10123000C5E90A47C5E90C4403F064FC3146284679
:1012400003F016FD00F0F0FB2748284A4FF4165330
:10125000C0E90023C0E90244C0E9044BC0E90644E8
:1012600005F0DAFD4FF47A7003F0D6FB22462146F2
:101270003F20FFF7B3FDC82003F0CEFB0F2221462D
:101280000620FFF7ABFDC82003F0C6FB3A463946FF
:101290000F20FFF7A3FD05F0E1FE154A3146484651
:1012A00006F094F8134B144A18602146134805F0D1
:1012B00008FF134B134A18602146134805F001FF3D
:1012C000124B134A18602146124805F0FAFE124BE1
:1012D000186005F0D5FEFEE714010020180000207C
:1012E000FC02002000B002402C010020004C004015
:1012F000344E010818010020944E0108ED0A000840
:1013000024010020704E0108F90A00082001002085
:101310004C4E01082D1A00081C0100200268034BE6
:101320009A4201D103F066BB704700BF0010004035
:10133000012838B504460BD1002211461920FFF7C9
:101340004DFDBDE8384015484FF4005103F0C3BDD2
:10135000134D03F05BFB2B68C01AC7280AD903F0B2
:1013600055FBB4F5805F286012D004D8042C11D04E
:10137000082C11D038BDB4F5005FFBD15223094AC7
:101380001370094B01211868BDE8384005F0E2BE32
:101390004C23F4E75423F2E74423F0E7001802401B
:1013A00010010020280100202001002070470000CB
:1013B00082B00E4B00220092596C41F48041596476
:1013C000596C01F48041009100990192196C41F02F
:1013D000805119641B6C03F080530193019B0F2112
:1013E0006FF0010002B003F03DBB00BF00380240C7
:1013F0000268094B9A4282B00BD100230193074B3C
:101400001A6B42F480521A631B6B03F480530193EE
:10141000019B02B0704700BF00300240003802401C
:1014200007B50F4B02689A4216D10022A3F5F0438C
:101430000192196B41F4000119631B6B03F4000363
:10144000019305215A20019B03F00CFB5A2003B0A5
:101450005DF804EB03F038BB03B05DF804FB00BF9C
:1014600000B002402DE9F043044689B01422002167
:1014700003A811F074FF2268244B9A4243D1244CF4
:10148000244800250095236B43F004032363236B5A
:1014900003F004030093009B0195236B43F00103C9
:1014A0002363236B03F001030193019B4FF01209A7
:1014B0004FF400734FF001080327042603A9CDE978
:1014C0000339CDE90587079603F016FC4FF48073C6
:1014D0001148079603A9CDE90339CDE9058703F043
:1014E0000BFC0295236C43F400032364236C03F488
:1014F00000030293029B236A43F400032362236ADE
:1015000023F40003236209B0BDE8F083005C0040CF
:10151000003802400008024000000240F0B599B0D7
:1015200004461422002107A811F019FF30220DEB08
:101530000200002111F013FF22685E4B9A4240F036
:10154000B78008230C93C0231093042312930CA894
:101550004FF40033159304F07BFD08B1FFF726FF2D
:10156000554B5648002400945A6C42F080625A64ED
:101570005A6C02F080620092009A01941A6B42F059
:1015800020021A631A6B02F020020192019A02945F
:101590001A6B42F001021A631A6B02F00102029206
:1015A000029A03941A6B42F002021A631A6B02F059
:1015B00002020392039A04941A6B42F040021A63E7
:1015C0001A6B02F040020492049A05941A6B42F0DE
:1015D00004021A631A6B02F004020592059A06943B
:1015E0001A6B42F008021A631B6B03F008030693A0
:1015F00002250E26069B0B964FF4806307A9CDE9C2
:101600000735CDE9094503F077FB41F658032C482F
:101610000B9607A9CDE907350927CDE9094503F060
:101620006BFB032327480B9707A9CDE90735CDE9C5
:10163000094503F061FB4FF4706322480B9607A93C
:10164000CDE90735CDE9094503F056FB4FF40C63AE
:101650001D480B9607A9CDE90735CDE9094503F0EB
:101660004BFBC02319480B9607A9CDE90735CDE9F7
:10167000094503F041FB082315480B9607A9CDE95E
:101680000735CDE9094503F037FB4FF4A0530E4869
:101690000B9707A9CDE90735CDE9094503F02CFBE8
:1016A00058202246052103F0DDF9582003F00CFAFA
:1016B00019B0F0BD0068014000380240001402403B
:1016C00000000240000402400018024000080240EE
:1016D000000C024010B5044688B01422002103A873
:1016E00011F03DFE2268144B9A4223D103F5684362
:1016F000002101915A6C114842F480125A645A6CCC
:1017000002F480120192019A02911A6B42F02002B7
:101710001A631B6B03F020030293029B4FF4607269
:1017200002230321CDE903230523CDE9061303A9F1
:1017300003F0E2FA08B010BD00500140001402406E
:101740002DE9F04186B0002303932B4B1C68002C3D
:101750004FD14FF00108C3F80080284B00949A6BDA
:10176000274842EA08029A639B6B03EA0803009346
:10177000022703260C25009B01A94FF63F03CDE964
:101780000137CDE9046503F0B7FA1E48059501A9B4
:10179000CDE90187CDE9034603F0AEFA48F23313F1
:1017A0001948059501A9CDE90137CDE9034603F0B4
:1017B000A3FA4FF683731548059501A9CDE90137C2
:1017C000CDE9034603F098FA4CF2037310480595EF
:1017D00001A9CDE90137CDE9034603F08DFA602375
:1017E0000C48059501A9CDE90137CDE9034603F081
:1017F00083FA06B0BDE8F0814403002000380240BF
:10180000001402400008024000180240001002408C
:10181000000C024000040240F0B5044689B01422D6
:10182000002103A811F09BFD22681E4B9A4236D17D
:1018300003F5F633002400941A6C1B4842F400228E
:101840001A641A6C02F400220092009A01941A6B36
:1018500042F001021A631A6B02F001020192019A2E
:1018600002941A6B42F004021A631B6B03F0040328
:10187000029302250327082603A9029BCDE90355FD
:10188000CDE9067603F038FA4FF4806307480796EF
:1018900003A9CDE90335CDE9054703F02DFA09B0D9
:1018A000F0BD00BF004C00400000024000080240B4
:1018B00030B5014689B00022362003F0D3F8362037
:1018C00003F002F90025154B02951A6C144C42F0F6
:1018D00010021A641B6C03F01003029301A903A801
:1018E000029B04F097FB04F075FB0E4B236040F263
:1018F000E733E36040000C4BB0FBF3F0013860606D
:1019000020462561A56005F09BF920B9204605F029
:1019100067F809B030BD0120FBE700BF0038024086
:10192000480300200010004040420F007047FEE7CF
:10193000FEE7FEE7FEE77047014805F08FB800BFFD
:1019400048030020014804F027B800BF000200202F
:10195000014803F003B900BFFC020020012003F09E
:10196000C3BA08B54FF4805003F0BEFABDE8084092
:101970004FF4005003F0B8BA042003F0B5BA0820C1
:1019800003F0B2BA0120704708B511F08BFD1623A1
:1019900003604FF0FF3008BD08B511F083FD16233A
:1019A0000360FEE770B50D4614460E46731B9C425D
:1019B00001DC204670BDAFF3008006F8010BF5E7AF
:1019C00070B50D4614460E46731B9C4201DC204642
:1019D00070BD16F8010BAFF30080F5E74FF0FF3054
:1019E00070474FF400534B60002070470120704750
:1019F000002070470A4A116808B5034609B9094929
:101A000011601068694603448B4206D911F04AFD03
:101A10000C2303604FF0FF3008BD1360FCE700BFEC
:101A200090030020B857012000F0BEBC00F030BD8C
:101A3000704710B50421044611F05CFA204610BD31
:101A400038B50C4B0C4C18800C4B82201980636805
:101A5000984740F6110398420AD1094D23682C603B
:101A6000822098472B688220DB689847002038BD89
:101A70000120FCE79E030020500000209C03002072
:101A8000A00300204FF4A071F020FFF7D9BF0000A1
:101A9000F7B5354D2B6804461B6982209847208096
:101AA00000284BD02B680DF106025B6901A982204A
:101AB0009847BDF8063040F67462934240D9ADF8BD
:101AC0000620BDF80630D21A92B20A2A3ED90B235C
:101AD000B2FBF3F2254B1B889A4201D9013B9AB223
:101AE000BDF80430224840F6B8318B4230D8C3F5F7
:101AF00071630E3301689BB20F25B3FBF5F31D4DE7
:101B00002D88AB4284BF05F1FF35ABB28B421D4639
:101B10008EB226D99B1B99B2174E3768BBB2BA4218
:101B20008CBFD31A9B1A9BB219440529C8BF056004
:101B30000368C8BF326063803368A38003B0F0BD20
:101B4000B32B9CBFB423ADF80630BAE70022C7E739
:101B5000C3F56D6308339BB20E2B0168CCD800250A
:101B60002B46C91A89B2D7E7A00300209C030020A6
:101B7000980300209E0300209403002037B5684698
:101B80000D461446FFF784FFBDF8000030B1BDF8E4
:101B900002302B60BDF804302360012003B030BD5B
:101BA000032821D8DFE800F0020B12190F4B1A6846
:101BB000B2FA82F2520904210D4803F087B90B4BA7
:101BC0005A68B2FA82F252090821F5E7074B9A687F
:101BD000B2FA82F252091021EEE7044BDA68B2FA47
:101BE00082F252092021E7E7704700BFA4030020DA
:101BF00000100240032821D8DFE800F0020B121980
:101C00000F4B1A68003A18BF012204210D4803F057
:101C10005DB90B4B5A68003A18BF01220821F5E75D
:101C2000074B9A68003A18BF01221021EEE7044BD7
:101C3000DA68003A18BF01222021E7E7704700BFA9
:101C4000A40300200010024003280DD8DFE800F0B4
:101C50000206080A0421054803F03DB90821FAE705
:101C60001021F8E72021F6E7704700BF001002407E
:101C700008B5032811D8DFE800F0020A0C0E042191
:101C8000074803F01DF9431E5842584108BD08217A
:101C9000F6E71021F4E72021F2E70020F3E700BF88
:101CA0000010024070B5084D00240126E0B2FFF795
:101CB000DFFF18B12B68012B18BF2E600134052CF3
:101CC00005F10405F2D170BDA4030020012380F8C2
:101CD000781080F87930704700207047034B4164DA
:101CE000003918BF01211970704700BF435401200B
:101CF00000207047836B0BB10846184770474FF6BA
:101D0000FF707047406803689B69184770477047C9
:101D10007047000070B5044600F05AFC2368D3F801
:101D20008850044BD4E90F122046AC46BDE8704001
:101D3000604700BF000000D008B503680446D3F830
:101D400080309847236820469B6F984700F0ECF856
:101D5000236820461B6F98472920FEF7B1FF00F04B
:101D6000E3F8236820461B6F9847F8E710B5044650
:101D700008F0FCFC23682046D3F8AC30BDE81040E6
:101D8000184700F017BC00F01BBC00F047BC00F087
:101D9000EDBB00F047BC00F04FBC00F0F1BB07F01A
:101DA00045BF10B57C21044611F0A4F8204610BDB3
:101DB00010B590F8341090F878400C4B8C421A789B
:101DC00009D03AB90A4A0B491488088810800C8057
:101DD00001221A7010BD002AFCD0054A054914885A
:101DE000088810800C800022F3E700BF3C540120DB
:101DF000385401203A54012070B50D46194635B9C2
:101E0000094B0A4A0A4840F2D22111F0A1F8C0E970
:101E10000F52084B003A18BF01221A700368BDE840
:101E20007040D3F88C301847044201083C42010846
:101E30008A4201084254012008B5094B1B888B4295
:101E400003D8084B1B88934205D9074B074A08481B
:101E50009E2111F07DF8074B1980074B1A8008BDB1
:101E6000385401203A540120CF420108324301087E
:101E70008A4201083E54012040540120034690F854
:101E80007A0018B1586803681B681847704700004B
:101E9000012108B50022084605F0F0F90A4B186048
:101EA00028B90A4B0A4A28210A4811F051F80022A1
:101EB0000421012005F08AFA074B186018B9074B76
:101EC000034A2C21F0E708BDB80300207543010840
:101ED000BE430108ED430108B40300203744010864
:101EE000024B4FF0FF31186805F012BAB80300201A
:101EF000014B186805F038BAB8030020024B0021E6
:101F0000186805F005BA00BFB8030020FFF7F0BF5E
:101F100003480449006800231A4605F092BA00BF3E
:101F2000B40300201000002013B5084C00231A460B
:101F300001A9206805F0B6FA20684FF0FF330022AF
:101F400001A905F0AFFA02B010BD00BFB403002034
:101F500003685B6C18470120704703689B6A184749
:101F600082B0002301930D4B1A6B42F400021A63F6
:101F70001A6B02F400020192019A1A6942F40002FB
:101F80001A611A6922F400021A61054B054A1A61A6
:101F9000054B4FF080629A6002B0704700380240F3
:101FA000FC0200203922000800E100E040F2EF309E
:101FB00070470000054B0360054B4FF08062C3F88B
:101FC0008820BFF34F8FBFF36F8F7047B04F01086A
:101FD00000E100E010B504464FF45A61FFF7EAFF54
:101FE000204610F087FF204610BD000008B50A28E3
:101FF00009D8DFE800F006100E08080808101010D5
:102000001000022008BD054B054A0648872110F044
:102010009FFF0020F6E70120F4E700BF79440108A4
:1020200094440108DF44010838B50C46887FFFF767
:10203000DDFFA58AE28A164B2169586342EA054210
:102040005A64628BD963521B1A642568082D0ED11D
:102050009A611A615862207F0E4A42EA0062DA6190
:10206000E2681A620C4A5961D9601A6038BD0022D0
:10207000D8611A61E1680A0A480902F4784200F45A
:10208000FC600243C1F3C4010A439A63034AECE7CC
:1020900000B0024009000100010202000102030039
:1020A00008B50B280BD8DFE800F00612100A0A0A60
:1020B0000A0808080808022008BD0520FCE7054BAF
:1020C000054A0648662110F043FF0020F4E701208E
:1020D000F2E700BF7944010827450108DF44010801
:1020E0002DE9F04191F81D800C464046FFF7D8FFDE
:1020F000A77F05463846FFF7D3FF06463846FFF769
:1021000075FFA18A628B444B521A1A649A61228B22
:10211000521A1A61E28A586342EA01425A642169FA
:102120006268D963DA602068802828D0227F0FD8BF
:10213000202867D0402865D004281AD0364B45EABD
:10214000026545F40035B845DD6161D0334A44E0AD
:10215000B0F5807F04D0B0F5007FEFD1304800E0CB
:10216000304840EA0262DA61E2681A625E625961EE
:1021700032E045EA026242F40032DA61F6E7A06832
:10218000021DDA62227F45EA026545F40035DD6111
:102190005E625961017841B1012921D0224B234A65
:1021A000234840F2111110F0D3FEDA69418822F47D
:1021B0007F42013922F0100242EA0122DA61012154
:1021C000154BDA6942F02002DA61DA699206FCD432
:1021D00010229A600029B9D0164A1A60BDE8F08131
:1021E000B2F1FF01DA69408822F47F4200F1FF304A
:1021F00022F0100242EA002242F0100218BF012130
:10220000DA61DDE745EA0262034B42F40032B4E7EB
:1022100040F20122E1E700BF00B0024001020100EC
:10222000090002000A000200714501088B450108FF
:10223000DF44010801020200024B1B685868036872
:102240005B6918474454012070B5044625460A4B83
:102250000C30002660602672667245F8203B6022D2
:10226000294608F0C1FB04F55A63EE6024359D420F
:10227000FBD1204670BD00BFB04F01080120704760
:1022800038207047382303FB01000830704738239B
:1022900003FB0100083070470120704743F2D8105B
:1022A000704743F2D81303FB01000830704743F234
:1022B000D81303FB0100083070470120704710203D
:1022C000704700EB01100830704700EB0110083038
:1022D0007047084600F074BE10B5034B0360044617
:1022E00007F0FBF9204610BD6850010810B5044600
:1022F000FFF7F2FF2046402110F0FCFD204610BD04
:1023000010B5034B0360044607F0E7F9204610BD03
:102310003450010810B50446FFF7F2FF204643F29F
:10232000E01110F0E7FD204610BD000010B5034B92
:102330000360044607F0D1F9204610BD00500108A3
:1023400010B50446FFF7F2FF2046182110F0D2FD29
:10235000204610BD10B5094B0360044600F54850F7
:102360000C30FFF7B9FF04F12C00FFF7C9FF04F1AF
:102370001400FFF7DBFF204610BD00BF9C50010892
:1023800008B50248FFF7E6FF08BD00BF7012002045
:1023900010B50446FFF7DEFF204643F2B83110F0D7
:1023A000A9FD204610BD00002DE9F34100F0A6F97B
:1023B000054600F0A7F90024014623462846224698
:1023C00000940DF005FF264B264A274D1A60204643
:1023D00001F03EFC25480DF063FE2B68BFF35B8FD8
:1023E000DB0736D4284610F087FD90B3204C214FF0
:1023F000214B236007F1500604F1140004F12C086E
:102400006060C4F80880E760266107F067F91B4B3D
:102410006361404607F062F9194BE362384607F002
:102420005DF904F5405303F51370164AC3F80C2206
:1024300001F08AFC224607F14001304601F07AFCA7
:10244000304600F0BDFD104810F0A0FD284610F009
:102450005FFD0E4802B0BDE8F041FFF75BBC00BF76
:10246000A0540120380400206C1200201400002029
:10247000701200207C4400209C500108005001088C
:10248000345001086850010881230008BC03002073
:102490000148FFF751BC00BFBC03002070B5224EBD
:1024A000224C234D234B23603046FFF7CDFE2846B8
:1024B0000EF0EEFC204B2148DC6000224FF48071CE
:1024C000C3E912121E491A86C3E91A121D499967F7
:1024D0001D4983F858200B60F02101801B485A6683
:1024E00001801B4883F870204FF4A071C3E90422D7
:1024F000C3E90622C3E90822C3E90A22C3E90E227E
:10250000C3E91022C3E91422C3E917225A67C3E9B9
:10251000016501800F4801800F490A70012283F88C
:1025200034200E4A1A6070BDC804002068120020D2
:102530003C040020C04E0108BC0300203854012098
:102540000100000100000101445401203E5401201B
:102550003A540120405401203C540120D84E010837
:102560000148FFF727BD00BFC8040020034B90229D
:1025700083F85A2383F85823704700BF00E100E036
:10258000094A0A49D3680A48C3F30A03013B9BB2CC
:102590000B801169C1F30A01013901801364536B87
:1025A00043F0010353637047006801402A4600204E
:1025B00028460020014BD3F8AC007047006801406A
:1025C000024B0122C3F8AC105A6270470068014008
:1025D00070B5044607F07FFB23685D6E0AF02CFDA2
:1025E00001462046A8472368054AD3F8885020466C
:1025F000AC460023BDE87040A2F51631604700BF2D
:1026000000B004D007F04EBB90F84B3013B1024B32
:1026100001221A7007F052BB2C46002007F00CBBB9
:1026200007F06DBC034B4FF080629A604FF08072F0
:102630009A60704700E100E0084B4FF08062C3F8F9
:102640008820BFF34F8FBFF36F8F4FF08072C3F8B6
:102650008820BFF34F8FBFF36F8F704700E100E01A
:1026600010B5144C236823B3134B144A1B6C118808
:102670008B4213D1124B198803F018FA226892F892
:102680006A30013382F86A30FFF742FC206808F0B4
:102690006DF8BDE810400020FFF782BA03F006FA9B
:1026A000206803681B6A9847BDE810400020FFF7C8
:1026B000A1BA10BD44540120006801402A46002000
:1026C00028460020704710B50421044610F012FC83
:1026D000204610BD012908B506D0022908D059B9F5
:1026E00001F002FB006808BD01F0FEFA4068FAE75D
:1026F00001F0FAFA8068F6E70020F4E70048704736
:10270000BC5001080420704713B5002451B1036880
:1027100001948DF8034001AA9C680DF10303A047C2
:1027200002B010BD0846FBE7C0897047008A7047B9
:10273000C088704780887047807A00F07F007047BB
:10274000807AC00970470020704700009FED010AA1
:10275000704700BF00000000704710B50821044614
:1027600010F0C8FB204610BD0020704781807047E4
:10277000C180704701817047418170477047704741
:1027800070477047704710B4C4880368121B848870
:102790005B6D091B12B25DF8044B09B218474FF686
:1027A000FF7383814FF0FF3303621368C3611060CE
:1027B00070477047704700F598730868496803C30D
:1027C0007047704770474160704710B50022B1F9FB
:1027D0000840B1F90A10028042808480C18010BD97
:1027E0007047704770470000064BC0F84C3100231B
:1027F000C0F8503100F5A273C0F84801C0F840316C
:10280000704700BFA92A0008012303727047704770
:1028100070477047704701464068036810315B6E2F
:10282000184701464068036810311B6E184770470F
:1028300001464068036810315B6E184770B5054665
:1028400040680368DB69984704463CB968680368D8
:1028500005F110011B6EBDE870401847A188AB89D7
:10286000C91A236820461B6B09B29847A469ECE794
:10287000704710B4C26841685410034601EB62000F
:10288000D20748BF0A599B685DF8044B48BFD3582C
:1028900018470346406830B19A681AB9D86800F002
:1028A000010070470120704710B50C21044610F05C
:1028B00021FB204610BD10B51021044610F01AFB74
:1028C000204610BD10B54FF4AE71044610F012FB57
:1028D000204610BD10B53821044610F00BFB2046F1
:1028E00010BD10B52821044610F004FB204610BD91
:1028F00010B53821044610F0FDFA204610BD10B581
:102900000AF09AFB0368BDE81040DB6B1847000033
:1029100037B50546807A6B7A0130C0B29842A8720A
:1029200005D901232B720023AB7203B030BDB5F97A
:102930000C20B5F90E4000210CF076F8C30707D53E
:1029400000284FF6FF73C8BF012313FA80F000B2CE
:10295000AB7AE881041B012BA4B206D1174B1B787C
:102960001BB10AF069FB0AF06DFB154A00231288BF
:10297000ADF80230EB891A445B42ADF80430114BDC
:10298000ADF800201B88ADF806300AF055FB03684F
:1029900002AA12E906001B6C984768680368DB69A5
:1029A00098470546002DC0D0A9882B6821442846A9
:1029B0001B6B09B29847AD69F4E700BF4254012090
:1029C000385401203A54012090F8252012B10368B0
:1029D0005B6918477047000037B50446807A637A10
:1029E0000130C0B29842A07205D90123237200239E
:1029F000A37203B030BDB4F90C2000210CF014F820
:102A0000C30707D500284FF6FF73C8BF012313FA89
:102A100080F000B2144BE0811988258B83B21348F3
:102A2000B0F90000ADF80600CA1A60682B445B1AC2
:102A300012B2ADF8043003682283ADF80020002202
:102A40001B69ADF8022069469847A37A012BD0D1C3
:102A5000074B1B78002BCCD00AF0EEFA03B0BDE890
:102A600030400AF0EFBA00BF385401203A54012038
:102A70004254012090F825201AB190F8242002B188
:102A80001860704710B50446D0F8400158B103688B
:102A9000DB68984738B1D4F8400103689B689847D1
:102AA0000023C4F8403110BD2DE9F14FD0E9556A3B
:102AB0000746B06803681B6A9847B0F5D27F05D215
:102AC000444B454AA321454810F042FA7068036818
:102AD0001B6A98470F2803D8414B3F4AA421F2E7CD
:102AE000F06803681B6A98470B2803D83D4B3A4AA5
:102AF000A521E8E70AF0A0FADFF8F09004300AF028
:102B0000E8FAD9F8000010B10368DB689847D9F8F3
:102B1000000010B103681B689847DFF8D480D8F82C
:102B2000000010B103685B699847D7F83C0110B109
:102B300003685B689847D8F8000010B103681B6809
:102B40009847D7F83C0110B103689B689847F06834
:102B5000036800215B6A98474FF0000B224BC0F8D6
:102B600004B0044680F808B00360B06803685946B2
:102B70005B6A9847054601F02BF97068036859466F
:102B80005B6A98472946064601F0FEF8331DC7F8F0
:102B90003C61CAF808302B68C6F808A02846DB68F4
:102BA000C9F80040C8F80050EE63984733683046D3
:102BB0001B689847214628460BF030FF23682046C3
:102BC0001B69984723685B69204601B0BDE8F04F58
:102BD000184700BFC94501085746010829470108A1
:102BE0007047010813480108F85101088454012076
:102BF000805401202DE9F0411D460368BDF918708D
:102C00001B6B0446164698472368314620465B6B8B
:102C100098472368294620469B6B98472368394686
:102C20002046DB6BBDE8F041184700002DE9F74F67
:102C3000D0E955BA0746DBF8080003681B6A9847D5
:102C4000B0F5D27F05D2544B544AA321544810F01A
:102C50007FF9DBF8040003681B6A98470F2803D844
:102C6000504B4E4AA421F1E7DBF80C0003681B6AC5
:102C70009847372803D84C4B484AA521E6E70AF085
:102C8000DBF9DFF8389104300AF023FAD9F80000B4
:102C900010B10368DB689847D9F8000010B10368E9
:102CA0001B689847DFF81881D8F8000010B1036856
:102CB0005B699847D7F83C0110B103685B68984797
:102CC000D8F8000010B103681B689847D7F83C019A
:102CD00010B103689B689847DBF80C00036800217B
:102CE0005B6A9847314B03604FF4A05303814FF464
:102CF000807343632E4B03612E4A2F4BB2F90020A1
:102D0000B3F9003083810025044645608572C58192
:102D1000C0E90555C0E90755C0E90955C0E90B559B
:102D20002946009210302A46FFF764FFDBF80800BE
:102D3000036829465B6A9847064601F049F8DBF8C4
:102D40000400036829465B6A98473146054601F04E
:102D50001BF82B1DC7F83C51CAF808303368C5F87A
:102D600008A03046DB68C9F80040C8F80060F56389
:102D700098472B6828461B689847214630460BF039
:102D80004DFE236820461B69984723685B692046EF
:102D900003B0BDE8F04F1847C9450108B64801081F
:102DA00029470108704701081348010840520108EB
:102DB000245101083A540120385401208454012040
:102DC000805401202DE9F74FD0E955BA0746DBF8CA
:102DD000080003681B6A984743F2D713984205D846
:102DE000544B554AA321554810F0B2F8DBF80400C3
:102DF00003681B6A98470F2803D8514B4E4AA421F9
:102E0000F1E7DBF80C0003681B6A9847372803D802
:102E10004C4B494AA521E6E70AF00EF9DFF8389154
:102E200004300AF056F9D9F8000010B10368DB68E5
:102E30009847D9F8000010B103681B689847DFF87D
:102E40001C81D8F8000010B103685B699847D7F877
:102E50003C0110B103685B689847D8F8000010B1D6
:102E600003681B689847D7F83C0110B103689B685A
:102E70009847DBF80C00036800215B6A9847324BE7
:102E800003604FF4A05303814FF4807343632F4BCF
:102E900003612F4B1B885A4282812E4A0025B2F9CA
:102EA0000020456004468572C581C0E90555C0E92A
:102EB0000755C0E90955C0E90B55294600921BB2D8
:102EC0002A461030FFF796FEDBF808000368294613
:102ED0005B6A9847064601F009FADBF804000368CC
:102EE00029465B6A98473146054600F0B3FF2B1D23
:102EF000C7F83C51CAF808303368C5F808A0304616
:102F0000DB68C9F80040C8F80060F56398472B6893
:102F100028461B689847214630460BF07FFD236802
:102F200020461B69984723685B69204603B0BDE8CB
:102F3000F04F1847C94501089A4901082947010877
:102F400070470108134801081C5201082451010868
:102F5000385401203A540120845401208054012027
:102F6000F8B5044617460E460AF050F9104B0025F6
:102F7000C4E955760F4E1C60C4E953550E4B3068BA
:102F800023600E4BC4E95135036801219B68C4E9F5
:102F90004F559847284600F05BFE336893F8582059
:102FA0000AB1D86C00B998680FF058FA2046F8BDFD
:102FB0009054012044540120A45101088C5101086F
:102FC000064BC0F84C310023C0F8503100F5A27315
:102FD000C0F84801C0F84031704700BFA92A000876
:102FE000064BC0F84C310023C0F8503100F5A273F5
:102FF000C0F84801C0F84031704700BF2D2C0008D0
:10300000064BC0F84C310023C0F8503100F5A273D4
:10301000C0F84801C0F84031704700BFC52D000816
:10302000406A7047806A704770478B88C0690A6839
:10303000DB0A50F823001044704710B50446BAB1BB
:10304000107B68B1537BD27A1B0203F4E0631A430E
:10305000236A03EB82031A888A4202D193F90200A1
:1030600010BD05D8013880B204330028F3D1F7E74A
:103070000020F5E710B52C2104460FF03BFF204659
:1030800010BD000030B58BB00446BDF86050089507
:10309000BDF85C5007959DF8505006959DF84C5032
:1030A00005959DF8485004959DF8445003959DF86A
:1030B000405002959DF83C500195BDF83850009560
:1030C0000BF006F9064B2360159BE361169B236208
:1030D000199B63621A9BA36220460BB030BD00BFF0
:1030E000645201087047704770477047704730B5A9
:1030F000036885B06D460181D3F8843001460446EB
:103100002846984795E807003C3484E8070005B056
:1031100030BD30B5036885B06D464181D3F8843049
:10312000014604462846984795E807003C3484E861
:10313000070005B030BD0022028042808280C2803C
:10314000704780F83610704770B5036804461B6BF3
:10315000154698472368294620465B6EBDE87040B7
:10316000184700207047806C704770477047704761
:10317000704730B4C26844685510034604EB6200DF
:10318000D20748BF62599B6830BC48BFD358184724
:103190000346406830B19A681AB9D86800F0010057
:1031A00070470120704710B54C2104460FF0A2FE75
:1031B000204610BD10B5102104460FF09BFE20469E
:1031C00010BD10B54FF4D07104460FF093FE2046A9
:1031D00010BD08B5FFF7F8FB08BD0000036870B527
:1031E0005E6B124B1B6804468DB22BB9104B114A13
:1031F0006C2111480FF0ACFE1049828D0988914274
:1032000003D80F4B0B4A6D21F3E713F812200D4B37
:103210001B6853F8220003681B6B9847291A334632
:10322000204609B2BDE87040184700BF9454012001
:103230007F4A0108C14A0108FC4A0108985401204C
:10324000434B01089C5401206C30884208B505D1DD
:1032500009F0F2FEBDE80840FFF7D2BE08BD00222B
:103260004FF0FF31C0E900218260704770B50368FC
:1032700004461B6B154698472368294620465B6B1E
:10328000BDE87040184700000022C0E90122C0E9F3
:103290000322C0E90522C0E907224FF4807282842C
:1032A000014A0260704700BFCC52010810B52622C7
:1032B0000446002110F053F82046FFF7E5FF0A4BC3
:1032C00023600A4BA3624FF6FF73A3854FF47F027E
:1032D0000023C4E90C3223874FF0FF32C4E91023E6
:1032E000E363204610BD00BF7C5B01081451010858
:1032F0002DE9F04F04468BB0A34600250BF0E2F910
:103300007F4BE5634BF8403B26222946584610F098
:1033100026F85846FFF7B8FF7A4B236404F16C0691
:10332000FF232622294684F866303046A56610F031
:1033300016F83046FFF7A8FF012384F89030724B4F
:10334000E36604F1A00A4FF6FF73A4F89A30A4F8DC
:103350009C3084F89E3004F1E8095046C4F894503B
:1033600084F89850FFF7A2FF4846FFF79FFF04F547
:103370009A78664BC4F8E830C4F830514046FFF7FD
:1033800095FF634BC4E96434624BC4E966354FF47E
:10339000A0732A46584600932946F023FFF72AFCDB
:1033A000271D4FF07F43A3665946384606F0A8F91B
:1033B0003046C7221421FFF759FF4FF0030B08AA2C
:1033C000304607A9ADF81CB0ADF820B007F004FFF7
:1033D00004F5C873C4F894303146384606F090F9C5
:1033E000672250463521FFF741FF02AE4A4BC4F831
:1033F000D03051463046A4F8D45007F0E7FB96E8A9
:10340000070004F1DC0383E80700444B08935046AF
:103410004FF00A0308A9ADF8243007F07FFE5146AB
:10342000384606F06DF92A238B2200932946F023B3
:103430004846FFF7DFFB3A4BC4F81831D4F8E830C0
:10344000A4F81C51D3F8843049463046984796E892
:10345000070004F5927383E80700324B1B6804F5FC
:10346000BE7A2BB9304B314A602131480FF070FDE4
:10347000304B1B88032B03D82F4B2C4A6121F4E7D8
:103480002E4B5946186800F01FFC2D4A03460A21AE
:1034900050460CF0F7FD214B089308A90923484634
:1034A000C4F830A1ADF8243007F038FE494638465C
:1034B00006F026F90E2240460721FFF7D7FE214BE2
:1034C000C4F8643141463046A4F8685107F07EFBE9
:1034D00096E8070004F5B87383E807000F4B0893DC
:1034E00008A902234046ADF8243007F017FE3846FD
:1034F000414606F005F920460BB0BDE8F08F00BF4D
:10350000DC5301080C5C0108745C010834530108A9
:10351000C4530108493200080A0AF0FF1451010897
:103520001414FCFF945401207F4A0108814B0108C8
:10353000FC4A010898540120434B0108A054012083
:10354000CC4B01080FE9FCFF806A70477047704759
:1035500070477047704730B4C268446855100346DE
:1035600004EB6200D20748BF62599B6830BC48BF79
:10357000D35818470346406830B19A681AB9D868DA
:1035800000F0010070470120704790F82D3080F85E
:10359000603070470146383091F82C3013B1363125
:1035A00007F0E8BF3431FBE710B5642104460FF0A3
:1035B000A1FC204610BD10B5102104460FF09AFC66
:1035C000204610BD10B54FF40A7104460FF092FC6E
:1035D000204610BD10B50446006B50B10368DB688F
:1035E000984730B1206B036821469B68BDE81040C6
:1035F000184710BD0B7970B590F82C6004460D4645
:103600000BB916B170BD002EFCD0B3FA83F35B0981
:1036100084F82C3023682046D3F88C3098472368F0
:1036200020465B699847002EECD02B79012BE9D11D
:1036300023682046D3F88830BDE87040184700F171
:10364000C4038B4210B5044609D109F0F5FCFFF71D
:10365000C7FC23682046DB6ABDE81040184710BD50
:103660000B882DE9F04183861388B0F90850C38692
:103670000446104690460CF0BFFDB4F90A300746E8
:1036800003EBD3734046C3F34F060CF0E9FD05EBA3
:10369000D575C5F34F0500EBD07007EBD777A6EBD8
:1036A0006002A5EB670104F1380012B209B2FFF71E
:1036B000DDFD23682046D3F88C30BDE8F041184783
:1036C00038B5262204460D4600210FF048FE20465C
:1036D000FFF7DAFD064B23602B88E384FF232046A7
:1036E00084F82830294607F045FF204638BD00BF42
:1036F000505D01082DE9F04F04468DB027460025A6
:103700000AF0E0FFA24BE56347F8403B262229463A
:1037100038460FF024FE3846FFF7B6FD9D4B236474
:10372000FF2384F8663004F16C0304F1980A4FF625
:10373000FF7618460AA9A5660393ADF82860FFF73F
:10374000BFFF0AA95046ADF82860FFF7B9FF4FF454
:103750007F43A4F8F03040F20113A4F8E8308E4B18
:10376000C4F8C43004F1FC064FF0FF3304F1C4097F
:10377000C4F8F8300AA93046C4E93255C4E93455D2
:10378000C4E93655C4E93855C4F8EC50C4F8F450CF
:10379000ADF8283004F59478FFF792FF314648469B
:1037A00005F0AEFF4046FFF781FD7C4BC4F82831A1
:1037B00004F5BA731846C4F8705104F5DE7B029321
:1037C000FFF774FD5846FFF771FD754BC4E9863469
:1037D000744BC4E988354FF4A0732A4638460093E9
:1037E0002946F023FFF706FA261D4FF07F43A36614
:1037F0003946304605F084FF2A4603982946FFF7EC
:1038000035FD0398ADF828500AA907F0B3FE0399D7
:10381000304605F075FF342250462946FFF726FD55
:10382000022350460AA9ADF8283007F0A3FE5146FE
:10383000304684F8BD5005F063FF012748460AAAC8
:1038400009A9ADF82470ADF82870FFF709FF04F559
:103850000673C4F8F43020234FF48D724846C4F840
:103860000051CC210093FFF7C5F94946304605F0D9
:1038700047FF3123A6220093642188234046FFF7A7
:10388000B9F9494BC4F85831D4F82831A4F85C513F
:103890000DF11009D3F8843041464846984799E81D
:1038A000070004F5B27383E80700404B1B6804F57A
:1038B000017A2BB93E4B3F4A60213F480FF048FB4D
:1038C0003E4B1B88052B03D83D4B3A4A6121F4E758
:1038D0003C4B0521186800F0F7F93B4A03460A21E2
:1038E00050460CF0CFFB0423C4F870A10AA9DFF8FE
:1038F000E4A0ADF82C304046CDF828A007F00EFC2F
:103900004146304605F0FCFE02988822B921FFF7B7
:10391000ADFC2E4B0299C4F8A4314846A4F8A85136
:1039200007F054F999E8070004F5D87383E8070015
:103930000298CDF828A00AA9ADF82C7007F0EEFB8C
:103940000299304605F0DCFE36225846BF21FFF7CB
:103950008DFC1F4BC4F8EC3159464846A4F8F05191
:1039600007F034F999E8070004F5FC7383E80700D1
:103970000AA95846CDF828A0ADF82C5007F0CEFB88
:103980003046594605F0BCFE20460DB0BDE8F08F2C
:10399000C85401080C5C0108105401083453010894
:1039A000B05401083F3600080C0CF5FF9454012078
:1039B0007F4A0108814B0108FC4A01089854012004
:1039C000434B0108A0540120CC4B0108F511B4FF72
:1039D000F70F9EFF145101087047000030B5184DD5
:1039E0002C6814F001048FB0BFF35B8F24D12846FC
:1039F0000FF082FA00B3134B134914480A94CDE92F
:103A00000B433F230993124B0893124B0793012357
:103A1000CDE9053304930423CDE902430A2300933F
:103A200040F215220D230194FFF72CFB0A480FF0FA
:103A3000ADFA28460FF06CFA04480FB030BD00BF55
:103A400030460020F85401087C3005083446002038
:103A5000F4870508D08A0508D939000870470000A6
:103A600030B5184D2C6814F001048FB0BFF35B8F94
:103A700025D128460FF040FA08B3134B13491448D8
:103A80000A94CDE90B433F230993124B0893124B41
:103A9000079304220223CDE905320123CDE9032354
:103AA000CDE901341423009340F215221A23FFF7C5
:103AB000E9FA0A480FF06AFA28460FF029FA044892
:103AC0000FB030BD60460020F8540108A44D050831
:103AD00064460020FC870508D48A05085D3A000882
:103AE0007047000030B5184D2C6814F001048FB0F9
:103AF000BFF35B8F25D128460FF0FEF908B3134BB7
:103B0000134914480A94CDE90B433F230993124B00
:103B10000893124B079307220423CDE905320122B3
:103B2000CDE903322823009340F215223323CDE957
:103B30000144FFF7A7FA0A480FF028FA28460FF0C9
:103B4000E7F904480FB030BD90460020F854010852
:103B5000CC6A05089446002038890508D88A0508EB
:103B6000E13A000800207047002070470EB403B50A
:103B700003AB002153F8042B01930AF0D1F902B0F2
:103B80005DF804EB03B070470CB407B504AB53F811
:103B9000042B01930AF0C4F903B05DF804EB02B002
:103BA00070470000436C10B5044673B3038F2BB904
:103BB000184B194AC52119480FF0CAF9C38E00EBFA
:103BC00043035B8C0BB30BF0B4FC238F012B03D8A6
:103BD000134B144ACB21EEE7E28E531C9BB2092B08
:103BE000194688BFA3F10A0104EB410140F63F10DA
:103BF000498C814209D10A2B04EB420228BF0023E1
:103C000004EB4303508C588451842046BDE8104097
:103C10000BF092BBCF4B0108D84B0108834C010835
:103C2000CD4C0108DB4C01080BF04DBB10B586B044
:103C300002AC84E806001A460AAB05930193099B7F
:103C400000932146089B08F095FD06B010BD0000CA
:103C500038B518BB124B13481C681349B4B122681D
:103C600022440260626822440A60A26814440F4B36
:103C700000221A8000F038F8054600F033F80C4BAB
:103C80001C600C4B1D600C4B188007E00B4B036055
:103C90000B4B0B600B4B1C68002CE8D138BD00BFF0
:103CA000CC460020C4460020C0460020C846002064
:103CB000945401209C54012098540120088B05083D
:103CC000DC8A0508588B0508044B1B6853F8210053
:103CD000034B1B6803EB4000704700BFC046002049
:103CE000C44600200B20704700487047D046002093
:103CF00010B5FFF7B5FE044C2060FFF7F3FE6060DF
:103D0000FFF76CFEA06010BDD0460020704710B5D4
:103D10004FF4AE7104460FF0EDF8204610BD10B51B
:103D20000446D0F8580100F016F82046BDE81040CF
:103D300009F02CBA10B50446FFF712F9014B2360C5
:103D4000204610BD5859010800225F21C0E9022217
:103D50000260818070470368013303607047C06868
:103D60007047C3688B42B8BFC16070477047043862
:103D70007047704710B5102104460FF0BBF820467D
:103D800010BDA0F10400F5E700228260024A026043
:103D900018324260C1607047AC5901088068FFF773
:103DA000DEBF704710B5034B03600446FFF7DFF931
:103DB000204610BDD459010810B50446FFF7F2FFA4
:103DC00020464FF4D2710FF095F8204610BD000048
:103DD00010B50446FFF78CFA074B23600023C4F8A4
:103DE000A031064B01221A70022211460F20FCF767
:103DF000F5FF204610BD00BFD45901080C0000207B
:103E0000FFF7B6B9D0F8A031013310B50446C0F8B9
:103E1000A031C06BFFF7C2FF064A03460A2104F532
:103E2000BE700CF02FF904F1E800BDE810400AF074
:103E3000A1B900BFAD4D0108704704387047704705
:103E400010B5102104460FF055F8204610BDA0F122
:103E50000400F5E700228260024A026018324260E4
:103E6000C1607047085A01088068FFF77ABF704741
:103E700010B5044600F50A70FCF751FC04F54052F9
:103E80000023C2F8D03104F1980084F8BD30BDE8B9
:103E900010400AF06FB900000E4B70B50546036084
:103EA00043F29C1442F65C66B4420DD140F2BC561B
:103EB0002B5928191B68343C9847B442F8D128463E
:103EC000FFF747FB284670BD2B5928191B689847F8
:103ED000343CE9E7305A010810B50446FFF7DCFF2F
:103EE000204643F2D8110FF005F8204610BD00001F
:103EF000094A02604FF4807100228184FF21C0E9E9
:103F00000122C0E90322C0E90522C0E9072280F8A6
:103F100026108262704700BF0C5C01082DE9F04F4B
:103F200089B000F5A963D0F88885D0F88C75039323
:103F300005464FF0000A4FF4027B00F50A760BFBB2
:103F40000A544FF00009524649463046FCF7AEFD90
:103F5000034600284CD04FEA032C400100F47C407B
:103F60000CF4780CDB0040EA0C00DBB2184340F0A4
:103F70007F404FF0FF3384F81636D4F8F035C4F89C
:103F800018065B6904F5BE6009F101099847B9F1AB
:103F90000A0F04F13404D6D10AF1010ABAF1140F60
:103FA000CDD13046FCF77AFD07AB4FEA102BC408A1
:103FB0000193C00006AB0093039905AB5FFA80FA4A
:103FC00004AA3046FCF701FC069E04F0FC0405EB55
:103FD00006190BF0F80B240209F5A9693E4444EADE
:103FE0000B43079AF11B8A4205DA09B0BDE8F08F4E
:103FF0004FF07F40BDE7DDF810B04FF402740BEBDB
:1040000008027443342101FB02442C44059A5A45AA
:1040100003DA09F110090136E3E759F82B20B2B1B0
:1040200008EB0B02092A12D8132E10D843EA0A0211
:1040300042F07F42C4F81826FF2284F81626D4F8EE
:10404000F0250393526904F5BE609047039B0BF182
:10405000010B3434DAE72DE9F04700F50A7798B020
:1040600005460DF10A0303AA08A93846FCF704FB2C
:10407000002605F53A5909F11009B24609EB060484
:104080004FF00008236884F826A020465B6908F1F9
:1040900001089847B8F1040F04F13404F2D1D03686
:1040A000B6F5507FEAD1BDF80A304FEAD328DC08D4
:1040B000DB00DEB207AB019306AB0093384605ABDD
:1040C00004AA08A904F0FC04FCF77FFB4FEAC80827
:1040D0002402002744EA084408AB03EB07194FF019
:1040E000000859F8043B23B3049AA8EB0202032A00
:1040F0001FDC069BFB1A032B1BDC34214A43D02117
:104100004B43D118294442F6B86C44EA060040F00B
:104110007F4041F80C0042F6B6604FF0FF0C01F80A
:1041200000C042F69060034413440A58E8185269EC
:10413000904708F10108B8F1040FD2D10137042FDC
:10414000CAD118B0BDE8F0872DE9F74300F5405615
:104150001423D6F8D0510135C6F8D05195FBF3F2AF
:1041600003FB12550446002D40F0B38090F894856F
:10417000B8F1000F54D1584F386803F0C3F904F573
:104180000A75C0B10A23386842460DF1070103F0F1
:1041900089F99DF80730522B00F0938000F2868059
:1041A000442B00F092804C2B00F0878000224B487B
:1041B000114602F086FF2846FCF7DFFBD4F898355D
:1041C000474A0A2104F501700BF05CFF04F5947076
:1041D00009F0D0FFD4F89815E06BFFF745FE94F88E
:1041E0009C353BB100223F48114602F06AFF002394
:1041F00084F89C3594F894354BB196F8D42132B9B3
:104200000123394886F8D431114602F05AFF20467E
:10421000FFF784FE204603B0BDE8F043FFF71BBF65
:10422000A84642F6A0092E190027D6F8F03586F8E0
:10423000158606F5BE605B69013798470A2F06F1BF
:104240003406F2D105F502754D45ECD1002604F592
:104250003A5909F11009374609EB06054FF00008F5
:104260002B6885F8257028465B6908F10108984796
:10427000B8F1040F05F13405F2D1D036B6F5507F10
:10428000EAD1012304F1980084F8997184F8E1716E
:1042900084F84D7184F8BD3009F06CFFD4F898159E
:1042A000E06B03B0BDE8F043FFF7DEBD542B7FF4B5
:1042B0007DAF2846FCF7C5FB78E72846FCF77FFB77
:1042C00074E72846FCF78EFB70E72846FCF79DFB59
:1042D0006CE703B0BDE8F08318010020610D000811
:1042E000AD4D0108950D0008350E00082DE9F04F81
:1042F000044689B0FFF7FEF904F53A55554B2360A3
:1043000004F50A701035DFF85881FCF72AFA04F535
:10431000BE6703954FF000093E463046FFF7E8FDC3
:10432000343607F5027346F8348C46F8089C26F8B4
:10433000049C9E42F1D1AE423746EDD104F547567A
:104340001036002705F1D0092846FFF7D1FD343596
:1043500045F8348C45F8087C25F8047C4D45F3D1AC
:10436000B542EFD100274FF4027A4FF07F4B3A016C
:1043700012B20AFB074600254FF00109102306F58B
:10438000BE60C6F81CB6A6F8209629B20093059226
:104390000490FEF72FFC049886F8159604F10408A3
:1043A00010350146ADB2404605F0AAF9A02D059A98
:1043B00006F13406E2D10137142FD8D100274FF08F
:1043C0005A09BA464FF0010B039B0FFA89F2DD1927
:1043D000C826082385F826A0A5F830B031B22846B3
:1043E000009308360492B6B2FEF704FC85F825B0B7
:1043F0002946404605F084F9E82E049A05F1340573
:10440000E7D1D03709F10809B7F5507F1FFA89F9CC
:10441000DAD1114B84F8BDA00221197004F5405384
:10442000012283F8D4A10F20FCF7D8FC0B4D6126A4
:10443000286803F067F818B9204609B0BDE8F08F86
:1044400028688DF81F600A2300220DF11F0103F078
:1044500029F8EDE7305A01080C000020180100206F
:10446000E85C0108F02070474FF4A07070472920E5
:10447000FCF726BC2820FCF723BC08B5FCF7F4FBAE
:10448000CA20FCF71DFCC320FCF7FEFB0820FCF74C
:10449000FBFB5020FCF7F8FBCF20FCF711FC0020C1
:1044A000FCF7F2FBC120FCF7EFFB3020FCF7ECFB44
:1044B000ED20FCF705FC6420FCF7E6FB0320FCF78D
:1044C000E3FB1220FCF7E0FB8120FCF7DDFBE8209A
:1044D000FCF7F6FB8520FCF7D7FB0020FCF7D4FBAC
:1044E0007820FCF7D1FBCB20FCF7EAFB3920FCF766
:1044F000CBFB2C20FCF7C8FB0020FCF7C5FB3420CD
:10450000FCF7C2FB0220FCF7BFFBF720FCF7D8FB4F
:104510002020FCF7B9FBEA20FCF7D2FB0020FCF7D7
:10452000B3FB0020FCF7B0FBB120FCF7C9FB002077
:10453000FCF7AAFB1B20FCF7A7FBB620FCF7C0FB8F
:104540000A20FCF7A1FBA220FCF79EFBC020FCF791
:10455000B7FB1020FCF798FBC120FCF7B1FB102043
:10456000FCF792FBC520FCF7ABFB4520FCF78CFB6E
:104570001520FCF789FBC720FCF7A2FB9020FCF775
:1045800083FB3620FCF79CFBC820FCF77DFBF22068
:10459000FCF796FB0020FCF777FBB020FCF790FBC4
:1045A000C220FCF771FBB620FCF78AFB0A20FCF75F
:1045B0006BFBA720FCF768FB2720FCF765FB0420BA
:1045C000FCF762FB2A20FCF77BFB0020FCF75CFB7E
:1045D0000020FCF759FB0020FCF756FBEF20FCF70E
:1045E00053FB2B20FCF76CFB0020FCF74DFB00205D
:1045F000FCF74AFB0120FCF747FB3F20FCF744FB9C
:10460000F620FCF75DFB0120FCF73EFB0020FCF7E9
:104610003BFB0620FCF738FB2C20FCF751FBC820A5
:10462000FCF79CFB2620FCF74BFB0120FCF72CFB46
:10463000E020FCF745FB0F20FCF726FB2920FCF7C8
:1046400023FB2420FCF720FB0C20FCF71DFB0E2095
:10465000FCF71AFB0920FCF717FB4E20FCF714FBB4
:104660007820FCF711FB3C20FCF70EFB0920FCF73F
:104670000BFB1320FCF708FB0520FCF705FB1720BC
:10468000FCF702FB1120FCF7FFFA0020FCF7FCFA14
:10469000E120FCF715FB0020FCF7F6FA1620FCF7EA
:1046A000F3FA1B20FCF7F0FA0420FCF7EDFA1120D6
:1046B000FCF7EAFA0720FCF7E7FA3120FCF7E4FA06
:1046C0003320FCF7E1FA4220FCF7DEFA0520FCF784
:1046D000DBFA0C20FCF7D8FA0A20FCF7D5FA2820E0
:1046E000FCF7D2FA2F20FCF7CFFA0F20FCF7CCFA18
:1046F0001120FCF7E5FAC820FCF730FB2920FCF775
:10470000DFFABDE808402C20FCF7DABA08B5FCF760
:10471000ABFA0321D320FCF7EFFA80B208BD10B545
:10472000C4B2022203212046FCF754FA0A20FCF707
:1047300099FA204600220321FCF74CFABDE810400C
:104740000220FCF78FBA38B50446E4B2FCF740FA11
:1047500000212046FCF756FA012105462046FCF7C9
:1047600051FA40EA052080B238BD10B5C4B24021EC
:104770002046FCF747FA030607D54C212046FCF7F4
:1047800041FA003818BF012010BD01224B212046FC
:10479000FCF720FA204600224B21FCF71BFA0020F0
:1047A000F2E773B50423C4B20E461546D7210DEBCC
:1047B00003022046FCF740FA019B1BBA1A0DC3F313
:1047C0000B23328020462B8001224B21FCF702FA7A
:1047D00000224B212046FCF7FDF902B070BD00001D
:1047E00010B50A4A1378984204460DD05178884291
:1047F0000AD00BB141B90123D454FCF7E9F92046A2
:10480000BDE81040FFF78BBF10BD00BFDC460020A5
:1048100010B5C4B209212046FCF7F4F940F00102BA
:10482000D2B220460921BDE81040FCF7D3B910B53B
:10483000C4B209212046FCF7E5F9092100F0FE0287
:104840002046BDE81040FCF7C5B938B5C4B20D46E6
:1048500020460A21FCF7D6F940EA0502D2B22046EA
:104860000A21BDE83840FCF7B5B910B50446FCF79D
:10487000B0F920461F21FFF7E8FF2046BDE81040B1
:10488000FFF7C6BF38B5C4B20D4620460A21FCF773
:10489000B9F920EA0502D2B220460A21BDE8384023
:1048A000FCF798B910B50446FFF7C1FF20461F2159
:1048B000BDE81040FFF7E6BF10B5C0B20C460B21B3
:1048C000FCF7A0F9204010BD1F21FFF7F5BF0A46F5
:1048D000C0B20B21FCF77EB91F21FFF7F8BF38B536
:1048E000C4B20D4620461721FCF78CF920EA0502D8
:1048F000D2B220461721BDE83840FCF76BB970B53D
:10490000C4B2064604212046FCF77CF9042100F0DD
:10491000FB0205462046FCF75DF93046F021FFF723
:10492000DEFF05F0F80220460421FCF753F9492286
:1049300020212046FCF74EF90220FCF793F920468F
:1049400001222121FCF746F920469A224121FCF759
:1049500041F9204601224A21FCF73CF92046012278
:104960004B21FCF737F9204600224B21FCF732F9A6
:10497000204601225621FCF72DF92046012258211C
:10498000FCF728F9204601224021FCF723F92046B4
:10499000FF220B21FCF71EF9BDE870400220FCF756
:1049A00061B90000054BD3F8882042F47002C3F8C7
:1049B00088204FF000629A60704700BF00ED00E071
:1049C00008B50B4B1A6842F400721A601A6842F478
:1049D00080621A601A6842F480721A60032000F044
:1049E0002FF80020FCF764FFFCF7E2FC002008BD74
:1049F000003C0240034A044B11681B780B441360CF
:104A0000704700BFE04600207C000020014B186882
:104A1000704700BFE046002038B50446FFF7F6FFB8
:104A2000631C1CBF054B1B78054618BFE418FFF735
:104A3000EDFF431BA342FAD338BD00BF7C0000202A
:104A40000749CA6822F4E0620302120403F4E06337
:104A5000120C134343F0BF6343F40033CB60704741
:104A600000ED00E0164B30B5DC68C4F30224C4F15D
:104A70000703251D042B28BF0423062D4FF0FF3507
:104A80008CBF033C002405FA03F321EA0303A5408D
:104A900022EA0502A340002843EA0203ACBF00F16A
:104AA0006040084A4FEA0313B8BF00F00F00DBB2C2
:104AB000AABF00F56140135480F8003330BD00BF39
:104AC00000ED00E014ED00E0002807DB4109044A96
:104AD00000F01F000123834042F82130704700BFDF
:104AE00000E100E010B5044650B1437903F0FF0245
:104AF00013B90271FCF77CFC01236371002010BD27
:104B00000120FCE710B5044620B390F8393003F0DB
:104B1000FF021BB980F83820FCF782FC022384F8DE
:104B20003930236861681A6822F440320A431A60F7
:104B30005A6BA16822F007020A435A631A6CE168B3
:104B40006FF30D020A431A6400200123E06384F826
:104B5000393010BD0120FCE770477047036870B51D
:104B60005E681D68F207044614D5E90512D51A6877
:104B700022F480721A60C26B42F00102C263012209
:104B80009A60042380F83930002380F83830436974
:104B900003B19847B20616D5AB0414D523681A683A
:104BA00022F400521A6020229A60E36B43F0020361
:104BB000E363042384F83930002384F838306369D0
:104BC0000BB120469847300716D5290514D5236820
:104BD0001A6822F400621A6008229A60E36B43F0BC
:104BE0000403E363042384F83930002384F8383065
:104BF00063690BB12046984772070BD56B0509D541
:104C000023681A6822F480621A6004229A6020469F
:104C1000FFF7A2FFB00714D5A90512D523681A68BB
:104C200022F400721A6002229A60E36BE3630123AC
:104C300084F83930002384F8383023690BB12046DA
:104C40009847F20613D5EB0411D523681A6822F4AD
:104C500080521A6010229A60E36BE363012384F8A8
:104C60003930002384F838302046FFF776FF70BDD6
:104C7000F0B590F83820012A03464FF002002BD0FF
:104C8000012283F8382083F8390003EB0112D2E9BE
:104C90000740556A174F44EA0040093C012C9CBF6D
:104CA00005F07F4210434FEA01161A6888BF40EAB8
:104CB000056091B9516A394001435162012C9969EB
:104CC000916103D8596A21F07F419162012200204D
:104CD00083F8392083F83800F0BDD16939400143A9
:104CE000D1619919012C896911619CBF25F07F451B
:104CF0001562EBE7F0FFFC002DE9F74FDFF8BC9100
:104D00006C4A00230D6801249C4004EA0506AC436C
:104D100040F0B7804D68032705F003044FEA4308CD
:104D200007FA08FC671E012F6FEA0C0C34D887685D
:104D300007EA0C0ECF6807FA08F747EA0E07876004
:104D4000476827EA060EC5F300179F4047EA0E079B
:104D50004760C76807EA0C0E8F6807FA08F747EA4A
:104D60000E07022CC76019D14FEAD30A00EB8A0A5A
:104D700003F0070BDAF820704FEA8B0B4FF00F0EA1
:104D80000EFA0BFE27EA0E0E0F6907FA0BF747EA39
:104D90000E07CAF8207001E0032CDAD1076804FA84
:104DA00008F407EA0C073C4315F4403F046068D060
:104DB00000240194D9F8444044F48044C9F84440A4
:104DC000D9F8444023F0030707F1804704F48044F6
:104DD00007F59C37019403F0030C019CD7F808E019
:104DE0004FEA8C0C0F2404FA0CF42EEA040E324C19
:104DF000A0424DD004F58064A0424BD004F58064FD
:104E0000A04249D004F58064A04247D004F58064F4
:104E1000A04245D004F58064A04243D004F58064EC
:104E2000A04241D004F58064A0423FD004F58064E4
:104E3000A0423DD004F58064A04214BF0A24092496
:104E400004FA0CF444EA0E04BC609468F74315F4C9
:104E5000801F0CBF3C4034439460D46815F4001F9D
:104E60000CBF3C403443D460546815F4003F0CBF81
:104E70003C40344354601468ED0354BF3C40344319
:104E800014600133102B7FF43DAF03B0BDE8F08F09
:104E90000024D5E70124D3E70224D1E70324CFE798
:104EA0000424CDE70524CBE70624C9E70724C7E798
:104EB0000824C5E7003C01400000024000380240E1
:104EC0000369194214BF0120002070470AB18161B3
:104ED00070470904FBE7436901EA030221EA030181
:104EE00041EA024181617047044A5169014208B5B3
:104EF00002D05061FCF71CFA08BD00BF003C014025
:104F000001684B6913F480634FF0000210D06FF416
:104F100080634B612023026380F83D3080F83E209F
:104F2000036C80F83C2043F00403036401207047C5
:104F3000184670472DE9F84606460F4691461D462D
:104F40004FEA114A3368BAF1010F0CBF5C699C69E2
:104F500027EA0404A4B2B4FA84F46409A14501D098
:104F6000002017E06A1CEED0FFF750FD089BC01A26
:104F7000A84201D8002DE5D100232022336386F812
:104F80003D2086F83E30326C86F83C3042F02002FC
:104F900032640120BDE8F8862DE9F04104460F4651
:104FA000164698462568686927EA000080B2C0B1B5
:104FB0006B695A0517D52B6843F400732B606FF4A7
:104FC00080636B6120220023236384F83D2084F8F2
:104FD0003E30236C43F004032364002384F83C3008
:104FE0000120BDE8F081731CDDD0FFF70FFDA0EBC1
:104FF0000800B04209D900232022236384F83D2011
:1050000084F83E30236C1343E6E7002ECAD1F2E762
:1050100070B504460D46164623685B691B0601D52C
:10502000002018E02046FFF76BFF98B96A1CF3D008
:10503000FFF7ECFC801BA8420ED90023202223633B
:1050400084F83D2084F83E30226C84F83C3042F0F5
:1050500020022264012070BD002DDDD1EDE70000AB
:105060002DE9F0431546026885B0DDE90C789946D4
:10507000136843F4807313600E463B46CDF80080FE
:1050800000224FF001110446FFF754FF236838B1A6
:105090001B68DB0502D54FF400732364032620E070
:1050A00006F0FE061E611A4943463A462046FFF7BF
:1050B00073FFA8B9236803905A6903929B6903930D
:1050C000424639462046039BFFF7A2FF064660B1E1
:1050D000236C042B01BF2268136843F40073136030
:1050E0000126304605B0BDE8F083B9F1010F236811
:1050F00002D1EDB21D61F4E72A0A1A61394642462F
:105100002046FFF785FF0028E2D12368F1E700BFC2
:10511000020001002DE9FF479A46036815461A6808
:1051200042F480621A601A68DDE90C7842F48072F9
:105130001A600E463B46CDF8008000224FF0011168
:105140000446FFF7F7FE236838B11B68DB0544BF50
:105150004FF400732364032021E05FFA86F906F020
:10516000FE061E612B4943463A462046FFF714FFD0
:10517000A0B9236803905A6903929B69039342463E
:1051800039462046039BFFF743FF58B1236C042B9D
:1051900001BF2268136843F400731360012004B058
:1051A000BDE8F087BAF1010F23681AD1EDB242468B
:1051B0001D6139462046FFF72BFF02460028E5D146
:1051C00021680B6843F480730B602046CDF80080A3
:1051D0003B464FF00111FFF7ADFE226860B1136846
:1051E000B4E72A0A1A61394642462046FFF710FF03
:1051F0000028CBD12368D9E749F0010313610549A1
:1052000043463A462046FFF7C7FE003818BF012044
:10521000C5E700BF0200010070B504460D46164602
:1052200023685B695B0701D5002018E02046FFF783
:1052300067FE98B96A1CF3D0FFF7E8FB801BA84211
:105240000ED900232022236384F83D2084F83E30C9
:10525000226C84F83C3042F020022264012070BDB0
:10526000002DDDD1EDE770B504460D4616462168E8
:105270004B6913F0400301D0002011E04A69D206C7
:105280000FD56FF010024A612022236384F83D207D
:1052900084F83E30236C2364002384F83C300120E2
:1052A00070BDFFF7B3FB801BA84209D90023202261
:1052B000236384F83D2084F83E30236C1343EAE7EF
:1052C000002DD4D1F2E7000070B5044608B90120E2
:1052D00070BD90F83D3003F0FF021BB980F83C2010
:1052E000FCF7C0F8242384F83D3023681A6822F0C4
:1052F00001021A601A6842F400421A601A6822F425
:1053000000421A6000F066FE3F4B65689D4294BF04
:105310003E4B3F4B98428CBF00230123002BD6D13C
:105320002268394E51683B4BB0FBF3F321F03F014B
:105330001943B542516088BF4FF49676116A88BF11
:10534000734321F03F0184BF4FF47A76B3FBF6F349
:1053500001330B431362D169431E2B4821F44F41A3
:10536000854221F0FF0132D86D0040F6FC70B3FB9E
:10537000F5F30133034242D0C3F30B031943D16168
:10538000D4E907301168034321F0C0010B431360D7
:105390009168D4E9030321F40341034321F0FF01A1
:1053A0000B439360D4E90530D168034321F0FF013A
:1053B0000B43D360136843F00103136000202023E4
:1053C000206484F83D30206384F83E0080E7A068C4
:1053D00050B905EB4505B3FBF5F30133C3F30B03FC
:1053E0007BB143F40043C9E719206843B3FBF0F3F2
:1053F0000133C3F30B0323B143F44043BEE704235B
:10540000BCE70123BAE700BFA08601007F841E002D
:10541000FF083D0040420F002DE9F743044699463E
:105420000C9E0F469046FFF7F1FA94F83D30202B82
:10543000054603D0022003B0BDE8F08300903C494C
:10544000192301222046FFF775FD0028F2D194F8B8
:105450003C30012BEED02068012384F83C300368F7
:10546000D9075EBF036843F001030360036823F4B8
:1054700000630360212384F83D30402384F83E30EC
:10548000002323640A9B6362BDF82C306385638D1F
:105490002385284BE3624246CDE900654B463946F9
:1054A0002046FFF7DDFD00282AD00120C3E7FFF7E3
:1054B000AFFD40B1236C042B01BF2268136843F495
:1054C00000731360F1E7636A27681A4612F8011B3C
:1054D00039616262628D218D013A92B262857A6988
:1054E000481E80B2520720850AD548B15A783A61E1
:1054F00002336362638D013B02399BB22185638570
:10550000238D2A4631462046002BD0D1FFF784FE5A
:105510000028CFD12268136843F40073136020235E
:1055200084F83D3084F83C0084F83E0083E700BFF7
:10553000020010000000FFFF2DE9F043044687B091
:105540009946109F0D469046FFF760FA94F83D305B
:10555000202B064604D00225284607B0BDE8F0837C
:1055600000907649192301222046FFF7E3FC00282A
:10557000F1D194F83C30012BEDD02068012384F860
:105580003C300368DB075EBF036843F00103036040
:10559000036823F400630360222384F83D30402332
:1055A00084F83E30002323640E9B6362BDF83C30D8
:1055B0006385638D2385624BE3622946CDE90076DE
:1055C0004B4642462046FFF7A5FD054608B101259A
:1055D000C2E7228D2368B2B902905A6902929A6991
:1055E0000292029A1A6842F400721A60DFF854813B
:1055F000238D002B2CD1202284F83D2084F83C30D0
:1056000084F83E30A8E7012A0AD11A6822F48062A1
:105610001A6003905A6903929A690392039AE1E728
:10562000022A0ED11A6822F480621A601A6842F4C3
:1056300000621A6004905A6904929B690493049B67
:10564000D4E705905A6905929B690593059BCDE7C0
:10565000032B56D8012B15D1324639462046FFF789
:1056600002FE0028B3D123681A69636A1A70636A5C
:1056700001336362238D013B2385638D013B9BB224
:105680006385B5E7022B00963B464FF0000241468A
:10569000204619D1FFF74EFC002898D123681A68DC
:1056A00042F400721A601A69636A1A70626A531CC3
:1056B0006362238D013B2385638D013B9BB2638530
:1056C00023681B695370D2E7FFF734FC02460028B9
:1056D0007FF47DAF2368196821F48061196019692E
:1056E000636A1970636A01336362238D013B23850A
:1056F000638D013B9BB26385414600963B46204645
:10570000C8E7324639462046FFF7ADFD00287FF452
:105710005EAF23681A69636A1A70626A531C636217
:10572000238D013B2385638D013B9BB263852368F9
:10573000596949077FF55CAFC3E700BF020010005D
:105740000000FFFF0400010010B590F83D30202B51
:10575000DCB216D1242380F83D3003681A6822F0A9
:1057600001021A605A6A22F010025A625A6A114300
:1057700059621A6842F001021A6080F83D40002028
:1057800010BD0220FCE730B590F83D30202BDCB294
:1057900016D10268242380F83D30136823F00103FA
:1057A0001360556A4FF6F0732B400B439BB2536264
:1057B000136843F00103136080F83D40002030BDC2
:1057C0000220FCE70068D1F800C0D20184328318BF
:1057D0002DE9F043C6685D684C68D1F8189005F46F
:1057E00070455D60C5680CF10107C5F30B45C6F354
:1057F0000B4626443D4445EA06455D60C668CD68D3
:10580000C6F30A062E449D6805F470459D60C7687E
:105810008D68C7F30A0701353D4445EA06459D609A
:105820001D690E6925F007051D614FF0000E1E6110
:1058300091F832709D6991F83180C3F818E091F8C1
:10584000305045EA096545EA082545EA07459D6166
:105850005D6925F0FF055D614D695D61DD6925F4D8
:10586000E06525F00705DD61D1E907573D43DD61BE
:105870009D6A4D6AC3F828E0072E9D629CBF0E4DBD
:10588000AE5DDD6A05F0E025DD6288BF01268D6A28
:10589000C96AA4EB0C0474437543033444EA054419
:1058A000DC621C6B6FF30A041C631963835843F0BA
:1058B00001038350BDE8F083785A010838B50446E7
:1058C000002863D090F8A13003F0FF021BB980F8E4
:1058D000A020FBF723FE022384F8A13023689A69F5
:1058E00022F070429A61D4E901200243E06899698C
:1058F0000243206902430A439A619A682449606915
:105900000A409A609A6842EA0042A06902439A609B
:10591000DA68E0690A40DA60DA6842EA0042206A3E
:105920000243DA601A69606A0A401A611A6942EA37
:105930000042A06A02431A615A690A405A615A69D0
:10594000E16A42EA0142216B0A435A61DA6A94F839
:10595000350094F8361002F07F42DA62DD6A94F87E
:1059600034202A4342EA002242EA0142DA625A6BB8
:1059700042F006025A639A6942F001029A610020DD
:105980000123C4F8A40084F8A13038BD0120FCE74D
:1059900000F800F070477047036870B59E6B5D6B50
:1059A0007207044614D5690712D55A6B22F0040217
:1059B0005A630422DA63D0F8A43043F00103C0F83C
:1059C000A430002380F8A12080F8A030FFF7E2FF88
:1059D000B20716D5AB0714D523685A6B22F0020222
:1059E0005A630222DA63D4F8A4301343C4F8A43013
:1059F000042384F8A130002384F8A0302046FFF768
:105A0000C9FFF00710D5E9070ED523685A6B22F0BD
:105A100001025A630122DA63002384F8A12084F88A
:105A2000A0302046FCF71CFE320711D52B070FD5FE
:105A300023685A6B22F008025A630822DA630123B2
:105A400084F8A130002384F8A0302046FFF7A3FF9C
:105A500070BD2DE9F04190F8A030012B06460F46AD
:105A600094464FF002001FD04FF0010886F8A08046
:105A700086F8A10034240D4604FB02640FCD3834AF
:105A80000FC40FCD0FC40FCD0FC42B682360304659
:105A900062463946FFF796FE33680020C3F824803B
:105AA00086F8A18086F8A000BDE8F08190F8A020DB
:105AB000012A03464FF0020012D01A6883F8A100B1
:105AC000506B20F00100506306480164516B41F0B7
:105AD000010151630020012283F8A12083F8A00076
